{
  "_format": "hh-sol-artifact-1",
  "contractName": "Donation",
  "sourceName": "contracts/Donation.sol",
  "abi": [
    {
      "inputs": [],
      "stateMutability": "payable",
      "type": "constructor"
    },
    {
      "anonymous": false,
      "inputs": [
        {
          "indexed": true,
          "internalType": "address",
          "name": "owner",
          "type": "address"
        },
        {
          "indexed": true,
          "internalType": "address",
          "name": "approved",
          "type": "address"
        },
        {
          "indexed": true,
          "internalType": "uint256",
          "name": "tokenId",
          "type": "uint256"
        }
      ],
      "name": "Approval",
      "type": "event"
    },
    {
      "anonymous": false,
      "inputs": [
        {
          "indexed": true,
          "internalType": "address",
          "name": "owner",
          "type": "address"
        },
        {
          "indexed": true,
          "internalType": "address",
          "name": "operator",
          "type": "address"
        },
        {
          "indexed": false,
          "internalType": "bool",
          "name": "approved",
          "type": "bool"
        }
      ],
      "name": "ApprovalForAll",
      "type": "event"
    },
    {
      "anonymous": false,
      "inputs": [
        {
          "indexed": true,
          "internalType": "address",
          "name": "previousOwner",
          "type": "address"
        },
        {
          "indexed": true,
          "internalType": "address",
          "name": "newOwner",
          "type": "address"
        }
      ],
      "name": "OwnershipTransferred",
      "type": "event"
    },
    {
      "anonymous": false,
      "inputs": [
        {
          "indexed": true,
          "internalType": "address",
          "name": "from",
          "type": "address"
        },
        {
          "indexed": true,
          "internalType": "address",
          "name": "to",
          "type": "address"
        },
        {
          "indexed": true,
          "internalType": "uint256",
          "name": "tokenId",
          "type": "uint256"
        }
      ],
      "name": "Transfer",
      "type": "event"
    },
    {
      "inputs": [],
      "name": "GOLD",
      "outputs": [
        {
          "internalType": "uint256",
          "name": "",
          "type": "uint256"
        }
      ],
      "stateMutability": "view",
      "type": "function"
    },
    {
      "inputs": [],
      "name": "alamatA",
      "outputs": [
        {
          "internalType": "address",
          "name": "",
          "type": "address"
        }
      ],
      "stateMutability": "view",
      "type": "function"
    },
    {
      "inputs": [
        {
          "internalType": "address",
          "name": "to",
          "type": "address"
        },
        {
          "internalType": "uint256",
          "name": "tokenId",
          "type": "uint256"
        }
      ],
      "name": "approve",
      "outputs": [],
      "stateMutability": "nonpayable",
      "type": "function"
    },
    {
      "inputs": [
        {
          "internalType": "address",
          "name": "owner",
          "type": "address"
        }
      ],
      "name": "balanceOf",
      "outputs": [
        {
          "internalType": "uint256",
          "name": "",
          "type": "uint256"
        }
      ],
      "stateMutability": "view",
      "type": "function"
    },
    {
      "inputs": [],
      "name": "cetakaja",
      "outputs": [],
      "stateMutability": "payable",
      "type": "function"
    },
    {
      "inputs": [
        {
          "internalType": "string",
          "name": "title",
          "type": "string"
        },
        {
          "internalType": "string",
          "name": "imgurl",
          "type": "string"
        },
        {
          "internalType": "bytes",
          "name": "desc",
          "type": "bytes"
        },
        {
          "internalType": "uint256",
          "name": "maxvalue",
          "type": "uint256"
        },
        {
          "internalType": "string",
          "name": "nfturl",
          "type": "string"
        },
        {
          "internalType": "uint256",
          "name": "rewardvalue",
          "type": "uint256"
        }
      ],
      "name": "createpost",
      "outputs": [],
      "stateMutability": "nonpayable",
      "type": "function"
    },
    {
      "inputs": [
        {
          "internalType": "uint256",
          "name": "tokenId",
          "type": "uint256"
        }
      ],
      "name": "getApproved",
      "outputs": [
        {
          "internalType": "address",
          "name": "",
          "type": "address"
        }
      ],
      "stateMutability": "view",
      "type": "function"
    },
    {
      "inputs": [
        {
          "internalType": "uint256",
          "name": "pid1",
          "type": "uint256"
        }
      ],
      "name": "gotMoney",
      "outputs": [],
      "stateMutability": "payable",
      "type": "function"
    },
    {
      "inputs": [
        {
          "internalType": "address",
          "name": "owner",
          "type": "address"
        },
        {
          "internalType": "address",
          "name": "operator",
          "type": "address"
        }
      ],
      "name": "isApprovedForAll",
      "outputs": [
        {
          "internalType": "bool",
          "name": "",
          "type": "bool"
        }
      ],
      "stateMutability": "view",
      "type": "function"
    },
    {
      "inputs": [
        {
          "internalType": "uint256",
          "name": "tokenid",
          "type": "uint256"
        }
      ],
      "name": "kirimaja",
      "outputs": [],
      "stateMutability": "payable",
      "type": "function"
    },
    {
      "inputs": [],
      "name": "name",
      "outputs": [
        {
          "internalType": "string",
          "name": "",
          "type": "string"
        }
      ],
      "stateMutability": "view",
      "type": "function"
    },
    {
      "inputs": [],
      "name": "owner",
      "outputs": [
        {
          "internalType": "address",
          "name": "",
          "type": "address"
        }
      ],
      "stateMutability": "view",
      "type": "function"
    },
    {
      "inputs": [
        {
          "internalType": "uint256",
          "name": "tokenId",
          "type": "uint256"
        }
      ],
      "name": "ownerOf",
      "outputs": [
        {
          "internalType": "address",
          "name": "",
          "type": "address"
        }
      ],
      "stateMutability": "view",
      "type": "function"
    },
    {
      "inputs": [],
      "name": "renounceOwnership",
      "outputs": [],
      "stateMutability": "nonpayable",
      "type": "function"
    },
    {
      "inputs": [
        {
          "internalType": "address",
          "name": "from",
          "type": "address"
        },
        {
          "internalType": "address",
          "name": "to",
          "type": "address"
        },
        {
          "internalType": "uint256",
          "name": "tokenId",
          "type": "uint256"
        }
      ],
      "name": "safeTransferFrom",
      "outputs": [],
      "stateMutability": "nonpayable",
      "type": "function"
    },
    {
      "inputs": [
        {
          "internalType": "address",
          "name": "from",
          "type": "address"
        },
        {
          "internalType": "address",
          "name": "to",
          "type": "address"
        },
        {
          "internalType": "uint256",
          "name": "tokenId",
          "type": "uint256"
        },
        {
          "internalType": "bytes",
          "name": "data",
          "type": "bytes"
        }
      ],
      "name": "safeTransferFrom",
      "outputs": [],
      "stateMutability": "nonpayable",
      "type": "function"
    },
    {
      "inputs": [
        {
          "internalType": "address",
          "name": "operator",
          "type": "address"
        },
        {
          "internalType": "bool",
          "name": "approved",
          "type": "bool"
        }
      ],
      "name": "setApprovalForAll",
      "outputs": [],
      "stateMutability": "nonpayable",
      "type": "function"
    },
    {
      "inputs": [
        {
          "internalType": "bytes4",
          "name": "interfaceId",
          "type": "bytes4"
        }
      ],
      "name": "supportsInterface",
      "outputs": [
        {
          "internalType": "bool",
          "name": "",
          "type": "bool"
        }
      ],
      "stateMutability": "view",
      "type": "function"
    },
    {
      "inputs": [],
      "name": "symbol",
      "outputs": [
        {
          "internalType": "string",
          "name": "",
          "type": "string"
        }
      ],
      "stateMutability": "view",
      "type": "function"
    },
    {
      "inputs": [],
      "name": "syncdonation",
      "outputs": [
        {
          "components": [
            {
              "internalType": "address",
              "name": "provider",
              "type": "address"
            },
            {
              "internalType": "uint256",
              "name": "posttime",
              "type": "uint256"
            },
            {
              "internalType": "string",
              "name": "title",
              "type": "string"
            },
            {
              "internalType": "string",
              "name": "imgurl",
              "type": "string"
            },
            {
              "internalType": "bytes",
              "name": "desc",
              "type": "bytes"
            },
            {
              "internalType": "uint256",
              "name": "maxvalue",
              "type": "uint256"
            },
            {
              "internalType": "uint256",
              "name": "currvalue",
              "type": "uint256"
            },
            {
              "internalType": "uint256",
              "name": "rewardid",
              "type": "uint256"
            },
            {
              "internalType": "bool",
              "name": "owned",
              "type": "bool"
            },
            {
              "internalType": "uint256",
              "name": "rewardvalue",
              "type": "uint256"
            },
            {
              "components": [
                {
                  "internalType": "uint256",
                  "name": "donortime",
                  "type": "uint256"
                },
                {
                  "internalType": "address",
                  "name": "donors",
                  "type": "address"
                },
                {
                  "internalType": "uint256",
                  "name": "valueofdonors",
                  "type": "uint256"
                }
              ],
              "internalType": "struct Donation.Transaction[]",
              "name": "transactions",
              "type": "tuple[]"
            }
          ],
          "internalType": "struct Donation.DonationPost[]",
          "name": "",
          "type": "tuple[]"
        }
      ],
      "stateMutability": "view",
      "type": "function"
    },
    {
      "inputs": [
        {
          "internalType": "uint256",
          "name": "tokenId",
          "type": "uint256"
        }
      ],
      "name": "tokenURI",
      "outputs": [
        {
          "internalType": "string",
          "name": "",
          "type": "string"
        }
      ],
      "stateMutability": "view",
      "type": "function"
    },
    {
      "inputs": [
        {
          "internalType": "address",
          "name": "from",
          "type": "address"
        },
        {
          "internalType": "address",
          "name": "to",
          "type": "address"
        },
        {
          "internalType": "uint256",
          "name": "tokenId",
          "type": "uint256"
        }
      ],
      "name": "transferFrom",
      "outputs": [],
      "stateMutability": "nonpayable",
      "type": "function"
    },
    {
      "inputs": [
        {
          "internalType": "address",
          "name": "newOwner",
          "type": "address"
        }
      ],
      "name": "transferOwnership",
      "outputs": [],
      "stateMutability": "nonpayable",
      "type": "function"
    }
  ],
  "bytecode": "0x60806040526040518060400160405280600f81526020017f446f6e6174696f6e2052657761726400000000000000000000000000000000008152506040518060400160405280600281526020017f445200000000000000000000000000000000000000000000000000000000000081525081600090805190602001906200008892919062000212565b508060019080519060200190620000a192919062000212565b505050620000c4620000b86200011a60201b60201c565b6200012260201b60201c565b620000d4620001e860201b60201c565b600860006101000a81548173ffffffffffffffffffffffffffffffffffffffff021916908373ffffffffffffffffffffffffffffffffffffffff16021790555062000327565b600033905090565b6000600760009054906101000a900473ffffffffffffffffffffffffffffffffffffffff16905081600760006101000a81548173ffffffffffffffffffffffffffffffffffffffff021916908373ffffffffffffffffffffffffffffffffffffffff1602179055508173ffffffffffffffffffffffffffffffffffffffff168173ffffffffffffffffffffffffffffffffffffffff167f8be0079c531659141344cd1fd0a4f28419497f9722a3daafe3b4186f6b6457e060405160405180910390a35050565b6000600760009054906101000a900473ffffffffffffffffffffffffffffffffffffffff16905090565b8280546200022090620002f1565b90600052602060002090601f01602090048101928262000244576000855562000290565b82601f106200025f57805160ff191683800117855562000290565b8280016001018555821562000290579182015b828111156200028f57825182559160200191906001019062000272565b5b5090506200029f9190620002a3565b5090565b5b80821115620002be576000816000905550600101620002a4565b5090565b7f4e487b7100000000000000000000000000000000000000000000000000000000600052602260045260246000fd5b600060028204905060018216806200030a57607f821691505b60208210811415620003215762000320620002c2565b5b50919050565b61406c80620003376000396000f3fe6080604052600436106101405760003560e01c806350469e8b116100b657806395d89b411161006f57806395d89b411461040d578063a22cb46514610438578063b88d4fde14610461578063c87b56dd1461048a578063e985e9c5146104c7578063f2fde38b1461050457610140565b806350469e8b146103195780635bb0b24b146103355780636352211e1461035157806370a082311461038e578063715018a6146103cb5780638da5cb5b146103e257610140565b8063225dfb5c11610108578063225dfb5c1461023c57806323b872dd1461026757806326c5b996146102905780633e4bee381461029a57806342842e0e146102c55780634de729e4146102ee57610140565b806301ffc9a71461014557806306fdde0314610182578063081812fc146101ad578063095ea7b3146101ea5780631f91d07914610213575b600080fd5b34801561015157600080fd5b5061016c60048036038101906101679190612b86565b61052d565b6040516101799190612bce565b60405180910390f35b34801561018e57600080fd5b5061019761060f565b6040516101a49190612c82565b60405180910390f35b3480156101b957600080fd5b506101d460048036038101906101cf9190612cda565b6106a1565b6040516101e19190612d48565b60405180910390f35b3480156101f657600080fd5b50610211600480360381019061020c9190612d8f565b6106e7565b005b34801561021f57600080fd5b5061023a60048036038101906102359190612e8a565b6107ff565b005b34801561024857600080fd5b50610251610abc565b60405161025e9190612d48565b60405180910390f35b34801561027357600080fd5b5061028e60048036038101906102899190612f9a565b610ae2565b005b610298610b42565b005b3480156102a657600080fd5b506102af610b67565b6040516102bc9190612ffc565b60405180910390f35b3480156102d157600080fd5b506102ec60048036038101906102e79190612f9a565b610b6c565b005b3480156102fa57600080fd5b50610303610b8c565b604051610310919061339a565b60405180910390f35b610333600480360381019061032e9190612cda565b610f0e565b005b61034f600480360381019061034a9190612cda565b61119a565b005b34801561035d57600080fd5b5061037860048036038101906103739190612cda565b6111a8565b6040516103859190612d48565b60405180910390f35b34801561039a57600080fd5b506103b560048036038101906103b091906133bc565b61122f565b6040516103c29190612ffc565b60405180910390f35b3480156103d757600080fd5b506103e06112e7565b005b3480156103ee57600080fd5b506103f76112fb565b6040516104049190612d48565b60405180910390f35b34801561041957600080fd5b50610422611325565b60405161042f9190612c82565b60405180910390f35b34801561044457600080fd5b5061045f600480360381019061045a9190613415565b6113b7565b005b34801561046d57600080fd5b5061048860048036038101906104839190613585565b6113cd565b005b34801561049657600080fd5b506104b160048036038101906104ac9190612cda565b61142f565b6040516104be9190612c82565b60405180910390f35b3480156104d357600080fd5b506104ee60048036038101906104e99190613608565b611542565b6040516104fb9190612bce565b60405180910390f35b34801561051057600080fd5b5061052b600480360381019061052691906133bc565b6115d6565b005b60007f80ac58cd000000000000000000000000000000000000000000000000000000007bffffffffffffffffffffffffffffffffffffffffffffffffffffffff1916827bffffffffffffffffffffffffffffffffffffffffffffffffffffffff191614806105f857507f5b5e139f000000000000000000000000000000000000000000000000000000007bffffffffffffffffffffffffffffffffffffffffffffffffffffffff1916827bffffffffffffffffffffffffffffffffffffffffffffffffffffffff1916145b8061060857506106078261165a565b5b9050919050565b60606000805461061e90613677565b80601f016020809104026020016040519081016040528092919081815260200182805461064a90613677565b80156106975780601f1061066c57610100808354040283529160200191610697565b820191906000526020600020905b81548152906001019060200180831161067a57829003601f168201915b5050505050905090565b60006106ac826116c4565b6004600083815260200190815260200160002060009054906101000a900473ffffffffffffffffffffffffffffffffffffffff169050919050565b60006106f2826111a8565b90508073ffffffffffffffffffffffffffffffffffffffff168373ffffffffffffffffffffffffffffffffffffffff161415610763576040517f08c379a000000000000000000000000000000000000000000000000000000000815260040161075a9061371b565b60405180910390fd5b8073ffffffffffffffffffffffffffffffffffffffff1661078261170f565b73ffffffffffffffffffffffffffffffffffffffff1614806107b157506107b0816107ab61170f565b611542565b5b6107f0576040517f08c379a00000000000000000000000000000000000000000000000000000000081526004016107e7906137ad565b60405180910390fd5b6107fa8383611717565b505050565b600061080b60096117d0565b905061081730826117de565b33600a60000160006101000a81548173ffffffffffffffffffffffffffffffffffffffff021916908373ffffffffffffffffffffffffffffffffffffffff16021790555042600a600101819055508a8a600a6002019190610879929190612730565b508888600a600301919061088e929190612730565b508686600a60040191906108a39291906127b6565b5084600a600501819055506000600a6006018190555080600a600701819055506000600a60080160006101000a81548160ff02191690831515021790555081600a600901819055506109398185858080601f016020809104026020016040519081016040528093929190818152602001838380828437600081840152601f19601f820116905080830192505050505050506119fc565b6015600a90806001815401808255809150506001900390600052602060002090600b02016000909190919091506000820160009054906101000a900473ffffffffffffffffffffffffffffffffffffffff168160000160006101000a81548173ffffffffffffffffffffffffffffffffffffffff021916908373ffffffffffffffffffffffffffffffffffffffff1602179055506001820154816001015560028201816002019080546109eb90613677565b6109f692919061283c565b506003820181600301908054610a0b90613677565b610a1692919061283c565b506004820181600401908054610a2b90613677565b610a369291906128c9565b506005820154816005015560068201548160060155600782015481600701556008820160009054906101000a900460ff168160080160006101000a81548160ff02191690831515021790555060098201548160090155600a820181600a01908054610aa2929190612956565b505050610aaf6009611a70565b5050505050505050505050565b600860009054906101000a900473ffffffffffffffffffffffffffffffffffffffff1681565b610af3610aed61170f565b82611a86565b610b32576040517f08c379a0000000000000000000000000000000000000000000000000000000008152600401610b299061383f565b60405180910390fd5b610b3d838383611b1b565b505050565b6000610b4e60096117d0565b9050610b5a30826117de565b610b646009611a70565b50565b600081565b610b87838383604051806020016040528060008152506113cd565b505050565b60606015805480602002602001604051908101604052809291908181526020016000905b82821015610f0557838290600052602060002090600b0201604051806101600160405290816000820160009054906101000a900473ffffffffffffffffffffffffffffffffffffffff1673ffffffffffffffffffffffffffffffffffffffff1673ffffffffffffffffffffffffffffffffffffffff16815260200160018201548152602001600282018054610c4490613677565b80601f0160208091040260200160405190810160405280929190818152602001828054610c7090613677565b8015610cbd5780601f10610c9257610100808354040283529160200191610cbd565b820191906000526020600020905b815481529060010190602001808311610ca057829003601f168201915b50505050508152602001600382018054610cd690613677565b80601f0160208091040260200160405190810160405280929190818152602001828054610d0290613677565b8015610d4f5780601f10610d2457610100808354040283529160200191610d4f565b820191906000526020600020905b815481529060010190602001808311610d3257829003601f168201915b50505050508152602001600482018054610d6890613677565b80601f0160208091040260200160405190810160405280929190818152602001828054610d9490613677565b8015610de15780601f10610db657610100808354040283529160200191610de1565b820191906000526020600020905b815481529060010190602001808311610dc457829003601f168201915b505050505081526020016005820154815260200160068201548152602001600782015481526020016008820160009054906101000a900460ff1615151515815260200160098201548152602001600a8201805480602002602001604051908101604052809291908181526020016000905b82821015610eee5783829060005260206000209060030201604051806060016040529081600082015481526020016001820160009054906101000a900473ffffffffffffffffffffffffffffffffffffffff1673ffffffffffffffffffffffffffffffffffffffff1673ffffffffffffffffffffffffffffffffffffffff16815260200160028201548152505081526020019060010190610e52565b505050508152505081526020019060010190610bb0565b50505050905090565b600060158281548110610f2457610f2361385f565b5b90600052602060002090600b020160000160009054906101000a900473ffffffffffffffffffffffffffffffffffffffff1690508073ffffffffffffffffffffffffffffffffffffffff166108fc349081150290604051600060405180830381858888f19350505050158015610f9e573d6000803e3d6000fd5b503460158381548110610fb457610fb361385f565b5b90600052602060002090600b02016006016000828254610fd491906138bd565b9250508190555060158281548110610fef57610fee61385f565b5b90600052602060002090600b0201600a0160405180606001604052804281526020013373ffffffffffffffffffffffffffffffffffffffff1681526020013481525090806001815401808255809150506001900390600052602060002090600302016000909190919091506000820151816000015560208201518160010160006101000a81548173ffffffffffffffffffffffffffffffffffffffff021916908373ffffffffffffffffffffffffffffffffffffffff16021790555060408201518160020155505060001515601583815481106110cf576110ce61385f565b5b90600052602060002090600b020160080160009054906101000a900460ff1615151480156111225750346015838154811061110d5761110c61385f565b5b90600052602060002090600b02016009015411155b15611196576111573033601585815481106111405761113f61385f565b5b90600052602060002090600b020160070154611b1b565b60016015838154811061116d5761116c61385f565b5b90600052602060002090600b020160080160006101000a81548160ff0219169083151502179055505b5050565b6111a5303383611b1b565b50565b6000806111b483611e15565b9050600073ffffffffffffffffffffffffffffffffffffffff168173ffffffffffffffffffffffffffffffffffffffff161415611226576040517f08c379a000000000000000000000000000000000000000000000000000000000815260040161121d9061395f565b60405180910390fd5b80915050919050565b60008073ffffffffffffffffffffffffffffffffffffffff168273ffffffffffffffffffffffffffffffffffffffff1614156112a0576040517f08c379a0000000000000000000000000000000000000000000000000000000008152600401611297906139f1565b60405180910390fd5b600360008373ffffffffffffffffffffffffffffffffffffffff1673ffffffffffffffffffffffffffffffffffffffff168152602001908152602001600020549050919050565b6112ef611e52565b6112f96000611ed0565b565b6000600760009054906101000a900473ffffffffffffffffffffffffffffffffffffffff16905090565b60606001805461133490613677565b80601f016020809104026020016040519081016040528092919081815260200182805461136090613677565b80156113ad5780601f10611382576101008083540402835291602001916113ad565b820191906000526020600020905b81548152906001019060200180831161139057829003601f168201915b5050505050905090565b6113c96113c261170f565b8383611f96565b5050565b6113de6113d861170f565b83611a86565b61141d576040517f08c379a00000000000000000000000000000000000000000000000000000000081526004016114149061383f565b60405180910390fd5b61142984848484612103565b50505050565b606061143a826116c4565b600060066000848152602001908152602001600020805461145a90613677565b80601f016020809104026020016040519081016040528092919081815260200182805461148690613677565b80156114d35780601f106114a8576101008083540402835291602001916114d3565b820191906000526020600020905b8154815290600101906020018083116114b657829003601f168201915b5050505050905060006114e461215f565b90506000815114156114fa57819250505061153d565b60008251111561152f578082604051602001611517929190613a4d565b6040516020818303038152906040529250505061153d565b61153884612176565b925050505b919050565b6000600560008473ffffffffffffffffffffffffffffffffffffffff1673ffffffffffffffffffffffffffffffffffffffff16815260200190815260200160002060008373ffffffffffffffffffffffffffffffffffffffff1673ffffffffffffffffffffffffffffffffffffffff16815260200190815260200160002060009054906101000a900460ff16905092915050565b6115de611e52565b600073ffffffffffffffffffffffffffffffffffffffff168173ffffffffffffffffffffffffffffffffffffffff16141561164e576040517f08c379a000000000000000000000000000000000000000000000000000000000815260040161164590613ae3565b60405180910390fd5b61165781611ed0565b50565b60007f01ffc9a7000000000000000000000000000000000000000000000000000000007bffffffffffffffffffffffffffffffffffffffffffffffffffffffff1916827bffffffffffffffffffffffffffffffffffffffffffffffffffffffff1916149050919050565b6116cd816121de565b61170c576040517f08c379a00000000000000000000000000000000000000000000000000000000081526004016117039061395f565b60405180910390fd5b50565b600033905090565b816004600083815260200190815260200160002060006101000a81548173ffffffffffffffffffffffffffffffffffffffff021916908373ffffffffffffffffffffffffffffffffffffffff160217905550808273ffffffffffffffffffffffffffffffffffffffff1661178a836111a8565b73ffffffffffffffffffffffffffffffffffffffff167f8c5be1e5ebec7d5bd14f71427d1e84f3dd0314c0f7b2291e5b200ac8c7c3b92560405160405180910390a45050565b600081600001549050919050565b600073ffffffffffffffffffffffffffffffffffffffff168273ffffffffffffffffffffffffffffffffffffffff16141561184e576040517f08c379a000000000000000000000000000000000000000000000000000000000815260040161184590613b4f565b60405180910390fd5b611857816121de565b15611897576040517f08c379a000000000000000000000000000000000000000000000000000000000815260040161188e90613bbb565b60405180910390fd5b6118a560008383600161221f565b6118ae816121de565b156118ee576040517f08c379a00000000000000000000000000000000000000000000000000000000081526004016118e590613bbb565b60405180910390fd5b6001600360008473ffffffffffffffffffffffffffffffffffffffff1673ffffffffffffffffffffffffffffffffffffffff16815260200190815260200160002060008282540192505081905550816002600083815260200190815260200160002060006101000a81548173ffffffffffffffffffffffffffffffffffffffff021916908373ffffffffffffffffffffffffffffffffffffffff160217905550808273ffffffffffffffffffffffffffffffffffffffff16600073ffffffffffffffffffffffffffffffffffffffff167fddf252ad1be2c89b69c2b068fc378daa952ba7f163c4a11628f55a4df523b3ef60405160405180910390a46119f8600083836001612345565b5050565b611a05826121de565b611a44576040517f08c379a0000000000000000000000000000000000000000000000000000000008152600401611a3b90613c4d565b60405180910390fd5b80600660008481526020019081526020016000209080519060200190611a6b929190612a29565b505050565b6001816000016000828254019250508190555050565b600080611a92836111a8565b90508073ffffffffffffffffffffffffffffffffffffffff168473ffffffffffffffffffffffffffffffffffffffff161480611ad45750611ad38185611542565b5b80611b1257508373ffffffffffffffffffffffffffffffffffffffff16611afa846106a1565b73ffffffffffffffffffffffffffffffffffffffff16145b91505092915050565b8273ffffffffffffffffffffffffffffffffffffffff16611b3b826111a8565b73ffffffffffffffffffffffffffffffffffffffff1614611b91576040517f08c379a0000000000000000000000000000000000000000000000000000000008152600401611b8890613cdf565b60405180910390fd5b600073ffffffffffffffffffffffffffffffffffffffff168273ffffffffffffffffffffffffffffffffffffffff161415611c01576040517f08c379a0000000000000000000000000000000000000000000000000000000008152600401611bf890613d71565b60405180910390fd5b611c0e838383600161221f565b8273ffffffffffffffffffffffffffffffffffffffff16611c2e826111a8565b73ffffffffffffffffffffffffffffffffffffffff1614611c84576040517f08c379a0000000000000000000000000000000000000000000000000000000008152600401611c7b90613cdf565b60405180910390fd5b6004600082815260200190815260200160002060006101000a81549073ffffffffffffffffffffffffffffffffffffffff02191690556001600360008573ffffffffffffffffffffffffffffffffffffffff1673ffffffffffffffffffffffffffffffffffffffff168152602001908152602001600020600082825403925050819055506001600360008473ffffffffffffffffffffffffffffffffffffffff1673ffffffffffffffffffffffffffffffffffffffff16815260200190815260200160002060008282540192505081905550816002600083815260200190815260200160002060006101000a81548173ffffffffffffffffffffffffffffffffffffffff021916908373ffffffffffffffffffffffffffffffffffffffff160217905550808273ffffffffffffffffffffffffffffffffffffffff168473ffffffffffffffffffffffffffffffffffffffff167fddf252ad1be2c89b69c2b068fc378daa952ba7f163c4a11628f55a4df523b3ef60405160405180910390a4611e108383836001612345565b505050565b60006002600083815260200190815260200160002060009054906101000a900473ffffffffffffffffffffffffffffffffffffffff169050919050565b611e5a61170f565b73ffffffffffffffffffffffffffffffffffffffff16611e786112fb565b73ffffffffffffffffffffffffffffffffffffffff1614611ece576040517f08c379a0000000000000000000000000000000000000000000000000000000008152600401611ec590613ddd565b60405180910390fd5b565b6000600760009054906101000a900473ffffffffffffffffffffffffffffffffffffffff16905081600760006101000a81548173ffffffffffffffffffffffffffffffffffffffff021916908373ffffffffffffffffffffffffffffffffffffffff1602179055508173ffffffffffffffffffffffffffffffffffffffff168173ffffffffffffffffffffffffffffffffffffffff167f8be0079c531659141344cd1fd0a4f28419497f9722a3daafe3b4186f6b6457e060405160405180910390a35050565b8173ffffffffffffffffffffffffffffffffffffffff168373ffffffffffffffffffffffffffffffffffffffff161415612005576040517f08c379a0000000000000000000000000000000000000000000000000000000008152600401611ffc90613e49565b60405180910390fd5b80600560008573ffffffffffffffffffffffffffffffffffffffff1673ffffffffffffffffffffffffffffffffffffffff16815260200190815260200160002060008473ffffffffffffffffffffffffffffffffffffffff1673ffffffffffffffffffffffffffffffffffffffff16815260200190815260200160002060006101000a81548160ff0219169083151502179055508173ffffffffffffffffffffffffffffffffffffffff168373ffffffffffffffffffffffffffffffffffffffff167f17307eab39ab6107e8899845ad3d59bd9653f200f220920489ca2b5937696c31836040516120f69190612bce565b60405180910390a3505050565b61210e848484611b1b565b61211a8484848461234b565b612159576040517f08c379a000000000000000000000000000000000000000000000000000000000815260040161215090613edb565b60405180910390fd5b50505050565b606060405180602001604052806000815250905090565b6060612181826116c4565b600061218b61215f565b905060008151116121ab57604051806020016040528060008152506121d6565b806121b5846124e2565b6040516020016121c6929190613a4d565b6040516020818303038152906040525b915050919050565b60008073ffffffffffffffffffffffffffffffffffffffff1661220083611e15565b73ffffffffffffffffffffffffffffffffffffffff1614159050919050565b600181111561233f57600073ffffffffffffffffffffffffffffffffffffffff168473ffffffffffffffffffffffffffffffffffffffff16146122b35780600360008673ffffffffffffffffffffffffffffffffffffffff1673ffffffffffffffffffffffffffffffffffffffff16815260200190815260200160002060008282546122ab9190613efb565b925050819055505b600073ffffffffffffffffffffffffffffffffffffffff168373ffffffffffffffffffffffffffffffffffffffff161461233e5780600360008573ffffffffffffffffffffffffffffffffffffffff1673ffffffffffffffffffffffffffffffffffffffff168152602001908152602001600020600082825461233691906138bd565b925050819055505b5b50505050565b50505050565b600061236c8473ffffffffffffffffffffffffffffffffffffffff166125ba565b156124d5578373ffffffffffffffffffffffffffffffffffffffff1663150b7a0261239561170f565b8786866040518563ffffffff1660e01b81526004016123b79493929190613f79565b602060405180830381600087803b1580156123d157600080fd5b505af192505050801561240257506040513d601f19601f820116820180604052508101906123ff9190613fda565b60015b612485573d8060008114612432576040519150601f19603f3d011682016040523d82523d6000602084013e612437565b606091505b5060008151141561247d576040517f08c379a000000000000000000000000000000000000000000000000000000000815260040161247490613edb565b60405180910390fd5b805181602001fd5b63150b7a0260e01b7bffffffffffffffffffffffffffffffffffffffffffffffffffffffff1916817bffffffffffffffffffffffffffffffffffffffffffffffffffffffff1916149150506124da565b600190505b949350505050565b6060600060016124f1846125dd565b01905060008167ffffffffffffffff8111156125105761250f61345a565b5b6040519080825280601f01601f1916602001820160405280156125425781602001600182028036833780820191505090505b509050600082602001820190505b6001156125af578080600190039150507f3031323334353637383961626364656600000000000000000000000000000000600a86061a8153600a858161259957612598614007565b5b04945060008514156125aa576125af565b612550565b819350505050919050565b6000808273ffffffffffffffffffffffffffffffffffffffff163b119050919050565b600080600090507a184f03e93ff9f4daa797ed6e38ed64bf6a1f010000000000000000831061263b577a184f03e93ff9f4daa797ed6e38ed64bf6a1f010000000000000000838161263157612630614007565b5b0492506040810190505b6d04ee2d6d415b85acef81000000008310612678576d04ee2d6d415b85acef8100000000838161266e5761266d614007565b5b0492506020810190505b662386f26fc1000083106126a757662386f26fc10000838161269d5761269c614007565b5b0492506010810190505b6305f5e10083106126d0576305f5e10083816126c6576126c5614007565b5b0492506008810190505b61271083106126f55761271083816126eb576126ea614007565b5b0492506004810190505b60648310612718576064838161270e5761270d614007565b5b0492506002810190505b600a8310612727576001810190505b80915050919050565b82805461273c90613677565b90600052602060002090601f01602090048101928261275e57600085556127a5565b82601f1061277757803560ff19168380011785556127a5565b828001600101855582156127a5579182015b828111156127a4578235825591602001919060010190612789565b5b5090506127b29190612aaf565b5090565b8280546127c290613677565b90600052602060002090601f0160209004810192826127e4576000855561282b565b82601f106127fd57803560ff191683800117855561282b565b8280016001018555821561282b579182015b8281111561282a57823582559160200191906001019061280f565b5b5090506128389190612aaf565b5090565b82805461284890613677565b90600052602060002090601f01602090048101928261286a57600085556128b8565b82601f1061287b57805485556128b8565b828001600101855582156128b857600052602060002091601f016020900482015b828111156128b757825482559160010191906001019061289c565b5b5090506128c59190612aaf565b5090565b8280546128d590613677565b90600052602060002090601f0160209004810192826128f75760008555612945565b82601f106129085780548555612945565b8280016001018555821561294557600052602060002091601f016020900482015b82811115612944578254825591600101919060010190612929565b5b5090506129529190612aaf565b5090565b828054828255906000526020600020906003028101928215612a185760005260206000209160030282015b82811115612a17578282600082015481600001556001820160009054906101000a900473ffffffffffffffffffffffffffffffffffffffff168160010160006101000a81548173ffffffffffffffffffffffffffffffffffffffff021916908373ffffffffffffffffffffffffffffffffffffffff16021790555060028201548160020155505091600301919060030190612981565b5b509050612a259190612acc565b5090565b828054612a3590613677565b90600052602060002090601f016020900481019282612a575760008555612a9e565b82601f10612a7057805160ff1916838001178555612a9e565b82800160010185558215612a9e579182015b82811115612a9d578251825591602001919060010190612a82565b5b509050612aab9190612aaf565b5090565b5b80821115612ac8576000816000905550600101612ab0565b5090565b5b80821115612b16576000808201600090556001820160006101000a81549073ffffffffffffffffffffffffffffffffffffffff0219169055600282016000905550600301612acd565b5090565b6000604051905090565b600080fd5b600080fd5b60007fffffffff0000000000000000000000000000000000000000000000000000000082169050919050565b612b6381612b2e565b8114612b6e57600080fd5b50565b600081359050612b8081612b5a565b92915050565b600060208284031215612b9c57612b9b612b24565b5b6000612baa84828501612b71565b91505092915050565b60008115159050919050565b612bc881612bb3565b82525050565b6000602082019050612be36000830184612bbf565b92915050565b600081519050919050565b600082825260208201905092915050565b60005b83811015612c23578082015181840152602081019050612c08565b83811115612c32576000848401525b50505050565b6000601f19601f8301169050919050565b6000612c5482612be9565b612c5e8185612bf4565b9350612c6e818560208601612c05565b612c7781612c38565b840191505092915050565b60006020820190508181036000830152612c9c8184612c49565b905092915050565b6000819050919050565b612cb781612ca4565b8114612cc257600080fd5b50565b600081359050612cd481612cae565b92915050565b600060208284031215612cf057612cef612b24565b5b6000612cfe84828501612cc5565b91505092915050565b600073ffffffffffffffffffffffffffffffffffffffff82169050919050565b6000612d3282612d07565b9050919050565b612d4281612d27565b82525050565b6000602082019050612d5d6000830184612d39565b92915050565b612d6c81612d27565b8114612d7757600080fd5b50565b600081359050612d8981612d63565b92915050565b60008060408385031215612da657612da5612b24565b5b6000612db485828601612d7a565b9250506020612dc585828601612cc5565b9150509250929050565b600080fd5b600080fd5b600080fd5b60008083601f840112612df457612df3612dcf565b5b8235905067ffffffffffffffff811115612e1157612e10612dd4565b5b602083019150836001820283011115612e2d57612e2c612dd9565b5b9250929050565b60008083601f840112612e4a57612e49612dcf565b5b8235905067ffffffffffffffff811115612e6757612e66612dd4565b5b602083019150836001820283011115612e8357612e82612dd9565b5b9250929050565b60008060008060008060008060008060c08b8d031215612ead57612eac612b24565b5b60008b013567ffffffffffffffff811115612ecb57612eca612b29565b5b612ed78d828e01612dde565b9a509a505060208b013567ffffffffffffffff811115612efa57612ef9612b29565b5b612f068d828e01612dde565b985098505060408b013567ffffffffffffffff811115612f2957612f28612b29565b5b612f358d828e01612e34565b96509650506060612f488d828e01612cc5565b94505060808b013567ffffffffffffffff811115612f6957612f68612b29565b5b612f758d828e01612dde565b935093505060a0612f888d828e01612cc5565b9150509295989b9194979a5092959850565b600080600060608486031215612fb357612fb2612b24565b5b6000612fc186828701612d7a565b9350506020612fd286828701612d7a565b9250506040612fe386828701612cc5565b9150509250925092565b612ff681612ca4565b82525050565b60006020820190506130116000830184612fed565b92915050565b600081519050919050565b600082825260208201905092915050565b6000819050602082019050919050565b61304c81612d27565b82525050565b61305b81612ca4565b82525050565b600082825260208201905092915050565b600061307d82612be9565b6130878185613061565b9350613097818560208601612c05565b6130a081612c38565b840191505092915050565b600081519050919050565b600082825260208201905092915050565b60006130d2826130ab565b6130dc81856130b6565b93506130ec818560208601612c05565b6130f581612c38565b840191505092915050565b61310981612bb3565b82525050565b600081519050919050565b600082825260208201905092915050565b6000819050602082019050919050565b6060820160008201516131516000850182613052565b5060208201516131646020850182613043565b5060408201516131776040850182613052565b50505050565b6000613189838361313b565b60608301905092915050565b6000602082019050919050565b60006131ad8261310f565b6131b7818561311a565b93506131c28361312b565b8060005b838110156131f35781516131da888261317d565b97506131e583613195565b9250506001810190506131c6565b5085935050505092915050565b6000610160830160008301516132196000860182613043565b50602083015161322c6020860182613052565b50604083015184820360408601526132448282613072565b9150506060830151848203606086015261325e8282613072565b9150506080830151848203608086015261327882826130c7565b91505060a083015161328d60a0860182613052565b5060c08301516132a060c0860182613052565b5060e08301516132b360e0860182613052565b506101008301516132c8610100860182613100565b506101208301516132dd610120860182613052565b506101408301518482036101408601526132f782826131a2565b9150508091505092915050565b60006133108383613200565b905092915050565b6000602082019050919050565b600061333082613017565b61333a8185613022565b93508360208202850161334c85613033565b8060005b8581101561338857848403895281516133698582613304565b945061337483613318565b925060208a01995050600181019050613350565b50829750879550505050505092915050565b600060208201905081810360008301526133b48184613325565b905092915050565b6000602082840312156133d2576133d1612b24565b5b60006133e084828501612d7a565b91505092915050565b6133f281612bb3565b81146133fd57600080fd5b50565b60008135905061340f816133e9565b92915050565b6000806040838503121561342c5761342b612b24565b5b600061343a85828601612d7a565b925050602061344b85828601613400565b9150509250929050565b600080fd5b7f4e487b7100000000000000000000000000000000000000000000000000000000600052604160045260246000fd5b61349282612c38565b810181811067ffffffffffffffff821117156134b1576134b061345a565b5b80604052505050565b60006134c4612b1a565b90506134d08282613489565b919050565b600067ffffffffffffffff8211156134f0576134ef61345a565b5b6134f982612c38565b9050602081019050919050565b82818337600083830152505050565b6000613528613523846134d5565b6134ba565b90508281526020810184848401111561354457613543613455565b5b61354f848285613506565b509392505050565b600082601f83011261356c5761356b612dcf565b5b813561357c848260208601613515565b91505092915050565b6000806000806080858703121561359f5761359e612b24565b5b60006135ad87828801612d7a565b94505060206135be87828801612d7a565b93505060406135cf87828801612cc5565b925050606085013567ffffffffffffffff8111156135f0576135ef612b29565b5b6135fc87828801613557565b91505092959194509250565b6000806040838503121561361f5761361e612b24565b5b600061362d85828601612d7a565b925050602061363e85828601612d7a565b9150509250929050565b7f4e487b7100000000000000000000000000000000000000000000000000000000600052602260045260246000fd5b6000600282049050600182168061368f57607f821691505b602082108114156136a3576136a2613648565b5b50919050565b7f4552433732313a20617070726f76616c20746f2063757272656e74206f776e6560008201527f7200000000000000000000000000000000000000000000000000000000000000602082015250565b6000613705602183612bf4565b9150613710826136a9565b604082019050919050565b60006020820190508181036000830152613734816136f8565b9050919050565b7f4552433732313a20617070726f76652063616c6c6572206973206e6f7420746f60008201527f6b656e206f776e6572206f7220617070726f76656420666f7220616c6c000000602082015250565b6000613797603d83612bf4565b91506137a28261373b565b604082019050919050565b600060208201905081810360008301526137c68161378a565b9050919050565b7f4552433732313a2063616c6c6572206973206e6f7420746f6b656e206f776e6560008201527f72206f7220617070726f76656400000000000000000000000000000000000000602082015250565b6000613829602d83612bf4565b9150613834826137cd565b604082019050919050565b600060208201905081810360008301526138588161381c565b9050919050565b7f4e487b7100000000000000000000000000000000000000000000000000000000600052603260045260246000fd5b7f4e487b7100000000000000000000000000000000000000000000000000000000600052601160045260246000fd5b60006138c882612ca4565b91506138d383612ca4565b9250827fffffffffffffffffffffffffffffffffffffffffffffffffffffffffffffffff038211156139085761390761388e565b5b828201905092915050565b7f4552433732313a20696e76616c696420746f6b656e2049440000000000000000600082015250565b6000613949601883612bf4565b915061395482613913565b602082019050919050565b600060208201905081810360008301526139788161393c565b9050919050565b7f4552433732313a2061646472657373207a65726f206973206e6f74206120766160008201527f6c6964206f776e65720000000000000000000000000000000000000000000000602082015250565b60006139db602983612bf4565b91506139e68261397f565b604082019050919050565b60006020820190508181036000830152613a0a816139ce565b9050919050565b600081905092915050565b6000613a2782612be9565b613a318185613a11565b9350613a41818560208601612c05565b80840191505092915050565b6000613a598285613a1c565b9150613a658284613a1c565b91508190509392505050565b7f4f776e61626c653a206e6577206f776e657220697320746865207a65726f206160008201527f6464726573730000000000000000000000000000000000000000000000000000602082015250565b6000613acd602683612bf4565b9150613ad882613a71565b604082019050919050565b60006020820190508181036000830152613afc81613ac0565b9050919050565b7f4552433732313a206d696e7420746f20746865207a65726f2061646472657373600082015250565b6000613b39602083612bf4565b9150613b4482613b03565b602082019050919050565b60006020820190508181036000830152613b6881613b2c565b9050919050565b7f4552433732313a20746f6b656e20616c7265616479206d696e74656400000000600082015250565b6000613ba5601c83612bf4565b9150613bb082613b6f565b602082019050919050565b60006020820190508181036000830152613bd481613b98565b9050919050565b7f45524337323155524953746f726167653a2055524920736574206f66206e6f6e60008201527f6578697374656e7420746f6b656e000000000000000000000000000000000000602082015250565b6000613c37602e83612bf4565b9150613c4282613bdb565b604082019050919050565b60006020820190508181036000830152613c6681613c2a565b9050919050565b7f4552433732313a207472616e736665722066726f6d20696e636f72726563742060008201527f6f776e6572000000000000000000000000000000000000000000000000000000602082015250565b6000613cc9602583612bf4565b9150613cd482613c6d565b604082019050919050565b60006020820190508181036000830152613cf881613cbc565b9050919050565b7f4552433732313a207472616e7366657220746f20746865207a65726f2061646460008201527f7265737300000000000000000000000000000000000000000000000000000000602082015250565b6000613d5b602483612bf4565b9150613d6682613cff565b604082019050919050565b60006020820190508181036000830152613d8a81613d4e565b9050919050565b7f4f776e61626c653a2063616c6c6572206973206e6f7420746865206f776e6572600082015250565b6000613dc7602083612bf4565b9150613dd282613d91565b602082019050919050565b60006020820190508181036000830152613df681613dba565b9050919050565b7f4552433732313a20617070726f766520746f2063616c6c657200000000000000600082015250565b6000613e33601983612bf4565b9150613e3e82613dfd565b602082019050919050565b60006020820190508181036000830152613e6281613e26565b9050919050565b7f4552433732313a207472616e7366657220746f206e6f6e20455243373231526560008201527f63656976657220696d706c656d656e7465720000000000000000000000000000602082015250565b6000613ec5603283612bf4565b9150613ed082613e69565b604082019050919050565b60006020820190508181036000830152613ef481613eb8565b9050919050565b6000613f0682612ca4565b9150613f1183612ca4565b925082821015613f2457613f2361388e565b5b828203905092915050565b600082825260208201905092915050565b6000613f4b826130ab565b613f558185613f2f565b9350613f65818560208601612c05565b613f6e81612c38565b840191505092915050565b6000608082019050613f8e6000830187612d39565b613f9b6020830186612d39565b613fa86040830185612fed565b8181036060830152613fba8184613f40565b905095945050505050565b600081519050613fd481612b5a565b92915050565b600060208284031215613ff057613fef612b24565b5b6000613ffe84828501613fc5565b91505092915050565b7f4e487b7100000000000000000000000000000000000000000000000000000000600052601260045260246000fdfea2646970667358221220421666e7a3bce03d74b6055bba622d58936cbcb92e8e58c95d996914046cf34d64736f6c63430008090033",
  "linkReferences": {},
  "deployedLinkReferences": {}
}