{
  "_format": "hh-sol-artifact-1",
  "contractName": "Donation",
  "sourceName": "contracts/Donation.sol",
  "abi": [
    {
      "inputs": [],
      "stateMutability": "payable",
      "type": "constructor"
    },
    {
      "anonymous": false,
      "inputs": [
        {
          "indexed": true,
          "internalType": "address",
          "name": "owner",
          "type": "address"
        },
        {
          "indexed": true,
          "internalType": "address",
          "name": "approved",
          "type": "address"
        },
        {
          "indexed": true,
          "internalType": "uint256",
          "name": "tokenId",
          "type": "uint256"
        }
      ],
      "name": "Approval",
      "type": "event"
    },
    {
      "anonymous": false,
      "inputs": [
        {
          "indexed": true,
          "internalType": "address",
          "name": "owner",
          "type": "address"
        },
        {
          "indexed": true,
          "internalType": "address",
          "name": "operator",
          "type": "address"
        },
        {
          "indexed": false,
          "internalType": "bool",
          "name": "approved",
          "type": "bool"
        }
      ],
      "name": "ApprovalForAll",
      "type": "event"
    },
    {
      "anonymous": false,
      "inputs": [
        {
          "indexed": true,
          "internalType": "address",
          "name": "previousOwner",
          "type": "address"
        },
        {
          "indexed": true,
          "internalType": "address",
          "name": "newOwner",
          "type": "address"
        }
      ],
      "name": "OwnershipTransferred",
      "type": "event"
    },
    {
      "anonymous": false,
      "inputs": [
        {
          "indexed": true,
          "internalType": "address",
          "name": "from",
          "type": "address"
        },
        {
          "indexed": true,
          "internalType": "address",
          "name": "to",
          "type": "address"
        },
        {
          "indexed": true,
          "internalType": "uint256",
          "name": "tokenId",
          "type": "uint256"
        }
      ],
      "name": "Transfer",
      "type": "event"
    },
    {
      "inputs": [],
      "name": "GOLD",
      "outputs": [
        {
          "internalType": "uint256",
          "name": "",
          "type": "uint256"
        }
      ],
      "stateMutability": "view",
      "type": "function"
    },
    {
      "inputs": [],
      "name": "alamatA",
      "outputs": [
        {
          "internalType": "address",
          "name": "",
          "type": "address"
        }
      ],
      "stateMutability": "view",
      "type": "function"
    },
    {
      "inputs": [
        {
          "internalType": "address",
          "name": "to",
          "type": "address"
        },
        {
          "internalType": "uint256",
          "name": "tokenId",
          "type": "uint256"
        }
      ],
      "name": "approve",
      "outputs": [],
      "stateMutability": "nonpayable",
      "type": "function"
    },
    {
      "inputs": [
        {
          "internalType": "address",
          "name": "owner",
          "type": "address"
        }
      ],
      "name": "balanceOf",
      "outputs": [
        {
          "internalType": "uint256",
          "name": "",
          "type": "uint256"
        }
      ],
      "stateMutability": "view",
      "type": "function"
    },
    {
      "inputs": [],
      "name": "cektime",
      "outputs": [
        {
          "internalType": "uint256",
          "name": "",
          "type": "uint256"
        }
      ],
      "stateMutability": "view",
      "type": "function"
    },
    {
      "inputs": [],
      "name": "cetakaja",
      "outputs": [],
      "stateMutability": "payable",
      "type": "function"
    },
    {
      "inputs": [
        {
          "internalType": "string",
          "name": "title",
          "type": "string"
        },
        {
          "internalType": "string",
          "name": "imgurl",
          "type": "string"
        },
        {
          "internalType": "bytes",
          "name": "desc",
          "type": "bytes"
        },
        {
          "internalType": "uint256",
          "name": "maxvalue",
          "type": "uint256"
        },
        {
          "internalType": "string",
          "name": "nfturl",
          "type": "string"
        },
        {
          "internalType": "bytes32",
          "name": "rewardvalue",
          "type": "bytes32"
        }
      ],
      "name": "createpost",
      "outputs": [],
      "stateMutability": "nonpayable",
      "type": "function"
    },
    {
      "inputs": [
        {
          "internalType": "uint256",
          "name": "tokenId",
          "type": "uint256"
        }
      ],
      "name": "getApproved",
      "outputs": [
        {
          "internalType": "address",
          "name": "",
          "type": "address"
        }
      ],
      "stateMutability": "view",
      "type": "function"
    },
    {
      "inputs": [
        {
          "internalType": "uint256",
          "name": "pid1",
          "type": "uint256"
        }
      ],
      "name": "gotMoney",
      "outputs": [],
      "stateMutability": "payable",
      "type": "function"
    },
    {
      "inputs": [
        {
          "internalType": "address",
          "name": "owner",
          "type": "address"
        },
        {
          "internalType": "address",
          "name": "operator",
          "type": "address"
        }
      ],
      "name": "isApprovedForAll",
      "outputs": [
        {
          "internalType": "bool",
          "name": "",
          "type": "bool"
        }
      ],
      "stateMutability": "view",
      "type": "function"
    },
    {
      "inputs": [
        {
          "internalType": "uint256",
          "name": "tokenid",
          "type": "uint256"
        }
      ],
      "name": "kirimaja",
      "outputs": [],
      "stateMutability": "payable",
      "type": "function"
    },
    {
      "inputs": [],
      "name": "name",
      "outputs": [
        {
          "internalType": "string",
          "name": "",
          "type": "string"
        }
      ],
      "stateMutability": "view",
      "type": "function"
    },
    {
      "inputs": [],
      "name": "owner",
      "outputs": [
        {
          "internalType": "address",
          "name": "",
          "type": "address"
        }
      ],
      "stateMutability": "view",
      "type": "function"
    },
    {
      "inputs": [
        {
          "internalType": "uint256",
          "name": "tokenId",
          "type": "uint256"
        }
      ],
      "name": "ownerOf",
      "outputs": [
        {
          "internalType": "address",
          "name": "",
          "type": "address"
        }
      ],
      "stateMutability": "view",
      "type": "function"
    },
    {
      "inputs": [],
      "name": "renounceOwnership",
      "outputs": [],
      "stateMutability": "nonpayable",
      "type": "function"
    },
    {
      "inputs": [
        {
          "internalType": "address",
          "name": "from",
          "type": "address"
        },
        {
          "internalType": "address",
          "name": "to",
          "type": "address"
        },
        {
          "internalType": "uint256",
          "name": "tokenId",
          "type": "uint256"
        }
      ],
      "name": "safeTransferFrom",
      "outputs": [],
      "stateMutability": "nonpayable",
      "type": "function"
    },
    {
      "inputs": [
        {
          "internalType": "address",
          "name": "from",
          "type": "address"
        },
        {
          "internalType": "address",
          "name": "to",
          "type": "address"
        },
        {
          "internalType": "uint256",
          "name": "tokenId",
          "type": "uint256"
        },
        {
          "internalType": "bytes",
          "name": "data",
          "type": "bytes"
        }
      ],
      "name": "safeTransferFrom",
      "outputs": [],
      "stateMutability": "nonpayable",
      "type": "function"
    },
    {
      "inputs": [
        {
          "internalType": "address",
          "name": "operator",
          "type": "address"
        },
        {
          "internalType": "bool",
          "name": "approved",
          "type": "bool"
        }
      ],
      "name": "setApprovalForAll",
      "outputs": [],
      "stateMutability": "nonpayable",
      "type": "function"
    },
    {
      "inputs": [
        {
          "internalType": "bytes4",
          "name": "interfaceId",
          "type": "bytes4"
        }
      ],
      "name": "supportsInterface",
      "outputs": [
        {
          "internalType": "bool",
          "name": "",
          "type": "bool"
        }
      ],
      "stateMutability": "view",
      "type": "function"
    },
    {
      "inputs": [],
      "name": "symbol",
      "outputs": [
        {
          "internalType": "string",
          "name": "",
          "type": "string"
        }
      ],
      "stateMutability": "view",
      "type": "function"
    },
    {
      "inputs": [],
      "name": "syncdonation",
      "outputs": [
        {
          "components": [
            {
              "internalType": "address",
              "name": "provider",
              "type": "address"
            },
            {
              "internalType": "uint256",
              "name": "posttime",
              "type": "uint256"
            },
            {
              "internalType": "string",
              "name": "title",
              "type": "string"
            },
            {
              "internalType": "string",
              "name": "imgurl",
              "type": "string"
            },
            {
              "internalType": "bytes",
              "name": "desc",
              "type": "bytes"
            },
            {
              "internalType": "uint256",
              "name": "maxvalue",
              "type": "uint256"
            },
            {
              "internalType": "uint256",
              "name": "currvalue",
              "type": "uint256"
            },
            {
              "internalType": "uint256",
              "name": "rewardid",
              "type": "uint256"
            },
            {
              "internalType": "bool",
              "name": "owned",
              "type": "bool"
            },
            {
              "internalType": "uint256",
              "name": "rewardvalue",
              "type": "uint256"
            },
            {
              "components": [
                {
                  "internalType": "uint256",
                  "name": "donortime",
                  "type": "uint256"
                },
                {
                  "internalType": "address",
                  "name": "donors",
                  "type": "address"
                },
                {
                  "internalType": "uint256",
                  "name": "valueofdonors",
                  "type": "uint256"
                }
              ],
              "internalType": "struct Donation.Transaction[]",
              "name": "transactions",
              "type": "tuple[]"
            }
          ],
          "internalType": "struct Donation.DonationPost[]",
          "name": "",
          "type": "tuple[]"
        }
      ],
      "stateMutability": "view",
      "type": "function"
    },
    {
      "inputs": [
        {
          "internalType": "uint256",
          "name": "tokenId",
          "type": "uint256"
        }
      ],
      "name": "tokenURI",
      "outputs": [
        {
          "internalType": "string",
          "name": "",
          "type": "string"
        }
      ],
      "stateMutability": "view",
      "type": "function"
    },
    {
      "inputs": [
        {
          "internalType": "address",
          "name": "from",
          "type": "address"
        },
        {
          "internalType": "address",
          "name": "to",
          "type": "address"
        },
        {
          "internalType": "uint256",
          "name": "tokenId",
          "type": "uint256"
        }
      ],
      "name": "transferFrom",
      "outputs": [],
      "stateMutability": "nonpayable",
      "type": "function"
    },
    {
      "inputs": [
        {
          "internalType": "address",
          "name": "newOwner",
          "type": "address"
        }
      ],
      "name": "transferOwnership",
      "outputs": [],
      "stateMutability": "nonpayable",
      "type": "function"
    }
  ],
  "bytecode": "0x60806040526040518060400160405280600f81526020017f446f6e6174696f6e2052657761726400000000000000000000000000000000008152506040518060400160405280600281526020017f445200000000000000000000000000000000000000000000000000000000000081525081600090816200008191906200047e565b5080600190816200009391906200047e565b505050620000b6620000aa6200010c60201b60201c565b6200011460201b60201c565b620000c6620001da60201b60201c565b600860006101000a81548173ffffffffffffffffffffffffffffffffffffffff021916908373ffffffffffffffffffffffffffffffffffffffff16021790555062000565565b600033905090565b6000600760009054906101000a900473ffffffffffffffffffffffffffffffffffffffff16905081600760006101000a81548173ffffffffffffffffffffffffffffffffffffffff021916908373ffffffffffffffffffffffffffffffffffffffff1602179055508173ffffffffffffffffffffffffffffffffffffffff168173ffffffffffffffffffffffffffffffffffffffff167f8be0079c531659141344cd1fd0a4f28419497f9722a3daafe3b4186f6b6457e060405160405180910390a35050565b6000600760009054906101000a900473ffffffffffffffffffffffffffffffffffffffff16905090565b600081519050919050565b7f4e487b7100000000000000000000000000000000000000000000000000000000600052604160045260246000fd5b7f4e487b7100000000000000000000000000000000000000000000000000000000600052602260045260246000fd5b600060028204905060018216806200028657607f821691505b6020821081036200029c576200029b6200023e565b5b50919050565b60008190508160005260206000209050919050565b60006020601f8301049050919050565b600082821b905092915050565b600060088302620003067fffffffffffffffffffffffffffffffffffffffffffffffffffffffffffffffff82620002c7565b620003128683620002c7565b95508019841693508086168417925050509392505050565b6000819050919050565b6000819050919050565b60006200035f6200035962000353846200032a565b62000334565b6200032a565b9050919050565b6000819050919050565b6200037b836200033e565b620003936200038a8262000366565b848454620002d4565b825550505050565b600090565b620003aa6200039b565b620003b781848462000370565b505050565b5b81811015620003df57620003d3600082620003a0565b600181019050620003bd565b5050565b601f8211156200042e57620003f881620002a2565b6200040384620002b7565b8101602085101562000413578190505b6200042b6200042285620002b7565b830182620003bc565b50505b505050565b600082821c905092915050565b6000620004536000198460080262000433565b1980831691505092915050565b60006200046e838362000440565b9150826002028217905092915050565b620004898262000204565b67ffffffffffffffff811115620004a557620004a46200020f565b5b620004b182546200026d565b620004be828285620003e3565b600060209050601f831160018114620004f65760008415620004e1578287015190505b620004ed858262000460565b8655506200055d565b601f1984166200050686620002a2565b60005b82811015620005305784890151825560018201915060208501945060208101905062000509565b868310156200055057848901516200054c601f89168262000440565b8355505b6001600288020188555050505b505050505050565b61442f80620005756000396000f3fe60806040526004361061014b5760003560e01c80635da2e6b3116100b6578063a22cb4651161006f578063a22cb46514610445578063a6ca8e5c1461046e578063b88d4fde14610497578063c87b56dd146104c0578063e985e9c5146104fd578063f2fde38b1461053a5761014b565b80635da2e6b3146103335780636352211e1461035e57806370a082311461039b578063715018a6146103d85780638da5cb5b146103ef57806395d89b411461041a5761014b565b806326c5b9961161010857806326c5b996146102725780633e4bee381461027c57806342842e0e146102a75780634de729e4146102d057806350469e8b146102fb5780635bb0b24b146103175761014b565b806301ffc9a71461015057806306fdde031461018d578063081812fc146101b8578063095ea7b3146101f5578063225dfb5c1461021e57806323b872dd14610249575b600080fd5b34801561015c57600080fd5b50610177600480360381019061017291906128b4565b610563565b60405161018491906128fc565b60405180910390f35b34801561019957600080fd5b506101a2610645565b6040516101af91906129a7565b60405180910390f35b3480156101c457600080fd5b506101df60048036038101906101da91906129ff565b6106d7565b6040516101ec9190612a6d565b60405180910390f35b34801561020157600080fd5b5061021c60048036038101906102179190612ab4565b61071d565b005b34801561022a57600080fd5b50610233610834565b6040516102409190612a6d565b60405180910390f35b34801561025557600080fd5b50610270600480360381019061026b9190612af4565b61085a565b005b61027a6108ba565b005b34801561028857600080fd5b506102916108df565b60405161029e9190612b56565b60405180910390f35b3480156102b357600080fd5b506102ce60048036038101906102c99190612af4565b6108e4565b005b3480156102dc57600080fd5b506102e5610904565b6040516102f29190612ef4565b60405180910390f35b610315600480360381019061031091906129ff565b610c86565b005b610331600480360381019061032c91906129ff565b610f12565b005b34801561033f57600080fd5b50610348610f20565b6040516103559190612b56565b60405180910390f35b34801561036a57600080fd5b50610385600480360381019061038091906129ff565b610f28565b6040516103929190612a6d565b60405180910390f35b3480156103a757600080fd5b506103c260048036038101906103bd9190612f16565b610fae565b6040516103cf9190612b56565b60405180910390f35b3480156103e457600080fd5b506103ed611065565b005b3480156103fb57600080fd5b50610404611079565b6040516104119190612a6d565b60405180910390f35b34801561042657600080fd5b5061042f6110a3565b60405161043c91906129a7565b60405180910390f35b34801561045157600080fd5b5061046c60048036038101906104679190612f6f565b611135565b005b34801561047a57600080fd5b50610495600480360381019061049091906130a0565b61114b565b005b3480156104a357600080fd5b506104be60048036038101906104b991906132e0565b6113ea565b005b3480156104cc57600080fd5b506104e760048036038101906104e291906129ff565b61144c565b6040516104f491906129a7565b60405180910390f35b34801561050957600080fd5b50610524600480360381019061051f9190613363565b61155e565b60405161053191906128fc565b60405180910390f35b34801561054657600080fd5b50610561600480360381019061055c9190612f16565b6115f2565b005b60007f80ac58cd000000000000000000000000000000000000000000000000000000007bffffffffffffffffffffffffffffffffffffffffffffffffffffffff1916827bffffffffffffffffffffffffffffffffffffffffffffffffffffffff1916148061062e57507f5b5e139f000000000000000000000000000000000000000000000000000000007bffffffffffffffffffffffffffffffffffffffffffffffffffffffff1916827bffffffffffffffffffffffffffffffffffffffffffffffffffffffff1916145b8061063e575061063d82611675565b5b9050919050565b606060008054610654906133d2565b80601f0160208091040260200160405190810160405280929190818152602001828054610680906133d2565b80156106cd5780601f106106a2576101008083540402835291602001916106cd565b820191906000526020600020905b8154815290600101906020018083116106b057829003601f168201915b5050505050905090565b60006106e2826116df565b6004600083815260200190815260200160002060009054906101000a900473ffffffffffffffffffffffffffffffffffffffff169050919050565b600061072882610f28565b90508073ffffffffffffffffffffffffffffffffffffffff168373ffffffffffffffffffffffffffffffffffffffff1603610798576040517f08c379a000000000000000000000000000000000000000000000000000000000815260040161078f90613475565b60405180910390fd5b8073ffffffffffffffffffffffffffffffffffffffff166107b761172a565b73ffffffffffffffffffffffffffffffffffffffff1614806107e657506107e5816107e061172a565b61155e565b5b610825576040517f08c379a000000000000000000000000000000000000000000000000000000000815260040161081c90613507565b60405180910390fd5b61082f8383611732565b505050565b600860009054906101000a900473ffffffffffffffffffffffffffffffffffffffff1681565b61086b61086561172a565b826117eb565b6108aa576040517f08c379a00000000000000000000000000000000000000000000000000000000081526004016108a190613599565b60405180910390fd5b6108b5838383611880565b505050565b60006108c66009611b79565b90506108d23082611b87565b6108dc6009611da4565b50565b600081565b6108ff838383604051806020016040528060008152506113ea565b505050565b60606015805480602002602001604051908101604052809291908181526020016000905b82821015610c7d57838290600052602060002090600b0201604051806101600160405290816000820160009054906101000a900473ffffffffffffffffffffffffffffffffffffffff1673ffffffffffffffffffffffffffffffffffffffff1673ffffffffffffffffffffffffffffffffffffffff168152602001600182015481526020016002820180546109bc906133d2565b80601f01602080910402602001604051908101604052809291908181526020018280546109e8906133d2565b8015610a355780601f10610a0a57610100808354040283529160200191610a35565b820191906000526020600020905b815481529060010190602001808311610a1857829003601f168201915b50505050508152602001600382018054610a4e906133d2565b80601f0160208091040260200160405190810160405280929190818152602001828054610a7a906133d2565b8015610ac75780601f10610a9c57610100808354040283529160200191610ac7565b820191906000526020600020905b815481529060010190602001808311610aaa57829003601f168201915b50505050508152602001600482018054610ae0906133d2565b80601f0160208091040260200160405190810160405280929190818152602001828054610b0c906133d2565b8015610b595780601f10610b2e57610100808354040283529160200191610b59565b820191906000526020600020905b815481529060010190602001808311610b3c57829003601f168201915b505050505081526020016005820154815260200160068201548152602001600782015481526020016008820160009054906101000a900460ff1615151515815260200160098201548152602001600a8201805480602002602001604051908101604052809291908181526020016000905b82821015610c665783829060005260206000209060030201604051806060016040529081600082015481526020016001820160009054906101000a900473ffffffffffffffffffffffffffffffffffffffff1673ffffffffffffffffffffffffffffffffffffffff1673ffffffffffffffffffffffffffffffffffffffff16815260200160028201548152505081526020019060010190610bca565b505050508152505081526020019060010190610928565b50505050905090565b600060158281548110610c9c57610c9b6135b9565b5b90600052602060002090600b020160000160009054906101000a900473ffffffffffffffffffffffffffffffffffffffff1690508073ffffffffffffffffffffffffffffffffffffffff166108fc349081150290604051600060405180830381858888f19350505050158015610d16573d6000803e3d6000fd5b503460158381548110610d2c57610d2b6135b9565b5b90600052602060002090600b02016006016000828254610d4c9190613617565b9250508190555060158281548110610d6757610d666135b9565b5b90600052602060002090600b0201600a0160405180606001604052804281526020013373ffffffffffffffffffffffffffffffffffffffff1681526020013481525090806001815401808255809150506001900390600052602060002090600302016000909190919091506000820151816000015560208201518160010160006101000a81548173ffffffffffffffffffffffffffffffffffffffff021916908373ffffffffffffffffffffffffffffffffffffffff1602179055506040820151816002015550506000151560158381548110610e4757610e466135b9565b5b90600052602060002090600b020160080160009054906101000a900460ff161515148015610e9a57503460158381548110610e8557610e846135b9565b5b90600052602060002090600b02016009015411155b15610f0e57610ecf303360158581548110610eb857610eb76135b9565b5b90600052602060002090600b020160070154611880565b600160158381548110610ee557610ee46135b9565b5b90600052602060002090600b020160080160006101000a81548160ff0219169083151502179055505b5050565b610f1d303383611880565b50565b600042905090565b600080610f3483611dba565b9050600073ffffffffffffffffffffffffffffffffffffffff168173ffffffffffffffffffffffffffffffffffffffff1603610fa5576040517f08c379a0000000000000000000000000000000000000000000000000000000008152600401610f9c90613697565b60405180910390fd5b80915050919050565b60008073ffffffffffffffffffffffffffffffffffffffff168273ffffffffffffffffffffffffffffffffffffffff160361101e576040517f08c379a000000000000000000000000000000000000000000000000000000000815260040161101590613729565b60405180910390fd5b600360008373ffffffffffffffffffffffffffffffffffffffff1673ffffffffffffffffffffffffffffffffffffffff168152602001908152602001600020549050919050565b61106d611df7565b6110776000611e75565b565b6000600760009054906101000a900473ffffffffffffffffffffffffffffffffffffffff16905090565b6060600180546110b2906133d2565b80601f01602080910402602001604051908101604052809291908181526020018280546110de906133d2565b801561112b5780601f106111005761010080835404028352916020019161112b565b820191906000526020600020905b81548152906001019060200180831161110e57829003601f168201915b5050505050905090565b61114761114061172a565b8383611f3b565b5050565b60006111576009611b79565b90506111633082611b87565b33600a60000160006101000a81548173ffffffffffffffffffffffffffffffffffffffff021916908373ffffffffffffffffffffffffffffffffffffffff16021790555042600a600101819055508a8a600a60020191826111c5929190613900565b508888600a60030191826111da929190613900565b508686600a60040191826111ef929190613a36565b5084600a600501819055506000600a6006018190555080600a600701819055506000600a60080160006101000a81548160ff0219169083151502179055508160001c600a600901819055506112888185858080601f016020809104026020016040519081016040528093929190818152602001838380828437600081840152601f19601f820116905080830192505050505050506120a7565b6112926009611da4565b6015600a90806001815401808255809150506001900390600052602060002090600b02016000909190919091506000820160009054906101000a900473ffffffffffffffffffffffffffffffffffffffff168160000160006101000a81548173ffffffffffffffffffffffffffffffffffffffff021916908373ffffffffffffffffffffffffffffffffffffffff16021790555060018201548160010155600282018160020190816113449190613b1c565b50600382018160030190816113599190613b1c565b506004820181600401908161136e9190613c1a565b506005820154816005015560068201548160060155600782015481600701556008820160009054906101000a900460ff168160080160006101000a81548160ff02191690831515021790555060098201548160090155600a820181600a019080546113da929190612727565b5050505050505050505050505050565b6113fb6113f561172a565b836117eb565b61143a576040517f08c379a000000000000000000000000000000000000000000000000000000000815260040161143190613599565b60405180910390fd5b61144684848484612114565b50505050565b6060611457826116df565b6000600660008481526020019081526020016000208054611477906133d2565b80601f01602080910402602001604051908101604052809291908181526020018280546114a3906133d2565b80156114f05780601f106114c5576101008083540402835291602001916114f0565b820191906000526020600020905b8154815290600101906020018083116114d357829003601f168201915b505050505090506000611501612170565b90506000815103611516578192505050611559565b60008251111561154b578082604051602001611533929190613d3e565b60405160208183030381529060405292505050611559565b61155484612187565b925050505b919050565b6000600560008473ffffffffffffffffffffffffffffffffffffffff1673ffffffffffffffffffffffffffffffffffffffff16815260200190815260200160002060008373ffffffffffffffffffffffffffffffffffffffff1673ffffffffffffffffffffffffffffffffffffffff16815260200190815260200160002060009054906101000a900460ff16905092915050565b6115fa611df7565b600073ffffffffffffffffffffffffffffffffffffffff168173ffffffffffffffffffffffffffffffffffffffff1603611669576040517f08c379a000000000000000000000000000000000000000000000000000000000815260040161166090613dd4565b60405180910390fd5b61167281611e75565b50565b60007f01ffc9a7000000000000000000000000000000000000000000000000000000007bffffffffffffffffffffffffffffffffffffffffffffffffffffffff1916827bffffffffffffffffffffffffffffffffffffffffffffffffffffffff1916149050919050565b6116e8816121ef565b611727576040517f08c379a000000000000000000000000000000000000000000000000000000000815260040161171e90613697565b60405180910390fd5b50565b600033905090565b816004600083815260200190815260200160002060006101000a81548173ffffffffffffffffffffffffffffffffffffffff021916908373ffffffffffffffffffffffffffffffffffffffff160217905550808273ffffffffffffffffffffffffffffffffffffffff166117a583610f28565b73ffffffffffffffffffffffffffffffffffffffff167f8c5be1e5ebec7d5bd14f71427d1e84f3dd0314c0f7b2291e5b200ac8c7c3b92560405160405180910390a45050565b6000806117f783610f28565b90508073ffffffffffffffffffffffffffffffffffffffff168473ffffffffffffffffffffffffffffffffffffffff1614806118395750611838818561155e565b5b8061187757508373ffffffffffffffffffffffffffffffffffffffff1661185f846106d7565b73ffffffffffffffffffffffffffffffffffffffff16145b91505092915050565b8273ffffffffffffffffffffffffffffffffffffffff166118a082610f28565b73ffffffffffffffffffffffffffffffffffffffff16146118f6576040517f08c379a00000000000000000000000000000000000000000000000000000000081526004016118ed90613e66565b60405180910390fd5b600073ffffffffffffffffffffffffffffffffffffffff168273ffffffffffffffffffffffffffffffffffffffff1603611965576040517f08c379a000000000000000000000000000000000000000000000000000000000815260040161195c90613ef8565b60405180910390fd5b6119728383836001612230565b8273ffffffffffffffffffffffffffffffffffffffff1661199282610f28565b73ffffffffffffffffffffffffffffffffffffffff16146119e8576040517f08c379a00000000000000000000000000000000000000000000000000000000081526004016119df90613e66565b60405180910390fd5b6004600082815260200190815260200160002060006101000a81549073ffffffffffffffffffffffffffffffffffffffff02191690556001600360008573ffffffffffffffffffffffffffffffffffffffff1673ffffffffffffffffffffffffffffffffffffffff168152602001908152602001600020600082825403925050819055506001600360008473ffffffffffffffffffffffffffffffffffffffff1673ffffffffffffffffffffffffffffffffffffffff16815260200190815260200160002060008282540192505081905550816002600083815260200190815260200160002060006101000a81548173ffffffffffffffffffffffffffffffffffffffff021916908373ffffffffffffffffffffffffffffffffffffffff160217905550808273ffffffffffffffffffffffffffffffffffffffff168473ffffffffffffffffffffffffffffffffffffffff167fddf252ad1be2c89b69c2b068fc378daa952ba7f163c4a11628f55a4df523b3ef60405160405180910390a4611b748383836001612356565b505050565b600081600001549050919050565b600073ffffffffffffffffffffffffffffffffffffffff168273ffffffffffffffffffffffffffffffffffffffff1603611bf6576040517f08c379a0000000000000000000000000000000000000000000000000000000008152600401611bed90613f64565b60405180910390fd5b611bff816121ef565b15611c3f576040517f08c379a0000000000000000000000000000000000000000000000000000000008152600401611c3690613fd0565b60405180910390fd5b611c4d600083836001612230565b611c56816121ef565b15611c96576040517f08c379a0000000000000000000000000000000000000000000000000000000008152600401611c8d90613fd0565b60405180910390fd5b6001600360008473ffffffffffffffffffffffffffffffffffffffff1673ffffffffffffffffffffffffffffffffffffffff16815260200190815260200160002060008282540192505081905550816002600083815260200190815260200160002060006101000a81548173ffffffffffffffffffffffffffffffffffffffff021916908373ffffffffffffffffffffffffffffffffffffffff160217905550808273ffffffffffffffffffffffffffffffffffffffff16600073ffffffffffffffffffffffffffffffffffffffff167fddf252ad1be2c89b69c2b068fc378daa952ba7f163c4a11628f55a4df523b3ef60405160405180910390a4611da0600083836001612356565b5050565b6001816000016000828254019250508190555050565b60006002600083815260200190815260200160002060009054906101000a900473ffffffffffffffffffffffffffffffffffffffff169050919050565b611dff61172a565b73ffffffffffffffffffffffffffffffffffffffff16611e1d611079565b73ffffffffffffffffffffffffffffffffffffffff1614611e73576040517f08c379a0000000000000000000000000000000000000000000000000000000008152600401611e6a9061403c565b60405180910390fd5b565b6000600760009054906101000a900473ffffffffffffffffffffffffffffffffffffffff16905081600760006101000a81548173ffffffffffffffffffffffffffffffffffffffff021916908373ffffffffffffffffffffffffffffffffffffffff1602179055508173ffffffffffffffffffffffffffffffffffffffff168173ffffffffffffffffffffffffffffffffffffffff167f8be0079c531659141344cd1fd0a4f28419497f9722a3daafe3b4186f6b6457e060405160405180910390a35050565b8173ffffffffffffffffffffffffffffffffffffffff168373ffffffffffffffffffffffffffffffffffffffff1603611fa9576040517f08c379a0000000000000000000000000000000000000000000000000000000008152600401611fa0906140a8565b60405180910390fd5b80600560008573ffffffffffffffffffffffffffffffffffffffff1673ffffffffffffffffffffffffffffffffffffffff16815260200190815260200160002060008473ffffffffffffffffffffffffffffffffffffffff1673ffffffffffffffffffffffffffffffffffffffff16815260200190815260200160002060006101000a81548160ff0219169083151502179055508173ffffffffffffffffffffffffffffffffffffffff168373ffffffffffffffffffffffffffffffffffffffff167f17307eab39ab6107e8899845ad3d59bd9653f200f220920489ca2b5937696c318360405161209a91906128fc565b60405180910390a3505050565b6120b0826121ef565b6120ef576040517f08c379a00000000000000000000000000000000000000000000000000000000081526004016120e69061413a565b60405180910390fd5b8060066000848152602001908152602001600020908161210f919061415a565b505050565b61211f848484611880565b61212b8484848461235c565b61216a576040517f08c379a00000000000000000000000000000000000000000000000000000000081526004016121619061429e565b60405180910390fd5b50505050565b606060405180602001604052806000815250905090565b6060612192826116df565b600061219c612170565b905060008151116121bc57604051806020016040528060008152506121e7565b806121c6846124e3565b6040516020016121d7929190613d3e565b6040516020818303038152906040525b915050919050565b60008073ffffffffffffffffffffffffffffffffffffffff1661221183611dba565b73ffffffffffffffffffffffffffffffffffffffff1614159050919050565b600181111561235057600073ffffffffffffffffffffffffffffffffffffffff168473ffffffffffffffffffffffffffffffffffffffff16146122c45780600360008673ffffffffffffffffffffffffffffffffffffffff1673ffffffffffffffffffffffffffffffffffffffff16815260200190815260200160002060008282546122bc91906142be565b925050819055505b600073ffffffffffffffffffffffffffffffffffffffff168373ffffffffffffffffffffffffffffffffffffffff161461234f5780600360008573ffffffffffffffffffffffffffffffffffffffff1673ffffffffffffffffffffffffffffffffffffffff16815260200190815260200160002060008282546123479190613617565b925050819055505b5b50505050565b50505050565b600061237d8473ffffffffffffffffffffffffffffffffffffffff166125b1565b156124d6578373ffffffffffffffffffffffffffffffffffffffff1663150b7a026123a661172a565b8786866040518563ffffffff1660e01b81526004016123c8949392919061433c565b6020604051808303816000875af192505050801561240457506040513d601f19601f82011682018060405250810190612401919061439d565b60015b612486573d8060008114612434576040519150601f19603f3d011682016040523d82523d6000602084013e612439565b606091505b50600081510361247e576040517f08c379a00000000000000000000000000000000000000000000000000000000081526004016124759061429e565b60405180910390fd5b805181602001fd5b63150b7a0260e01b7bffffffffffffffffffffffffffffffffffffffffffffffffffffffff1916817bffffffffffffffffffffffffffffffffffffffffffffffffffffffff1916149150506124db565b600190505b949350505050565b6060600060016124f2846125d4565b01905060008167ffffffffffffffff811115612511576125106131b5565b5b6040519080825280601f01601f1916602001820160405280156125435781602001600182028036833780820191505090505b509050600082602001820190505b6001156125a6578080600190039150507f3031323334353637383961626364656600000000000000000000000000000000600a86061a8153600a858161259a576125996143ca565b5b04945060008503612551575b819350505050919050565b6000808273ffffffffffffffffffffffffffffffffffffffff163b119050919050565b600080600090507a184f03e93ff9f4daa797ed6e38ed64bf6a1f0100000000000000008310612632577a184f03e93ff9f4daa797ed6e38ed64bf6a1f0100000000000000008381612628576126276143ca565b5b0492506040810190505b6d04ee2d6d415b85acef8100000000831061266f576d04ee2d6d415b85acef81000000008381612665576126646143ca565b5b0492506020810190505b662386f26fc10000831061269e57662386f26fc100008381612694576126936143ca565b5b0492506010810190505b6305f5e10083106126c7576305f5e10083816126bd576126bc6143ca565b5b0492506008810190505b61271083106126ec5761271083816126e2576126e16143ca565b5b0492506004810190505b6064831061270f5760648381612705576127046143ca565b5b0492506002810190505b600a831061271e576001810190505b80915050919050565b8280548282559060005260206000209060030281019282156127e95760005260206000209160030282015b828111156127e8578282600082015481600001556001820160009054906101000a900473ffffffffffffffffffffffffffffffffffffffff168160010160006101000a81548173ffffffffffffffffffffffffffffffffffffffff021916908373ffffffffffffffffffffffffffffffffffffffff16021790555060028201548160020155505091600301919060030190612752565b5b5090506127f691906127fa565b5090565b5b80821115612844576000808201600090556001820160006101000a81549073ffffffffffffffffffffffffffffffffffffffff02191690556002820160009055506003016127fb565b5090565b6000604051905090565b600080fd5b600080fd5b60007fffffffff0000000000000000000000000000000000000000000000000000000082169050919050565b6128918161285c565b811461289c57600080fd5b50565b6000813590506128ae81612888565b92915050565b6000602082840312156128ca576128c9612852565b5b60006128d88482850161289f565b91505092915050565b60008115159050919050565b6128f6816128e1565b82525050565b600060208201905061291160008301846128ed565b92915050565b600081519050919050565b600082825260208201905092915050565b60005b83811015612951578082015181840152602081019050612936565b60008484015250505050565b6000601f19601f8301169050919050565b600061297982612917565b6129838185612922565b9350612993818560208601612933565b61299c8161295d565b840191505092915050565b600060208201905081810360008301526129c1818461296e565b905092915050565b6000819050919050565b6129dc816129c9565b81146129e757600080fd5b50565b6000813590506129f9816129d3565b92915050565b600060208284031215612a1557612a14612852565b5b6000612a23848285016129ea565b91505092915050565b600073ffffffffffffffffffffffffffffffffffffffff82169050919050565b6000612a5782612a2c565b9050919050565b612a6781612a4c565b82525050565b6000602082019050612a826000830184612a5e565b92915050565b612a9181612a4c565b8114612a9c57600080fd5b50565b600081359050612aae81612a88565b92915050565b60008060408385031215612acb57612aca612852565b5b6000612ad985828601612a9f565b9250506020612aea858286016129ea565b9150509250929050565b600080600060608486031215612b0d57612b0c612852565b5b6000612b1b86828701612a9f565b9350506020612b2c86828701612a9f565b9250506040612b3d868287016129ea565b9150509250925092565b612b50816129c9565b82525050565b6000602082019050612b6b6000830184612b47565b92915050565b600081519050919050565b600082825260208201905092915050565b6000819050602082019050919050565b612ba681612a4c565b82525050565b612bb5816129c9565b82525050565b600082825260208201905092915050565b6000612bd782612917565b612be18185612bbb565b9350612bf1818560208601612933565b612bfa8161295d565b840191505092915050565b600081519050919050565b600082825260208201905092915050565b6000612c2c82612c05565b612c368185612c10565b9350612c46818560208601612933565b612c4f8161295d565b840191505092915050565b612c63816128e1565b82525050565b600081519050919050565b600082825260208201905092915050565b6000819050602082019050919050565b606082016000820151612cab6000850182612bac565b506020820151612cbe6020850182612b9d565b506040820151612cd16040850182612bac565b50505050565b6000612ce38383612c95565b60608301905092915050565b6000602082019050919050565b6000612d0782612c69565b612d118185612c74565b9350612d1c83612c85565b8060005b83811015612d4d578151612d348882612cd7565b9750612d3f83612cef565b925050600181019050612d20565b5085935050505092915050565b600061016083016000830151612d736000860182612b9d565b506020830151612d866020860182612bac565b5060408301518482036040860152612d9e8282612bcc565b91505060608301518482036060860152612db88282612bcc565b91505060808301518482036080860152612dd28282612c21565b91505060a0830151612de760a0860182612bac565b5060c0830151612dfa60c0860182612bac565b5060e0830151612e0d60e0860182612bac565b50610100830151612e22610100860182612c5a565b50610120830151612e37610120860182612bac565b50610140830151848203610140860152612e518282612cfc565b9150508091505092915050565b6000612e6a8383612d5a565b905092915050565b6000602082019050919050565b6000612e8a82612b71565b612e948185612b7c565b935083602082028501612ea685612b8d565b8060005b85811015612ee25784840389528151612ec38582612e5e565b9450612ece83612e72565b925060208a01995050600181019050612eaa565b50829750879550505050505092915050565b60006020820190508181036000830152612f0e8184612e7f565b905092915050565b600060208284031215612f2c57612f2b612852565b5b6000612f3a84828501612a9f565b91505092915050565b612f4c816128e1565b8114612f5757600080fd5b50565b600081359050612f6981612f43565b92915050565b60008060408385031215612f8657612f85612852565b5b6000612f9485828601612a9f565b9250506020612fa585828601612f5a565b9150509250929050565b600080fd5b600080fd5b600080fd5b60008083601f840112612fd457612fd3612faf565b5b8235905067ffffffffffffffff811115612ff157612ff0612fb4565b5b60208301915083600182028301111561300d5761300c612fb9565b5b9250929050565b60008083601f84011261302a57613029612faf565b5b8235905067ffffffffffffffff81111561304757613046612fb4565b5b60208301915083600182028301111561306357613062612fb9565b5b9250929050565b6000819050919050565b61307d8161306a565b811461308857600080fd5b50565b60008135905061309a81613074565b92915050565b60008060008060008060008060008060c08b8d0312156130c3576130c2612852565b5b60008b013567ffffffffffffffff8111156130e1576130e0612857565b5b6130ed8d828e01612fbe565b9a509a505060208b013567ffffffffffffffff8111156131105761310f612857565b5b61311c8d828e01612fbe565b985098505060408b013567ffffffffffffffff81111561313f5761313e612857565b5b61314b8d828e01613014565b9650965050606061315e8d828e016129ea565b94505060808b013567ffffffffffffffff81111561317f5761317e612857565b5b61318b8d828e01612fbe565b935093505060a061319e8d828e0161308b565b9150509295989b9194979a5092959850565b600080fd5b7f4e487b7100000000000000000000000000000000000000000000000000000000600052604160045260246000fd5b6131ed8261295d565b810181811067ffffffffffffffff8211171561320c5761320b6131b5565b5b80604052505050565b600061321f612848565b905061322b82826131e4565b919050565b600067ffffffffffffffff82111561324b5761324a6131b5565b5b6132548261295d565b9050602081019050919050565b82818337600083830152505050565b600061328361327e84613230565b613215565b90508281526020810184848401111561329f5761329e6131b0565b5b6132aa848285613261565b509392505050565b600082601f8301126132c7576132c6612faf565b5b81356132d7848260208601613270565b91505092915050565b600080600080608085870312156132fa576132f9612852565b5b600061330887828801612a9f565b945050602061331987828801612a9f565b935050604061332a878288016129ea565b925050606085013567ffffffffffffffff81111561334b5761334a612857565b5b613357878288016132b2565b91505092959194509250565b6000806040838503121561337a57613379612852565b5b600061338885828601612a9f565b925050602061339985828601612a9f565b9150509250929050565b7f4e487b7100000000000000000000000000000000000000000000000000000000600052602260045260246000fd5b600060028204905060018216806133ea57607f821691505b6020821081036133fd576133fc6133a3565b5b50919050565b7f4552433732313a20617070726f76616c20746f2063757272656e74206f776e6560008201527f7200000000000000000000000000000000000000000000000000000000000000602082015250565b600061345f602183612922565b915061346a82613403565b604082019050919050565b6000602082019050818103600083015261348e81613452565b9050919050565b7f4552433732313a20617070726f76652063616c6c6572206973206e6f7420746f60008201527f6b656e206f776e6572206f7220617070726f76656420666f7220616c6c000000602082015250565b60006134f1603d83612922565b91506134fc82613495565b604082019050919050565b60006020820190508181036000830152613520816134e4565b9050919050565b7f4552433732313a2063616c6c6572206973206e6f7420746f6b656e206f776e6560008201527f72206f7220617070726f76656400000000000000000000000000000000000000602082015250565b6000613583602d83612922565b915061358e82613527565b604082019050919050565b600060208201905081810360008301526135b281613576565b9050919050565b7f4e487b7100000000000000000000000000000000000000000000000000000000600052603260045260246000fd5b7f4e487b7100000000000000000000000000000000000000000000000000000000600052601160045260246000fd5b6000613622826129c9565b915061362d836129c9565b9250828201905080821115613645576136446135e8565b5b92915050565b7f4552433732313a20696e76616c696420746f6b656e2049440000000000000000600082015250565b6000613681601883612922565b915061368c8261364b565b602082019050919050565b600060208201905081810360008301526136b081613674565b9050919050565b7f4552433732313a2061646472657373207a65726f206973206e6f74206120766160008201527f6c6964206f776e65720000000000000000000000000000000000000000000000602082015250565b6000613713602983612922565b915061371e826136b7565b604082019050919050565b6000602082019050818103600083015261374281613706565b9050919050565b600082905092915050565b60008190508160005260206000209050919050565b60006020601f8301049050919050565b600082821b905092915050565b6000600883026137b67fffffffffffffffffffffffffffffffffffffffffffffffffffffffffffffffff82613779565b6137c08683613779565b95508019841693508086168417925050509392505050565b6000819050919050565b60006137fd6137f86137f3846129c9565b6137d8565b6129c9565b9050919050565b6000819050919050565b613817836137e2565b61382b61382382613804565b848454613786565b825550505050565b600090565b613840613833565b61384b81848461380e565b505050565b5b8181101561386f57613864600082613838565b600181019050613851565b5050565b601f8211156138b45761388581613754565b61388e84613769565b8101602085101561389d578190505b6138b16138a985613769565b830182613850565b50505b505050565b600082821c905092915050565b60006138d7600019846008026138b9565b1980831691505092915050565b60006138f083836138c6565b9150826002028217905092915050565b61390a8383613749565b67ffffffffffffffff811115613923576139226131b5565b5b61392d82546133d2565b613938828285613873565b6000601f8311600181146139675760008415613955578287013590505b61395f85826138e4565b8655506139c7565b601f19841661397586613754565b60005b8281101561399d57848901358255600182019150602085019450602081019050613978565b868310156139ba57848901356139b6601f8916826138c6565b8355505b6001600288020188555050505b50505050505050565b600082905092915050565b60008190508160005260206000209050919050565b601f821115613a3157613a02816139db565b613a0b84613769565b81016020851015613a1a578190505b613a2e613a2685613769565b830182613850565b50505b505050565b613a4083836139d0565b67ffffffffffffffff811115613a5957613a586131b5565b5b613a6382546133d2565b613a6e8282856139f0565b6000601f831160018114613a9d5760008415613a8b578287013590505b613a9585826138e4565b865550613afd565b601f198416613aab866139db565b60005b82811015613ad357848901358255600182019150602085019450602081019050613aae565b86831015613af05784890135613aec601f8916826138c6565b8355505b6001600288020188555050505b50505050505050565b600081549050613b15816133d2565b9050919050565b818103613b2a575050613c02565b613b3382613b06565b67ffffffffffffffff811115613b4c57613b4b6131b5565b5b613b5682546133d2565b613b61828285613873565b6000601f831160018114613b905760008415613b7e578287015490505b613b8885826138e4565b865550613bfb565b601f198416613b9e87613754565b9650613ba986613754565b60005b82811015613bd157848901548255600182019150600185019450602081019050613bac565b86831015613bee5784890154613bea601f8916826138c6565b8355505b6001600288020188555050505b5050505050505b565b600081549050613c13816133d2565b9050919050565b818103613c28575050613d00565b613c3182613c04565b67ffffffffffffffff811115613c4a57613c496131b5565b5b613c5482546133d2565b613c5f8282856139f0565b6000601f831160018114613c8e5760008415613c7c578287015490505b613c8685826138e4565b865550613cf9565b601f198416613c9c876139db565b9650613ca7866139db565b60005b82811015613ccf57848901548255600182019150600185019450602081019050613caa565b86831015613cec5784890154613ce8601f8916826138c6565b8355505b6001600288020188555050505b5050505050505b565b600081905092915050565b6000613d1882612917565b613d228185613d02565b9350613d32818560208601612933565b80840191505092915050565b6000613d4a8285613d0d565b9150613d568284613d0d565b91508190509392505050565b7f4f776e61626c653a206e6577206f776e657220697320746865207a65726f206160008201527f6464726573730000000000000000000000000000000000000000000000000000602082015250565b6000613dbe602683612922565b9150613dc982613d62565b604082019050919050565b60006020820190508181036000830152613ded81613db1565b9050919050565b7f4552433732313a207472616e736665722066726f6d20696e636f72726563742060008201527f6f776e6572000000000000000000000000000000000000000000000000000000602082015250565b6000613e50602583612922565b9150613e5b82613df4565b604082019050919050565b60006020820190508181036000830152613e7f81613e43565b9050919050565b7f4552433732313a207472616e7366657220746f20746865207a65726f2061646460008201527f7265737300000000000000000000000000000000000000000000000000000000602082015250565b6000613ee2602483612922565b9150613eed82613e86565b604082019050919050565b60006020820190508181036000830152613f1181613ed5565b9050919050565b7f4552433732313a206d696e7420746f20746865207a65726f2061646472657373600082015250565b6000613f4e602083612922565b9150613f5982613f18565b602082019050919050565b60006020820190508181036000830152613f7d81613f41565b9050919050565b7f4552433732313a20746f6b656e20616c7265616479206d696e74656400000000600082015250565b6000613fba601c83612922565b9150613fc582613f84565b602082019050919050565b60006020820190508181036000830152613fe981613fad565b9050919050565b7f4f776e61626c653a2063616c6c6572206973206e6f7420746865206f776e6572600082015250565b6000614026602083612922565b915061403182613ff0565b602082019050919050565b6000602082019050818103600083015261405581614019565b9050919050565b7f4552433732313a20617070726f766520746f2063616c6c657200000000000000600082015250565b6000614092601983612922565b915061409d8261405c565b602082019050919050565b600060208201905081810360008301526140c181614085565b9050919050565b7f45524337323155524953746f726167653a2055524920736574206f66206e6f6e60008201527f6578697374656e7420746f6b656e000000000000000000000000000000000000602082015250565b6000614124602e83612922565b915061412f826140c8565b604082019050919050565b6000602082019050818103600083015261415381614117565b9050919050565b61416382612917565b67ffffffffffffffff81111561417c5761417b6131b5565b5b61418682546133d2565b614191828285613873565b600060209050601f8311600181146141c457600084156141b2578287015190505b6141bc85826138e4565b865550614224565b601f1984166141d286613754565b60005b828110156141fa578489015182556001820191506020850194506020810190506141d5565b868310156142175784890151614213601f8916826138c6565b8355505b6001600288020188555050505b505050505050565b7f4552433732313a207472616e7366657220746f206e6f6e20455243373231526560008201527f63656976657220696d706c656d656e7465720000000000000000000000000000602082015250565b6000614288603283612922565b91506142938261422c565b604082019050919050565b600060208201905081810360008301526142b78161427b565b9050919050565b60006142c9826129c9565b91506142d4836129c9565b92508282039050818111156142ec576142eb6135e8565b5b92915050565b600082825260208201905092915050565b600061430e82612c05565b61431881856142f2565b9350614328818560208601612933565b6143318161295d565b840191505092915050565b60006080820190506143516000830187612a5e565b61435e6020830186612a5e565b61436b6040830185612b47565b818103606083015261437d8184614303565b905095945050505050565b60008151905061439781612888565b92915050565b6000602082840312156143b3576143b2612852565b5b60006143c184828501614388565b91505092915050565b7f4e487b7100000000000000000000000000000000000000000000000000000000600052601260045260246000fdfea26469706673582212204e3dfb5d1e6e8c2796ef33490997edf6e4032616145bbc2026d5b2c094dc18bb64736f6c63430008110033",
  "linkReferences": {},
  "deployedLinkReferences": {}
}