{
  "_format": "hh-sol-artifact-1",
  "contractName": "Donation",
  "sourceName": "contracts/Donation.sol",
  "abi": [
    {
      "inputs": [],
      "stateMutability": "payable",
      "type": "constructor"
    },
    {
      "anonymous": false,
      "inputs": [
        {
          "indexed": true,
          "internalType": "address",
          "name": "owner",
          "type": "address"
        },
        {
          "indexed": true,
          "internalType": "address",
          "name": "approved",
          "type": "address"
        },
        {
          "indexed": true,
          "internalType": "uint256",
          "name": "tokenId",
          "type": "uint256"
        }
      ],
      "name": "Approval",
      "type": "event"
    },
    {
      "anonymous": false,
      "inputs": [
        {
          "indexed": true,
          "internalType": "address",
          "name": "owner",
          "type": "address"
        },
        {
          "indexed": true,
          "internalType": "address",
          "name": "operator",
          "type": "address"
        },
        {
          "indexed": false,
          "internalType": "bool",
          "name": "approved",
          "type": "bool"
        }
      ],
      "name": "ApprovalForAll",
      "type": "event"
    },
    {
      "anonymous": false,
      "inputs": [
        {
          "indexed": false,
          "internalType": "uint256",
          "name": "syncid",
          "type": "uint256"
        },
        {
          "components": [
            {
              "internalType": "address",
              "name": "provider",
              "type": "address"
            },
            {
              "internalType": "uint256",
              "name": "posttime",
              "type": "uint256"
            },
            {
              "internalType": "string",
              "name": "title",
              "type": "string"
            },
            {
              "internalType": "string",
              "name": "imgurl",
              "type": "string"
            },
            {
              "internalType": "bytes",
              "name": "desc",
              "type": "bytes"
            },
            {
              "internalType": "uint256",
              "name": "maxvalue",
              "type": "uint256"
            },
            {
              "internalType": "uint256",
              "name": "currvalue",
              "type": "uint256"
            },
            {
              "internalType": "uint256",
              "name": "rewardid",
              "type": "uint256"
            },
            {
              "internalType": "bool",
              "name": "owned",
              "type": "bool"
            },
            {
              "internalType": "uint256",
              "name": "rewardvalue",
              "type": "uint256"
            },
            {
              "components": [
                {
                  "internalType": "uint256",
                  "name": "donortime",
                  "type": "uint256"
                },
                {
                  "internalType": "address",
                  "name": "donors",
                  "type": "address"
                },
                {
                  "internalType": "uint256",
                  "name": "valueofdonors",
                  "type": "uint256"
                }
              ],
              "internalType": "struct Donation.Transaction[]",
              "name": "transactions",
              "type": "tuple[]"
            }
          ],
          "indexed": false,
          "internalType": "struct Donation.DonationPost",
          "name": "newerpost",
          "type": "tuple"
        }
      ],
      "name": "NewWave",
      "type": "event"
    },
    {
      "anonymous": false,
      "inputs": [
        {
          "indexed": true,
          "internalType": "address",
          "name": "previousOwner",
          "type": "address"
        },
        {
          "indexed": true,
          "internalType": "address",
          "name": "newOwner",
          "type": "address"
        }
      ],
      "name": "OwnershipTransferred",
      "type": "event"
    },
    {
      "anonymous": false,
      "inputs": [
        {
          "indexed": true,
          "internalType": "address",
          "name": "from",
          "type": "address"
        },
        {
          "indexed": true,
          "internalType": "address",
          "name": "to",
          "type": "address"
        },
        {
          "indexed": true,
          "internalType": "uint256",
          "name": "tokenId",
          "type": "uint256"
        }
      ],
      "name": "Transfer",
      "type": "event"
    },
    {
      "inputs": [],
      "name": "GOLD",
      "outputs": [
        {
          "internalType": "uint256",
          "name": "",
          "type": "uint256"
        }
      ],
      "stateMutability": "view",
      "type": "function"
    },
    {
      "inputs": [],
      "name": "alamatA",
      "outputs": [
        {
          "internalType": "address",
          "name": "",
          "type": "address"
        }
      ],
      "stateMutability": "view",
      "type": "function"
    },
    {
      "inputs": [
        {
          "internalType": "address",
          "name": "to",
          "type": "address"
        },
        {
          "internalType": "uint256",
          "name": "tokenId",
          "type": "uint256"
        }
      ],
      "name": "approve",
      "outputs": [],
      "stateMutability": "nonpayable",
      "type": "function"
    },
    {
      "inputs": [
        {
          "internalType": "address",
          "name": "owner",
          "type": "address"
        }
      ],
      "name": "balanceOf",
      "outputs": [
        {
          "internalType": "uint256",
          "name": "",
          "type": "uint256"
        }
      ],
      "stateMutability": "view",
      "type": "function"
    },
    {
      "inputs": [],
      "name": "cektime",
      "outputs": [
        {
          "internalType": "uint256",
          "name": "",
          "type": "uint256"
        }
      ],
      "stateMutability": "view",
      "type": "function"
    },
    {
      "inputs": [],
      "name": "cetakaja",
      "outputs": [],
      "stateMutability": "payable",
      "type": "function"
    },
    {
      "inputs": [
        {
          "internalType": "string",
          "name": "title",
          "type": "string"
        },
        {
          "internalType": "string",
          "name": "imgurl",
          "type": "string"
        },
        {
          "internalType": "bytes",
          "name": "desc",
          "type": "bytes"
        },
        {
          "internalType": "bytes32",
          "name": "maxvalue",
          "type": "bytes32"
        },
        {
          "internalType": "string",
          "name": "nfturl",
          "type": "string"
        },
        {
          "internalType": "bytes32",
          "name": "rewardvalue",
          "type": "bytes32"
        }
      ],
      "name": "createpost",
      "outputs": [],
      "stateMutability": "nonpayable",
      "type": "function"
    },
    {
      "inputs": [
        {
          "internalType": "uint256",
          "name": "tokenId",
          "type": "uint256"
        }
      ],
      "name": "getApproved",
      "outputs": [
        {
          "internalType": "address",
          "name": "",
          "type": "address"
        }
      ],
      "stateMutability": "view",
      "type": "function"
    },
    {
      "inputs": [
        {
          "internalType": "uint256",
          "name": "pid1",
          "type": "uint256"
        }
      ],
      "name": "gotMoney",
      "outputs": [],
      "stateMutability": "payable",
      "type": "function"
    },
    {
      "inputs": [
        {
          "internalType": "address",
          "name": "owner",
          "type": "address"
        },
        {
          "internalType": "address",
          "name": "operator",
          "type": "address"
        }
      ],
      "name": "isApprovedForAll",
      "outputs": [
        {
          "internalType": "bool",
          "name": "",
          "type": "bool"
        }
      ],
      "stateMutability": "view",
      "type": "function"
    },
    {
      "inputs": [
        {
          "internalType": "uint256",
          "name": "tokenid",
          "type": "uint256"
        }
      ],
      "name": "kirimaja",
      "outputs": [],
      "stateMutability": "payable",
      "type": "function"
    },
    {
      "inputs": [],
      "name": "name",
      "outputs": [
        {
          "internalType": "string",
          "name": "",
          "type": "string"
        }
      ],
      "stateMutability": "view",
      "type": "function"
    },
    {
      "inputs": [],
      "name": "owner",
      "outputs": [
        {
          "internalType": "address",
          "name": "",
          "type": "address"
        }
      ],
      "stateMutability": "view",
      "type": "function"
    },
    {
      "inputs": [
        {
          "internalType": "uint256",
          "name": "tokenId",
          "type": "uint256"
        }
      ],
      "name": "ownerOf",
      "outputs": [
        {
          "internalType": "address",
          "name": "",
          "type": "address"
        }
      ],
      "stateMutability": "view",
      "type": "function"
    },
    {
      "inputs": [],
      "name": "renounceOwnership",
      "outputs": [],
      "stateMutability": "nonpayable",
      "type": "function"
    },
    {
      "inputs": [
        {
          "internalType": "address",
          "name": "from",
          "type": "address"
        },
        {
          "internalType": "address",
          "name": "to",
          "type": "address"
        },
        {
          "internalType": "uint256",
          "name": "tokenId",
          "type": "uint256"
        }
      ],
      "name": "safeTransferFrom",
      "outputs": [],
      "stateMutability": "nonpayable",
      "type": "function"
    },
    {
      "inputs": [
        {
          "internalType": "address",
          "name": "from",
          "type": "address"
        },
        {
          "internalType": "address",
          "name": "to",
          "type": "address"
        },
        {
          "internalType": "uint256",
          "name": "tokenId",
          "type": "uint256"
        },
        {
          "internalType": "bytes",
          "name": "data",
          "type": "bytes"
        }
      ],
      "name": "safeTransferFrom",
      "outputs": [],
      "stateMutability": "nonpayable",
      "type": "function"
    },
    {
      "inputs": [
        {
          "internalType": "address",
          "name": "operator",
          "type": "address"
        },
        {
          "internalType": "bool",
          "name": "approved",
          "type": "bool"
        }
      ],
      "name": "setApprovalForAll",
      "outputs": [],
      "stateMutability": "nonpayable",
      "type": "function"
    },
    {
      "inputs": [
        {
          "internalType": "bytes4",
          "name": "interfaceId",
          "type": "bytes4"
        }
      ],
      "name": "supportsInterface",
      "outputs": [
        {
          "internalType": "bool",
          "name": "",
          "type": "bool"
        }
      ],
      "stateMutability": "view",
      "type": "function"
    },
    {
      "inputs": [],
      "name": "symbol",
      "outputs": [
        {
          "internalType": "string",
          "name": "",
          "type": "string"
        }
      ],
      "stateMutability": "view",
      "type": "function"
    },
    {
      "inputs": [],
      "name": "syncdonation",
      "outputs": [
        {
          "components": [
            {
              "internalType": "address",
              "name": "provider",
              "type": "address"
            },
            {
              "internalType": "uint256",
              "name": "posttime",
              "type": "uint256"
            },
            {
              "internalType": "string",
              "name": "title",
              "type": "string"
            },
            {
              "internalType": "string",
              "name": "imgurl",
              "type": "string"
            },
            {
              "internalType": "bytes",
              "name": "desc",
              "type": "bytes"
            },
            {
              "internalType": "uint256",
              "name": "maxvalue",
              "type": "uint256"
            },
            {
              "internalType": "uint256",
              "name": "currvalue",
              "type": "uint256"
            },
            {
              "internalType": "uint256",
              "name": "rewardid",
              "type": "uint256"
            },
            {
              "internalType": "bool",
              "name": "owned",
              "type": "bool"
            },
            {
              "internalType": "uint256",
              "name": "rewardvalue",
              "type": "uint256"
            },
            {
              "components": [
                {
                  "internalType": "uint256",
                  "name": "donortime",
                  "type": "uint256"
                },
                {
                  "internalType": "address",
                  "name": "donors",
                  "type": "address"
                },
                {
                  "internalType": "uint256",
                  "name": "valueofdonors",
                  "type": "uint256"
                }
              ],
              "internalType": "struct Donation.Transaction[]",
              "name": "transactions",
              "type": "tuple[]"
            }
          ],
          "internalType": "struct Donation.DonationPost[]",
          "name": "",
          "type": "tuple[]"
        }
      ],
      "stateMutability": "view",
      "type": "function"
    },
    {
      "inputs": [
        {
          "internalType": "uint256",
          "name": "tokenId",
          "type": "uint256"
        }
      ],
      "name": "tokenURI",
      "outputs": [
        {
          "internalType": "string",
          "name": "",
          "type": "string"
        }
      ],
      "stateMutability": "view",
      "type": "function"
    },
    {
      "inputs": [
        {
          "internalType": "address",
          "name": "from",
          "type": "address"
        },
        {
          "internalType": "address",
          "name": "to",
          "type": "address"
        },
        {
          "internalType": "uint256",
          "name": "tokenId",
          "type": "uint256"
        }
      ],
      "name": "transferFrom",
      "outputs": [],
      "stateMutability": "nonpayable",
      "type": "function"
    },
    {
      "inputs": [
        {
          "internalType": "address",
          "name": "newOwner",
          "type": "address"
        }
      ],
      "name": "transferOwnership",
      "outputs": [],
      "stateMutability": "nonpayable",
      "type": "function"
    }
  ],
  "bytecode": "0x60806040526040518060400160405280600f81526020017f446f6e6174696f6e2052657761726400000000000000000000000000000000008152506040518060400160405280600281526020017f445200000000000000000000000000000000000000000000000000000000000081525081600090816200008191906200047e565b5080600190816200009391906200047e565b505050620000b6620000aa6200010c60201b60201c565b6200011460201b60201c565b620000c6620001da60201b60201c565b600860006101000a81548173ffffffffffffffffffffffffffffffffffffffff021916908373ffffffffffffffffffffffffffffffffffffffff16021790555062000565565b600033905090565b6000600760009054906101000a900473ffffffffffffffffffffffffffffffffffffffff16905081600760006101000a81548173ffffffffffffffffffffffffffffffffffffffff021916908373ffffffffffffffffffffffffffffffffffffffff1602179055508173ffffffffffffffffffffffffffffffffffffffff168173ffffffffffffffffffffffffffffffffffffffff167f8be0079c531659141344cd1fd0a4f28419497f9722a3daafe3b4186f6b6457e060405160405180910390a35050565b6000600760009054906101000a900473ffffffffffffffffffffffffffffffffffffffff16905090565b600081519050919050565b7f4e487b7100000000000000000000000000000000000000000000000000000000600052604160045260246000fd5b7f4e487b7100000000000000000000000000000000000000000000000000000000600052602260045260246000fd5b600060028204905060018216806200028657607f821691505b6020821081036200029c576200029b6200023e565b5b50919050565b60008190508160005260206000209050919050565b60006020601f8301049050919050565b600082821b905092915050565b600060088302620003067fffffffffffffffffffffffffffffffffffffffffffffffffffffffffffffffff82620002c7565b620003128683620002c7565b95508019841693508086168417925050509392505050565b6000819050919050565b6000819050919050565b60006200035f6200035962000353846200032a565b62000334565b6200032a565b9050919050565b6000819050919050565b6200037b836200033e565b620003936200038a8262000366565b848454620002d4565b825550505050565b600090565b620003aa6200039b565b620003b781848462000370565b505050565b5b81811015620003df57620003d3600082620003a0565b600181019050620003bd565b5050565b601f8211156200042e57620003f881620002a2565b6200040384620002b7565b8101602085101562000413578190505b6200042b6200042285620002b7565b830182620003bc565b50505b505050565b600082821c905092915050565b6000620004536000198460080262000433565b1980831691505092915050565b60006200046e838362000440565b9150826002028217905092915050565b620004898262000204565b67ffffffffffffffff811115620004a557620004a46200020f565b5b620004b182546200026d565b620004be828285620003e3565b600060209050601f831160018114620004f65760008415620004e1578287015190505b620004ed858262000460565b8655506200055d565b601f1984166200050686620002a2565b60005b82811015620005305784890151825560018201915060208501945060208101905062000509565b868310156200055057848901516200054c601f89168262000440565b8355505b6001600288020188555050505b505050505050565b6148a980620005756000396000f3fe60806040526004361061014b5760003560e01c80635da2e6b3116100b6578063a22cb4651161006f578063a22cb46514610445578063b88d4fde1461046e578063c87b56dd14610497578063e985e9c5146104d4578063f2fde38b14610511578063f4af1d931461053a5761014b565b80635da2e6b3146103335780636352211e1461035e57806370a082311461039b578063715018a6146103d85780638da5cb5b146103ef57806395d89b411461041a5761014b565b806326c5b9961161010857806326c5b996146102725780633e4bee381461027c57806342842e0e146102a75780634de729e4146102d057806350469e8b146102fb5780635bb0b24b146103175761014b565b806301ffc9a71461015057806306fdde031461018d578063081812fc146101b8578063095ea7b3146101f5578063225dfb5c1461021e57806323b872dd14610249575b600080fd5b34801561015c57600080fd5b5061017760048036038101906101729190612911565b610563565b6040516101849190612959565b60405180910390f35b34801561019957600080fd5b506101a2610645565b6040516101af9190612a04565b60405180910390f35b3480156101c457600080fd5b506101df60048036038101906101da9190612a5c565b6106d7565b6040516101ec9190612aca565b60405180910390f35b34801561020157600080fd5b5061021c60048036038101906102179190612b11565b61071d565b005b34801561022a57600080fd5b50610233610834565b6040516102409190612aca565b60405180910390f35b34801561025557600080fd5b50610270600480360381019061026b9190612b51565b61085a565b005b61027a6108ba565b005b34801561028857600080fd5b506102916108df565b60405161029e9190612bb3565b60405180910390f35b3480156102b357600080fd5b506102ce60048036038101906102c99190612b51565b6108e4565b005b3480156102dc57600080fd5b506102e5610904565b6040516102f29190612f51565b60405180910390f35b61031560048036038101906103109190612a5c565b610c86565b005b610331600480360381019061032c9190612a5c565b610f6c565b005b34801561033f57600080fd5b50610348610f7a565b6040516103559190612bb3565b60405180910390f35b34801561036a57600080fd5b5061038560048036038101906103809190612a5c565b610f82565b6040516103929190612aca565b60405180910390f35b3480156103a757600080fd5b506103c260048036038101906103bd9190612f73565b611008565b6040516103cf9190612bb3565b60405180910390f35b3480156103e457600080fd5b506103ed6110bf565b005b3480156103fb57600080fd5b506104046110d3565b6040516104119190612aca565b60405180910390f35b34801561042657600080fd5b5061042f6110fd565b60405161043c9190612a04565b60405180910390f35b34801561045157600080fd5b5061046c60048036038101906104679190612fcc565b61118f565b005b34801561047a57600080fd5b5061049560048036038101906104909190613141565b6111a5565b005b3480156104a357600080fd5b506104be60048036038101906104b99190612a5c565b611207565b6040516104cb9190612a04565b60405180910390f35b3480156104e057600080fd5b506104fb60048036038101906104f691906131c4565b611319565b6040516105089190612959565b60405180910390f35b34801561051d57600080fd5b5061053860048036038101906105339190612f73565b6113ad565b005b34801561054657600080fd5b50610561600480360381019061055c91906132f0565b611430565b005b60007f80ac58cd000000000000000000000000000000000000000000000000000000007bffffffffffffffffffffffffffffffffffffffffffffffffffffffff1916827bffffffffffffffffffffffffffffffffffffffffffffffffffffffff1916148061062e57507f5b5e139f000000000000000000000000000000000000000000000000000000007bffffffffffffffffffffffffffffffffffffffffffffffffffffffff1916827bffffffffffffffffffffffffffffffffffffffffffffffffffffffff1916145b8061063e575061063d826116d2565b5b9050919050565b6060600080546106549061342f565b80601f01602080910402602001604051908101604052809291908181526020018280546106809061342f565b80156106cd5780601f106106a2576101008083540402835291602001916106cd565b820191906000526020600020905b8154815290600101906020018083116106b057829003601f168201915b5050505050905090565b60006106e28261173c565b6004600083815260200190815260200160002060009054906101000a900473ffffffffffffffffffffffffffffffffffffffff169050919050565b600061072882610f82565b90508073ffffffffffffffffffffffffffffffffffffffff168373ffffffffffffffffffffffffffffffffffffffff1603610798576040517f08c379a000000000000000000000000000000000000000000000000000000000815260040161078f906134d2565b60405180910390fd5b8073ffffffffffffffffffffffffffffffffffffffff166107b7611787565b73ffffffffffffffffffffffffffffffffffffffff1614806107e657506107e5816107e0611787565b611319565b5b610825576040517f08c379a000000000000000000000000000000000000000000000000000000000815260040161081c90613564565b60405180910390fd5b61082f838361178f565b505050565b600860009054906101000a900473ffffffffffffffffffffffffffffffffffffffff1681565b61086b610865611787565b82611848565b6108aa576040517f08c379a00000000000000000000000000000000000000000000000000000000081526004016108a1906135f6565b60405180910390fd5b6108b58383836118dd565b505050565b60006108c66009611bd6565b90506108d23082611be4565b6108dc6009611e01565b50565b600081565b6108ff838383604051806020016040528060008152506111a5565b505050565b60606015805480602002602001604051908101604052809291908181526020016000905b82821015610c7d57838290600052602060002090600b0201604051806101600160405290816000820160009054906101000a900473ffffffffffffffffffffffffffffffffffffffff1673ffffffffffffffffffffffffffffffffffffffff1673ffffffffffffffffffffffffffffffffffffffff168152602001600182015481526020016002820180546109bc9061342f565b80601f01602080910402602001604051908101604052809291908181526020018280546109e89061342f565b8015610a355780601f10610a0a57610100808354040283529160200191610a35565b820191906000526020600020905b815481529060010190602001808311610a1857829003601f168201915b50505050508152602001600382018054610a4e9061342f565b80601f0160208091040260200160405190810160405280929190818152602001828054610a7a9061342f565b8015610ac75780601f10610a9c57610100808354040283529160200191610ac7565b820191906000526020600020905b815481529060010190602001808311610aaa57829003601f168201915b50505050508152602001600482018054610ae09061342f565b80601f0160208091040260200160405190810160405280929190818152602001828054610b0c9061342f565b8015610b595780601f10610b2e57610100808354040283529160200191610b59565b820191906000526020600020905b815481529060010190602001808311610b3c57829003601f168201915b505050505081526020016005820154815260200160068201548152602001600782015481526020016008820160009054906101000a900460ff1615151515815260200160098201548152602001600a8201805480602002602001604051908101604052809291908181526020016000905b82821015610c665783829060005260206000209060030201604051806060016040529081600082015481526020016001820160009054906101000a900473ffffffffffffffffffffffffffffffffffffffff1673ffffffffffffffffffffffffffffffffffffffff1673ffffffffffffffffffffffffffffffffffffffff16815260200160028201548152505081526020019060010190610bca565b505050508152505081526020019060010190610928565b50505050905090565b600060158281548110610c9c57610c9b613616565b5b90600052602060002090600b020160000160009054906101000a900473ffffffffffffffffffffffffffffffffffffffff1690508073ffffffffffffffffffffffffffffffffffffffff166108fc349081150290604051600060405180830381858888f19350505050158015610d16573d6000803e3d6000fd5b503460158381548110610d2c57610d2b613616565b5b90600052602060002090600b02016006016000828254610d4c9190613674565b9250508190555060158281548110610d6757610d66613616565b5b90600052602060002090600b0201600a0160405180606001604052804281526020013373ffffffffffffffffffffffffffffffffffffffff1681526020013481525090806001815401808255809150506001900390600052602060002090600302016000909190919091506000820151816000015560208201518160010160006101000a81548173ffffffffffffffffffffffffffffffffffffffff021916908373ffffffffffffffffffffffffffffffffffffffff1602179055506040820151816002015550506000151560158381548110610e4757610e46613616565b5b90600052602060002090600b020160080160009054906101000a900460ff161515148015610e9a57503460158381548110610e8557610e84613616565b5b90600052602060002090600b02016009015411155b15610f0e57610ecf303360158581548110610eb857610eb7613616565b5b90600052602060002090600b0201600701546118dd565b600160158381548110610ee557610ee4613616565b5b90600052602060002090600b020160080160006101000a81548160ff0219169083151502179055505b7f2e299ab32f3329cae0b12b47dfaf252986a1883bbe22bd1c972e4fcabf14ca228260158481548110610f4457610f43613616565b5b90600052602060002090600b0201604051610f60929190613abf565b60405180910390a15050565b610f773033836118dd565b50565b600042905090565b600080610f8e83611e17565b9050600073ffffffffffffffffffffffffffffffffffffffff168173ffffffffffffffffffffffffffffffffffffffff1603610fff576040517f08c379a0000000000000000000000000000000000000000000000000000000008152600401610ff690613b3b565b60405180910390fd5b80915050919050565b60008073ffffffffffffffffffffffffffffffffffffffff168273ffffffffffffffffffffffffffffffffffffffff1603611078576040517f08c379a000000000000000000000000000000000000000000000000000000000815260040161106f90613bcd565b60405180910390fd5b600360008373ffffffffffffffffffffffffffffffffffffffff1673ffffffffffffffffffffffffffffffffffffffff168152602001908152602001600020549050919050565b6110c7611e54565b6110d16000611ed2565b565b6000600760009054906101000a900473ffffffffffffffffffffffffffffffffffffffff16905090565b60606001805461110c9061342f565b80601f01602080910402602001604051908101604052809291908181526020018280546111389061342f565b80156111855780601f1061115a57610100808354040283529160200191611185565b820191906000526020600020905b81548152906001019060200180831161116857829003601f168201915b5050505050905090565b6111a161119a611787565b8383611f98565b5050565b6111b66111b0611787565b83611848565b6111f5576040517f08c379a00000000000000000000000000000000000000000000000000000000081526004016111ec906135f6565b60405180910390fd5b61120184848484612104565b50505050565b60606112128261173c565b60006006600084815260200190815260200160002080546112329061342f565b80601f016020809104026020016040519081016040528092919081815260200182805461125e9061342f565b80156112ab5780601f10611280576101008083540402835291602001916112ab565b820191906000526020600020905b81548152906001019060200180831161128e57829003601f168201915b5050505050905060006112bc612160565b905060008151036112d1578192505050611314565b6000825111156113065780826040516020016112ee929190613c29565b60405160208183030381529060405292505050611314565b61130f84612177565b925050505b919050565b6000600560008473ffffffffffffffffffffffffffffffffffffffff1673ffffffffffffffffffffffffffffffffffffffff16815260200190815260200160002060008373ffffffffffffffffffffffffffffffffffffffff1673ffffffffffffffffffffffffffffffffffffffff16815260200190815260200160002060009054906101000a900460ff16905092915050565b6113b5611e54565b600073ffffffffffffffffffffffffffffffffffffffff168173ffffffffffffffffffffffffffffffffffffffff1603611424576040517f08c379a000000000000000000000000000000000000000000000000000000000815260040161141b90613cbf565b60405180910390fd5b61142d81611ed2565b50565b600061143c6009611bd6565b90506114483082611be4565b33600a60000160006101000a81548173ffffffffffffffffffffffffffffffffffffffff021916908373ffffffffffffffffffffffffffffffffffffffff16021790555042600a600101819055508a8a600a60020191826114aa929190613e81565b508888600a60030191826114bf929190613e81565b508686600a60040191826114d4929190613fa2565b508460001c600a600501819055506000600a6006018190555080600a600701819055506000600a60080160006101000a81548160ff0219169083151502179055508160001c600a600901819055506115708185858080601f016020809104026020016040519081016040528093929190818152602001838380828437600081840152601f19601f820116905080830192505050505050506121df565b61157a6009611e01565b6015600a90806001815401808255809150506001900390600052602060002090600b02016000909190919091506000820160009054906101000a900473ffffffffffffffffffffffffffffffffffffffff168160000160006101000a81548173ffffffffffffffffffffffffffffffffffffffff021916908373ffffffffffffffffffffffffffffffffffffffff160217905550600182015481600101556002820181600201908161162c9190614088565b50600382018160030190816116419190614088565b50600482018160040190816116569190614186565b506005820154816005015560068201548160060155600782015481600701556008820160009054906101000a900460ff168160080160006101000a81548160ff02191690831515021790555060098201548160090155600a820181600a019080546116c2929190612784565b5050505050505050505050505050565b60007f01ffc9a7000000000000000000000000000000000000000000000000000000007bffffffffffffffffffffffffffffffffffffffffffffffffffffffff1916827bffffffffffffffffffffffffffffffffffffffffffffffffffffffff1916149050919050565b6117458161224c565b611784576040517f08c379a000000000000000000000000000000000000000000000000000000000815260040161177b90613b3b565b60405180910390fd5b50565b600033905090565b816004600083815260200190815260200160002060006101000a81548173ffffffffffffffffffffffffffffffffffffffff021916908373ffffffffffffffffffffffffffffffffffffffff160217905550808273ffffffffffffffffffffffffffffffffffffffff1661180283610f82565b73ffffffffffffffffffffffffffffffffffffffff167f8c5be1e5ebec7d5bd14f71427d1e84f3dd0314c0f7b2291e5b200ac8c7c3b92560405160405180910390a45050565b60008061185483610f82565b90508073ffffffffffffffffffffffffffffffffffffffff168473ffffffffffffffffffffffffffffffffffffffff16148061189657506118958185611319565b5b806118d457508373ffffffffffffffffffffffffffffffffffffffff166118bc846106d7565b73ffffffffffffffffffffffffffffffffffffffff16145b91505092915050565b8273ffffffffffffffffffffffffffffffffffffffff166118fd82610f82565b73ffffffffffffffffffffffffffffffffffffffff1614611953576040517f08c379a000000000000000000000000000000000000000000000000000000000815260040161194a906142e0565b60405180910390fd5b600073ffffffffffffffffffffffffffffffffffffffff168273ffffffffffffffffffffffffffffffffffffffff16036119c2576040517f08c379a00000000000000000000000000000000000000000000000000000000081526004016119b990614372565b60405180910390fd5b6119cf838383600161228d565b8273ffffffffffffffffffffffffffffffffffffffff166119ef82610f82565b73ffffffffffffffffffffffffffffffffffffffff1614611a45576040517f08c379a0000000000000000000000000000000000000000000000000000000008152600401611a3c906142e0565b60405180910390fd5b6004600082815260200190815260200160002060006101000a81549073ffffffffffffffffffffffffffffffffffffffff02191690556001600360008573ffffffffffffffffffffffffffffffffffffffff1673ffffffffffffffffffffffffffffffffffffffff168152602001908152602001600020600082825403925050819055506001600360008473ffffffffffffffffffffffffffffffffffffffff1673ffffffffffffffffffffffffffffffffffffffff16815260200190815260200160002060008282540192505081905550816002600083815260200190815260200160002060006101000a81548173ffffffffffffffffffffffffffffffffffffffff021916908373ffffffffffffffffffffffffffffffffffffffff160217905550808273ffffffffffffffffffffffffffffffffffffffff168473ffffffffffffffffffffffffffffffffffffffff167fddf252ad1be2c89b69c2b068fc378daa952ba7f163c4a11628f55a4df523b3ef60405160405180910390a4611bd183838360016123b3565b505050565b600081600001549050919050565b600073ffffffffffffffffffffffffffffffffffffffff168273ffffffffffffffffffffffffffffffffffffffff1603611c53576040517f08c379a0000000000000000000000000000000000000000000000000000000008152600401611c4a906143de565b60405180910390fd5b611c5c8161224c565b15611c9c576040517f08c379a0000000000000000000000000000000000000000000000000000000008152600401611c939061444a565b60405180910390fd5b611caa60008383600161228d565b611cb38161224c565b15611cf3576040517f08c379a0000000000000000000000000000000000000000000000000000000008152600401611cea9061444a565b60405180910390fd5b6001600360008473ffffffffffffffffffffffffffffffffffffffff1673ffffffffffffffffffffffffffffffffffffffff16815260200190815260200160002060008282540192505081905550816002600083815260200190815260200160002060006101000a81548173ffffffffffffffffffffffffffffffffffffffff021916908373ffffffffffffffffffffffffffffffffffffffff160217905550808273ffffffffffffffffffffffffffffffffffffffff16600073ffffffffffffffffffffffffffffffffffffffff167fddf252ad1be2c89b69c2b068fc378daa952ba7f163c4a11628f55a4df523b3ef60405160405180910390a4611dfd6000838360016123b3565b5050565b6001816000016000828254019250508190555050565b60006002600083815260200190815260200160002060009054906101000a900473ffffffffffffffffffffffffffffffffffffffff169050919050565b611e5c611787565b73ffffffffffffffffffffffffffffffffffffffff16611e7a6110d3565b73ffffffffffffffffffffffffffffffffffffffff1614611ed0576040517f08c379a0000000000000000000000000000000000000000000000000000000008152600401611ec7906144b6565b60405180910390fd5b565b6000600760009054906101000a900473ffffffffffffffffffffffffffffffffffffffff16905081600760006101000a81548173ffffffffffffffffffffffffffffffffffffffff021916908373ffffffffffffffffffffffffffffffffffffffff1602179055508173ffffffffffffffffffffffffffffffffffffffff168173ffffffffffffffffffffffffffffffffffffffff167f8be0079c531659141344cd1fd0a4f28419497f9722a3daafe3b4186f6b6457e060405160405180910390a35050565b8173ffffffffffffffffffffffffffffffffffffffff168373ffffffffffffffffffffffffffffffffffffffff1603612006576040517f08c379a0000000000000000000000000000000000000000000000000000000008152600401611ffd90614522565b60405180910390fd5b80600560008573ffffffffffffffffffffffffffffffffffffffff1673ffffffffffffffffffffffffffffffffffffffff16815260200190815260200160002060008473ffffffffffffffffffffffffffffffffffffffff1673ffffffffffffffffffffffffffffffffffffffff16815260200190815260200160002060006101000a81548160ff0219169083151502179055508173ffffffffffffffffffffffffffffffffffffffff168373ffffffffffffffffffffffffffffffffffffffff167f17307eab39ab6107e8899845ad3d59bd9653f200f220920489ca2b5937696c31836040516120f79190612959565b60405180910390a3505050565b61210f8484846118dd565b61211b848484846123b9565b61215a576040517f08c379a0000000000000000000000000000000000000000000000000000000008152600401612151906145b4565b60405180910390fd5b50505050565b606060405180602001604052806000815250905090565b60606121828261173c565b600061218c612160565b905060008151116121ac57604051806020016040528060008152506121d7565b806121b684612540565b6040516020016121c7929190613c29565b6040516020818303038152906040525b915050919050565b6121e88261224c565b612227576040517f08c379a000000000000000000000000000000000000000000000000000000000815260040161221e90614646565b60405180910390fd5b806006600084815260200190815260200160002090816122479190614666565b505050565b60008073ffffffffffffffffffffffffffffffffffffffff1661226e83611e17565b73ffffffffffffffffffffffffffffffffffffffff1614159050919050565b60018111156123ad57600073ffffffffffffffffffffffffffffffffffffffff168473ffffffffffffffffffffffffffffffffffffffff16146123215780600360008673ffffffffffffffffffffffffffffffffffffffff1673ffffffffffffffffffffffffffffffffffffffff16815260200190815260200160002060008282546123199190614738565b925050819055505b600073ffffffffffffffffffffffffffffffffffffffff168373ffffffffffffffffffffffffffffffffffffffff16146123ac5780600360008573ffffffffffffffffffffffffffffffffffffffff1673ffffffffffffffffffffffffffffffffffffffff16815260200190815260200160002060008282546123a49190613674565b925050819055505b5b50505050565b50505050565b60006123da8473ffffffffffffffffffffffffffffffffffffffff1661260e565b15612533578373ffffffffffffffffffffffffffffffffffffffff1663150b7a02612403611787565b8786866040518563ffffffff1660e01b815260040161242594939291906147b6565b6020604051808303816000875af192505050801561246157506040513d601f19601f8201168201806040525081019061245e9190614817565b60015b6124e3573d8060008114612491576040519150601f19603f3d011682016040523d82523d6000602084013e612496565b606091505b5060008151036124db576040517f08c379a00000000000000000000000000000000000000000000000000000000081526004016124d2906145b4565b60405180910390fd5b805181602001fd5b63150b7a0260e01b7bffffffffffffffffffffffffffffffffffffffffffffffffffffffff1916817bffffffffffffffffffffffffffffffffffffffffffffffffffffffff191614915050612538565b600190505b949350505050565b60606000600161254f84612631565b01905060008167ffffffffffffffff81111561256e5761256d613016565b5b6040519080825280601f01601f1916602001820160405280156125a05781602001600182028036833780820191505090505b509050600082602001820190505b600115612603578080600190039150507f3031323334353637383961626364656600000000000000000000000000000000600a86061a8153600a85816125f7576125f6614844565b5b049450600085036125ae575b819350505050919050565b6000808273ffffffffffffffffffffffffffffffffffffffff163b119050919050565b600080600090507a184f03e93ff9f4daa797ed6e38ed64bf6a1f010000000000000000831061268f577a184f03e93ff9f4daa797ed6e38ed64bf6a1f010000000000000000838161268557612684614844565b5b0492506040810190505b6d04ee2d6d415b85acef810000000083106126cc576d04ee2d6d415b85acef810000000083816126c2576126c1614844565b5b0492506020810190505b662386f26fc1000083106126fb57662386f26fc1000083816126f1576126f0614844565b5b0492506010810190505b6305f5e1008310612724576305f5e100838161271a57612719614844565b5b0492506008810190505b612710831061274957612710838161273f5761273e614844565b5b0492506004810190505b6064831061276c576064838161276257612761614844565b5b0492506002810190505b600a831061277b576001810190505b80915050919050565b8280548282559060005260206000209060030281019282156128465760005260206000209160030282015b82811115612845578282600082015481600001556001820160009054906101000a900473ffffffffffffffffffffffffffffffffffffffff168160010160006101000a81548173ffffffffffffffffffffffffffffffffffffffff021916908373ffffffffffffffffffffffffffffffffffffffff160217905550600282015481600201555050916003019190600301906127af565b5b5090506128539190612857565b5090565b5b808211156128a1576000808201600090556001820160006101000a81549073ffffffffffffffffffffffffffffffffffffffff0219169055600282016000905550600301612858565b5090565b6000604051905090565b600080fd5b600080fd5b60007fffffffff0000000000000000000000000000000000000000000000000000000082169050919050565b6128ee816128b9565b81146128f957600080fd5b50565b60008135905061290b816128e5565b92915050565b600060208284031215612927576129266128af565b5b6000612935848285016128fc565b91505092915050565b60008115159050919050565b6129538161293e565b82525050565b600060208201905061296e600083018461294a565b92915050565b600081519050919050565b600082825260208201905092915050565b60005b838110156129ae578082015181840152602081019050612993565b60008484015250505050565b6000601f19601f8301169050919050565b60006129d682612974565b6129e0818561297f565b93506129f0818560208601612990565b6129f9816129ba565b840191505092915050565b60006020820190508181036000830152612a1e81846129cb565b905092915050565b6000819050919050565b612a3981612a26565b8114612a4457600080fd5b50565b600081359050612a5681612a30565b92915050565b600060208284031215612a7257612a716128af565b5b6000612a8084828501612a47565b91505092915050565b600073ffffffffffffffffffffffffffffffffffffffff82169050919050565b6000612ab482612a89565b9050919050565b612ac481612aa9565b82525050565b6000602082019050612adf6000830184612abb565b92915050565b612aee81612aa9565b8114612af957600080fd5b50565b600081359050612b0b81612ae5565b92915050565b60008060408385031215612b2857612b276128af565b5b6000612b3685828601612afc565b9250506020612b4785828601612a47565b9150509250929050565b600080600060608486031215612b6a57612b696128af565b5b6000612b7886828701612afc565b9350506020612b8986828701612afc565b9250506040612b9a86828701612a47565b9150509250925092565b612bad81612a26565b82525050565b6000602082019050612bc86000830184612ba4565b92915050565b600081519050919050565b600082825260208201905092915050565b6000819050602082019050919050565b612c0381612aa9565b82525050565b612c1281612a26565b82525050565b600082825260208201905092915050565b6000612c3482612974565b612c3e8185612c18565b9350612c4e818560208601612990565b612c57816129ba565b840191505092915050565b600081519050919050565b600082825260208201905092915050565b6000612c8982612c62565b612c938185612c6d565b9350612ca3818560208601612990565b612cac816129ba565b840191505092915050565b612cc08161293e565b82525050565b600081519050919050565b600082825260208201905092915050565b6000819050602082019050919050565b606082016000820151612d086000850182612c09565b506020820151612d1b6020850182612bfa565b506040820151612d2e6040850182612c09565b50505050565b6000612d408383612cf2565b60608301905092915050565b6000602082019050919050565b6000612d6482612cc6565b612d6e8185612cd1565b9350612d7983612ce2565b8060005b83811015612daa578151612d918882612d34565b9750612d9c83612d4c565b925050600181019050612d7d565b5085935050505092915050565b600061016083016000830151612dd06000860182612bfa565b506020830151612de36020860182612c09565b5060408301518482036040860152612dfb8282612c29565b91505060608301518482036060860152612e158282612c29565b91505060808301518482036080860152612e2f8282612c7e565b91505060a0830151612e4460a0860182612c09565b5060c0830151612e5760c0860182612c09565b5060e0830151612e6a60e0860182612c09565b50610100830151612e7f610100860182612cb7565b50610120830151612e94610120860182612c09565b50610140830151848203610140860152612eae8282612d59565b9150508091505092915050565b6000612ec78383612db7565b905092915050565b6000602082019050919050565b6000612ee782612bce565b612ef18185612bd9565b935083602082028501612f0385612bea565b8060005b85811015612f3f5784840389528151612f208582612ebb565b9450612f2b83612ecf565b925060208a01995050600181019050612f07565b50829750879550505050505092915050565b60006020820190508181036000830152612f6b8184612edc565b905092915050565b600060208284031215612f8957612f886128af565b5b6000612f9784828501612afc565b91505092915050565b612fa98161293e565b8114612fb457600080fd5b50565b600081359050612fc681612fa0565b92915050565b60008060408385031215612fe357612fe26128af565b5b6000612ff185828601612afc565b925050602061300285828601612fb7565b9150509250929050565b600080fd5b600080fd5b7f4e487b7100000000000000000000000000000000000000000000000000000000600052604160045260246000fd5b61304e826129ba565b810181811067ffffffffffffffff8211171561306d5761306c613016565b5b80604052505050565b60006130806128a5565b905061308c8282613045565b919050565b600067ffffffffffffffff8211156130ac576130ab613016565b5b6130b5826129ba565b9050602081019050919050565b82818337600083830152505050565b60006130e46130df84613091565b613076565b905082815260208101848484011115613100576130ff613011565b5b61310b8482856130c2565b509392505050565b600082601f8301126131285761312761300c565b5b81356131388482602086016130d1565b91505092915050565b6000806000806080858703121561315b5761315a6128af565b5b600061316987828801612afc565b945050602061317a87828801612afc565b935050604061318b87828801612a47565b925050606085013567ffffffffffffffff8111156131ac576131ab6128b4565b5b6131b887828801613113565b91505092959194509250565b600080604083850312156131db576131da6128af565b5b60006131e985828601612afc565b92505060206131fa85828601612afc565b9150509250929050565b600080fd5b600080fd5b60008083601f8401126132245761322361300c565b5b8235905067ffffffffffffffff81111561324157613240613204565b5b60208301915083600182028301111561325d5761325c613209565b5b9250929050565b60008083601f84011261327a5761327961300c565b5b8235905067ffffffffffffffff81111561329757613296613204565b5b6020830191508360018202830111156132b3576132b2613209565b5b9250929050565b6000819050919050565b6132cd816132ba565b81146132d857600080fd5b50565b6000813590506132ea816132c4565b92915050565b60008060008060008060008060008060c08b8d031215613313576133126128af565b5b60008b013567ffffffffffffffff811115613331576133306128b4565b5b61333d8d828e0161320e565b9a509a505060208b013567ffffffffffffffff8111156133605761335f6128b4565b5b61336c8d828e0161320e565b985098505060408b013567ffffffffffffffff81111561338f5761338e6128b4565b5b61339b8d828e01613264565b965096505060606133ae8d828e016132db565b94505060808b013567ffffffffffffffff8111156133cf576133ce6128b4565b5b6133db8d828e0161320e565b935093505060a06133ee8d828e016132db565b9150509295989b9194979a5092959850565b7f4e487b7100000000000000000000000000000000000000000000000000000000600052602260045260246000fd5b6000600282049050600182168061344757607f821691505b60208210810361345a57613459613400565b5b50919050565b7f4552433732313a20617070726f76616c20746f2063757272656e74206f776e6560008201527f7200000000000000000000000000000000000000000000000000000000000000602082015250565b60006134bc60218361297f565b91506134c782613460565b604082019050919050565b600060208201905081810360008301526134eb816134af565b9050919050565b7f4552433732313a20617070726f76652063616c6c6572206973206e6f7420746f60008201527f6b656e206f776e6572206f7220617070726f76656420666f7220616c6c000000602082015250565b600061354e603d8361297f565b9150613559826134f2565b604082019050919050565b6000602082019050818103600083015261357d81613541565b9050919050565b7f4552433732313a2063616c6c6572206973206e6f7420746f6b656e206f776e6560008201527f72206f7220617070726f76656400000000000000000000000000000000000000602082015250565b60006135e0602d8361297f565b91506135eb82613584565b604082019050919050565b6000602082019050818103600083015261360f816135d3565b9050919050565b7f4e487b7100000000000000000000000000000000000000000000000000000000600052603260045260246000fd5b7f4e487b7100000000000000000000000000000000000000000000000000000000600052601160045260246000fd5b600061367f82612a26565b915061368a83612a26565b92508282019050808211156136a2576136a1613645565b5b92915050565b60008160001c9050919050565b600073ffffffffffffffffffffffffffffffffffffffff82169050919050565b60006136e86136e3836136a8565b6136b5565b9050919050565b6000819050919050565b600061370c613707836136a8565b6136ef565b9050919050565b60008190508160005260206000209050919050565b600081546137358161342f565b61373f8186612c18565b9450600182166000811461375a5760018114613770576137a3565b60ff1983168652811515602002860193506137a3565b61377985613713565b60005b8381101561379b5781548189015260018201915060208101905061377c565b808801955050505b50505092915050565b60008190508160005260206000209050919050565b600081546137ce8161342f565b6137d88186612c6d565b945060018216600081146137f357600181146138095761383c565b60ff19831686528115156020028601935061383c565b613812856137ac565b60005b8381101561383457815481890152600182019150602081019050613815565b808801955050505b50505092915050565b600060ff82169050919050565b6000613865613860836136a8565b613845565b9050919050565b600081549050919050565b60008190508160005260206000209050919050565b6060820160008083015490506138a1816136f9565b6138ae6000860182612c09565b50600183015490506138bf816136d5565b6138cc6020860182612bfa565b50600283015490506138dd816136f9565b6138ea6040860182612c09565b5050505050565b60006138fd838361388c565b60608301905092915050565b6000600382019050919050565b60006139218261386c565b61392b8185612cd1565b935061393683613877565b8060005b83811015613966578161394d88826138f1565b975061395883613909565b92505060018101905061393a565b5085935050505092915050565b60006101608301600080840154905061398b816136d5565b6139986000870182612bfa565b50600184015490506139a9816136f9565b6139b66020870182612c09565b506002840185830360408701526139cd8382613728565b9250506003840185830360608701526139e68382613728565b9250506004840185830360808701526139ff83826137c1565b92505060058401549050613a12816136f9565b613a1f60a0870182612c09565b5060068401549050613a30816136f9565b613a3d60c0870182612c09565b5060078401549050613a4e816136f9565b613a5b60e0870182612c09565b5060088401549050613a6c81613852565b613a7a610100870182612cb7565b5060098401549050613a8b816136f9565b613a99610120870182612c09565b50600a8401858303610140870152613ab18382613916565b925050819250505092915050565b6000604082019050613ad46000830185612ba4565b8181036020830152613ae68184613973565b90509392505050565b7f4552433732313a20696e76616c696420746f6b656e2049440000000000000000600082015250565b6000613b2560188361297f565b9150613b3082613aef565b602082019050919050565b60006020820190508181036000830152613b5481613b18565b9050919050565b7f4552433732313a2061646472657373207a65726f206973206e6f74206120766160008201527f6c6964206f776e65720000000000000000000000000000000000000000000000602082015250565b6000613bb760298361297f565b9150613bc282613b5b565b604082019050919050565b60006020820190508181036000830152613be681613baa565b9050919050565b600081905092915050565b6000613c0382612974565b613c0d8185613bed565b9350613c1d818560208601612990565b80840191505092915050565b6000613c358285613bf8565b9150613c418284613bf8565b91508190509392505050565b7f4f776e61626c653a206e6577206f776e657220697320746865207a65726f206160008201527f6464726573730000000000000000000000000000000000000000000000000000602082015250565b6000613ca960268361297f565b9150613cb482613c4d565b604082019050919050565b60006020820190508181036000830152613cd881613c9c565b9050919050565b600082905092915050565b60006020601f8301049050919050565b600082821b905092915050565b600060088302613d377fffffffffffffffffffffffffffffffffffffffffffffffffffffffffffffffff82613cfa565b613d418683613cfa565b95508019841693508086168417925050509392505050565b6000819050919050565b6000613d7e613d79613d7484612a26565b613d59565b612a26565b9050919050565b6000819050919050565b613d9883613d63565b613dac613da482613d85565b848454613d07565b825550505050565b600090565b613dc1613db4565b613dcc818484613d8f565b505050565b5b81811015613df057613de5600082613db9565b600181019050613dd2565b5050565b601f821115613e3557613e0681613713565b613e0f84613cea565b81016020851015613e1e578190505b613e32613e2a85613cea565b830182613dd1565b50505b505050565b600082821c905092915050565b6000613e5860001984600802613e3a565b1980831691505092915050565b6000613e718383613e47565b9150826002028217905092915050565b613e8b8383613cdf565b67ffffffffffffffff811115613ea457613ea3613016565b5b613eae825461342f565b613eb9828285613df4565b6000601f831160018114613ee85760008415613ed6578287013590505b613ee08582613e65565b865550613f48565b601f198416613ef686613713565b60005b82811015613f1e57848901358255600182019150602085019450602081019050613ef9565b86831015613f3b5784890135613f37601f891682613e47565b8355505b6001600288020188555050505b50505050505050565b600082905092915050565b601f821115613f9d57613f6e816137ac565b613f7784613cea565b81016020851015613f86578190505b613f9a613f9285613cea565b830182613dd1565b50505b505050565b613fac8383613f51565b67ffffffffffffffff811115613fc557613fc4613016565b5b613fcf825461342f565b613fda828285613f5c565b6000601f8311600181146140095760008415613ff7578287013590505b6140018582613e65565b865550614069565b601f198416614017866137ac565b60005b8281101561403f5784890135825560018201915060208501945060208101905061401a565b8683101561405c5784890135614058601f891682613e47565b8355505b6001600288020188555050505b50505050505050565b6000815490506140818161342f565b9050919050565b81810361409657505061416e565b61409f82614072565b67ffffffffffffffff8111156140b8576140b7613016565b5b6140c2825461342f565b6140cd828285613df4565b6000601f8311600181146140fc57600084156140ea578287015490505b6140f48582613e65565b865550614167565b601f19841661410a87613713565b965061411586613713565b60005b8281101561413d57848901548255600182019150600185019450602081019050614118565b8683101561415a5784890154614156601f891682613e47565b8355505b6001600288020188555050505b5050505050505b565b60008154905061417f8161342f565b9050919050565b81810361419457505061426c565b61419d82614170565b67ffffffffffffffff8111156141b6576141b5613016565b5b6141c0825461342f565b6141cb828285613f5c565b6000601f8311600181146141fa57600084156141e8578287015490505b6141f28582613e65565b865550614265565b601f198416614208876137ac565b9650614213866137ac565b60005b8281101561423b57848901548255600182019150600185019450602081019050614216565b868310156142585784890154614254601f891682613e47565b8355505b6001600288020188555050505b5050505050505b565b7f4552433732313a207472616e736665722066726f6d20696e636f72726563742060008201527f6f776e6572000000000000000000000000000000000000000000000000000000602082015250565b60006142ca60258361297f565b91506142d58261426e565b604082019050919050565b600060208201905081810360008301526142f9816142bd565b9050919050565b7f4552433732313a207472616e7366657220746f20746865207a65726f2061646460008201527f7265737300000000000000000000000000000000000000000000000000000000602082015250565b600061435c60248361297f565b915061436782614300565b604082019050919050565b6000602082019050818103600083015261438b8161434f565b9050919050565b7f4552433732313a206d696e7420746f20746865207a65726f2061646472657373600082015250565b60006143c860208361297f565b91506143d382614392565b602082019050919050565b600060208201905081810360008301526143f7816143bb565b9050919050565b7f4552433732313a20746f6b656e20616c7265616479206d696e74656400000000600082015250565b6000614434601c8361297f565b915061443f826143fe565b602082019050919050565b6000602082019050818103600083015261446381614427565b9050919050565b7f4f776e61626c653a2063616c6c6572206973206e6f7420746865206f776e6572600082015250565b60006144a060208361297f565b91506144ab8261446a565b602082019050919050565b600060208201905081810360008301526144cf81614493565b9050919050565b7f4552433732313a20617070726f766520746f2063616c6c657200000000000000600082015250565b600061450c60198361297f565b9150614517826144d6565b602082019050919050565b6000602082019050818103600083015261453b816144ff565b9050919050565b7f4552433732313a207472616e7366657220746f206e6f6e20455243373231526560008201527f63656976657220696d706c656d656e7465720000000000000000000000000000602082015250565b600061459e60328361297f565b91506145a982614542565b604082019050919050565b600060208201905081810360008301526145cd81614591565b9050919050565b7f45524337323155524953746f726167653a2055524920736574206f66206e6f6e60008201527f6578697374656e7420746f6b656e000000000000000000000000000000000000602082015250565b6000614630602e8361297f565b915061463b826145d4565b604082019050919050565b6000602082019050818103600083015261465f81614623565b9050919050565b61466f82612974565b67ffffffffffffffff81111561468857614687613016565b5b614692825461342f565b61469d828285613df4565b600060209050601f8311600181146146d057600084156146be578287015190505b6146c88582613e65565b865550614730565b601f1984166146de86613713565b60005b82811015614706578489015182556001820191506020850194506020810190506146e1565b86831015614723578489015161471f601f891682613e47565b8355505b6001600288020188555050505b505050505050565b600061474382612a26565b915061474e83612a26565b925082820390508181111561476657614765613645565b5b92915050565b600082825260208201905092915050565b600061478882612c62565b614792818561476c565b93506147a2818560208601612990565b6147ab816129ba565b840191505092915050565b60006080820190506147cb6000830187612abb565b6147d86020830186612abb565b6147e56040830185612ba4565b81810360608301526147f7818461477d565b905095945050505050565b600081519050614811816128e5565b92915050565b60006020828403121561482d5761482c6128af565b5b600061483b84828501614802565b91505092915050565b7f4e487b7100000000000000000000000000000000000000000000000000000000600052601260045260246000fdfea26469706673582212204c9c697c6cd986830859aa4f955d98074a79f1547f3575f36997787d594a728464736f6c63430008110033",
  "linkReferences": {},
  "deployedLinkReferences": {}
}