{
  "_format": "hh-sol-artifact-1",
  "contractName": "Donation",
  "sourceName": "contracts/Donation.sol",
  "abi": [
    {
      "inputs": [],
      "stateMutability": "payable",
      "type": "constructor"
    },
    {
      "anonymous": false,
      "inputs": [
        {
          "indexed": true,
          "internalType": "address",
          "name": "owner",
          "type": "address"
        },
        {
          "indexed": true,
          "internalType": "address",
          "name": "approved",
          "type": "address"
        },
        {
          "indexed": true,
          "internalType": "uint256",
          "name": "tokenId",
          "type": "uint256"
        }
      ],
      "name": "Approval",
      "type": "event"
    },
    {
      "anonymous": false,
      "inputs": [
        {
          "indexed": true,
          "internalType": "address",
          "name": "owner",
          "type": "address"
        },
        {
          "indexed": true,
          "internalType": "address",
          "name": "operator",
          "type": "address"
        },
        {
          "indexed": false,
          "internalType": "bool",
          "name": "approved",
          "type": "bool"
        }
      ],
      "name": "ApprovalForAll",
      "type": "event"
    },
    {
      "anonymous": false,
      "inputs": [
        {
          "indexed": false,
          "internalType": "uint256",
          "name": "syncid",
          "type": "uint256"
        },
        {
          "components": [
            {
              "internalType": "address",
              "name": "provider",
              "type": "address"
            },
            {
              "internalType": "uint256",
              "name": "posttime",
              "type": "uint256"
            },
            {
              "internalType": "string",
              "name": "title",
              "type": "string"
            },
            {
              "internalType": "string",
              "name": "imgurl",
              "type": "string"
            },
            {
              "internalType": "bytes",
              "name": "desc",
              "type": "bytes"
            },
            {
              "internalType": "uint256",
              "name": "maxvalue",
              "type": "uint256"
            },
            {
              "internalType": "uint256",
              "name": "currvalue",
              "type": "uint256"
            },
            {
              "internalType": "uint256",
              "name": "rewardid",
              "type": "uint256"
            },
            {
              "internalType": "bool",
              "name": "owned",
              "type": "bool"
            },
            {
              "internalType": "uint256",
              "name": "rewardvalue",
              "type": "uint256"
            },
            {
              "components": [
                {
                  "internalType": "uint256",
                  "name": "donortime",
                  "type": "uint256"
                },
                {
                  "internalType": "address",
                  "name": "donors",
                  "type": "address"
                },
                {
                  "internalType": "uint256",
                  "name": "valueofdonors",
                  "type": "uint256"
                }
              ],
              "internalType": "struct Donation.Transaction[]",
              "name": "transactions",
              "type": "tuple[]"
            }
          ],
          "indexed": false,
          "internalType": "struct Donation.DonationPost",
          "name": "newerpost",
          "type": "tuple"
        }
      ],
      "name": "NewWave",
      "type": "event"
    },
    {
      "anonymous": false,
      "inputs": [
        {
          "indexed": true,
          "internalType": "address",
          "name": "previousOwner",
          "type": "address"
        },
        {
          "indexed": true,
          "internalType": "address",
          "name": "newOwner",
          "type": "address"
        }
      ],
      "name": "OwnershipTransferred",
      "type": "event"
    },
    {
      "anonymous": false,
      "inputs": [
        {
          "indexed": true,
          "internalType": "address",
          "name": "from",
          "type": "address"
        },
        {
          "indexed": true,
          "internalType": "address",
          "name": "to",
          "type": "address"
        },
        {
          "indexed": true,
          "internalType": "uint256",
          "name": "tokenId",
          "type": "uint256"
        }
      ],
      "name": "Transfer",
      "type": "event"
    },
    {
      "inputs": [],
      "name": "alamatA",
      "outputs": [
        {
          "internalType": "address",
          "name": "",
          "type": "address"
        }
      ],
      "stateMutability": "view",
      "type": "function"
    },
    {
      "inputs": [
        {
          "internalType": "address",
          "name": "to",
          "type": "address"
        },
        {
          "internalType": "uint256",
          "name": "tokenId",
          "type": "uint256"
        }
      ],
      "name": "approve",
      "outputs": [],
      "stateMutability": "nonpayable",
      "type": "function"
    },
    {
      "inputs": [
        {
          "internalType": "address",
          "name": "owner",
          "type": "address"
        }
      ],
      "name": "balanceOf",
      "outputs": [
        {
          "internalType": "uint256",
          "name": "",
          "type": "uint256"
        }
      ],
      "stateMutability": "view",
      "type": "function"
    },
    {
      "inputs": [],
      "name": "cektime",
      "outputs": [
        {
          "internalType": "uint256",
          "name": "",
          "type": "uint256"
        }
      ],
      "stateMutability": "view",
      "type": "function"
    },
    {
      "inputs": [],
      "name": "cetakaja",
      "outputs": [],
      "stateMutability": "payable",
      "type": "function"
    },
    {
      "inputs": [
        {
          "internalType": "string",
          "name": "title",
          "type": "string"
        },
        {
          "internalType": "string",
          "name": "imgurl",
          "type": "string"
        },
        {
          "internalType": "bytes",
          "name": "desc",
          "type": "bytes"
        },
        {
          "internalType": "bytes32",
          "name": "maxvalue",
          "type": "bytes32"
        },
        {
          "internalType": "string",
          "name": "nfturl",
          "type": "string"
        },
        {
          "internalType": "bytes32",
          "name": "rewardvalue",
          "type": "bytes32"
        }
      ],
      "name": "createpost",
      "outputs": [],
      "stateMutability": "nonpayable",
      "type": "function"
    },
    {
      "inputs": [
        {
          "internalType": "uint256",
          "name": "tokenId",
          "type": "uint256"
        }
      ],
      "name": "getApproved",
      "outputs": [
        {
          "internalType": "address",
          "name": "",
          "type": "address"
        }
      ],
      "stateMutability": "view",
      "type": "function"
    },
    {
      "inputs": [
        {
          "internalType": "uint256",
          "name": "pid1",
          "type": "uint256"
        }
      ],
      "name": "gotMoney",
      "outputs": [],
      "stateMutability": "payable",
      "type": "function"
    },
    {
      "inputs": [
        {
          "internalType": "address",
          "name": "owner",
          "type": "address"
        },
        {
          "internalType": "address",
          "name": "operator",
          "type": "address"
        }
      ],
      "name": "isApprovedForAll",
      "outputs": [
        {
          "internalType": "bool",
          "name": "",
          "type": "bool"
        }
      ],
      "stateMutability": "view",
      "type": "function"
    },
    {
      "inputs": [
        {
          "internalType": "uint256",
          "name": "tokenid",
          "type": "uint256"
        }
      ],
      "name": "kirimaja",
      "outputs": [],
      "stateMutability": "payable",
      "type": "function"
    },
    {
      "inputs": [],
      "name": "name",
      "outputs": [
        {
          "internalType": "string",
          "name": "",
          "type": "string"
        }
      ],
      "stateMutability": "view",
      "type": "function"
    },
    {
      "inputs": [],
      "name": "owner",
      "outputs": [
        {
          "internalType": "address",
          "name": "",
          "type": "address"
        }
      ],
      "stateMutability": "view",
      "type": "function"
    },
    {
      "inputs": [
        {
          "internalType": "uint256",
          "name": "tokenId",
          "type": "uint256"
        }
      ],
      "name": "ownerOf",
      "outputs": [
        {
          "internalType": "address",
          "name": "",
          "type": "address"
        }
      ],
      "stateMutability": "view",
      "type": "function"
    },
    {
      "inputs": [],
      "name": "renounceOwnership",
      "outputs": [],
      "stateMutability": "nonpayable",
      "type": "function"
    },
    {
      "inputs": [
        {
          "internalType": "address",
          "name": "from",
          "type": "address"
        },
        {
          "internalType": "address",
          "name": "to",
          "type": "address"
        },
        {
          "internalType": "uint256",
          "name": "tokenId",
          "type": "uint256"
        }
      ],
      "name": "safeTransferFrom",
      "outputs": [],
      "stateMutability": "nonpayable",
      "type": "function"
    },
    {
      "inputs": [
        {
          "internalType": "address",
          "name": "from",
          "type": "address"
        },
        {
          "internalType": "address",
          "name": "to",
          "type": "address"
        },
        {
          "internalType": "uint256",
          "name": "tokenId",
          "type": "uint256"
        },
        {
          "internalType": "bytes",
          "name": "data",
          "type": "bytes"
        }
      ],
      "name": "safeTransferFrom",
      "outputs": [],
      "stateMutability": "nonpayable",
      "type": "function"
    },
    {
      "inputs": [
        {
          "internalType": "address",
          "name": "operator",
          "type": "address"
        },
        {
          "internalType": "bool",
          "name": "approved",
          "type": "bool"
        }
      ],
      "name": "setApprovalForAll",
      "outputs": [],
      "stateMutability": "nonpayable",
      "type": "function"
    },
    {
      "inputs": [
        {
          "internalType": "bytes4",
          "name": "interfaceId",
          "type": "bytes4"
        }
      ],
      "name": "supportsInterface",
      "outputs": [
        {
          "internalType": "bool",
          "name": "",
          "type": "bool"
        }
      ],
      "stateMutability": "view",
      "type": "function"
    },
    {
      "inputs": [],
      "name": "symbol",
      "outputs": [
        {
          "internalType": "string",
          "name": "",
          "type": "string"
        }
      ],
      "stateMutability": "view",
      "type": "function"
    },
    {
      "inputs": [],
      "name": "syncdonation",
      "outputs": [
        {
          "components": [
            {
              "internalType": "address",
              "name": "provider",
              "type": "address"
            },
            {
              "internalType": "uint256",
              "name": "posttime",
              "type": "uint256"
            },
            {
              "internalType": "string",
              "name": "title",
              "type": "string"
            },
            {
              "internalType": "string",
              "name": "imgurl",
              "type": "string"
            },
            {
              "internalType": "bytes",
              "name": "desc",
              "type": "bytes"
            },
            {
              "internalType": "uint256",
              "name": "maxvalue",
              "type": "uint256"
            },
            {
              "internalType": "uint256",
              "name": "currvalue",
              "type": "uint256"
            },
            {
              "internalType": "uint256",
              "name": "rewardid",
              "type": "uint256"
            },
            {
              "internalType": "bool",
              "name": "owned",
              "type": "bool"
            },
            {
              "internalType": "uint256",
              "name": "rewardvalue",
              "type": "uint256"
            },
            {
              "components": [
                {
                  "internalType": "uint256",
                  "name": "donortime",
                  "type": "uint256"
                },
                {
                  "internalType": "address",
                  "name": "donors",
                  "type": "address"
                },
                {
                  "internalType": "uint256",
                  "name": "valueofdonors",
                  "type": "uint256"
                }
              ],
              "internalType": "struct Donation.Transaction[]",
              "name": "transactions",
              "type": "tuple[]"
            }
          ],
          "internalType": "struct Donation.DonationPost[]",
          "name": "",
          "type": "tuple[]"
        }
      ],
      "stateMutability": "view",
      "type": "function"
    },
    {
      "inputs": [
        {
          "internalType": "uint256",
          "name": "tokenId",
          "type": "uint256"
        }
      ],
      "name": "tokenURI",
      "outputs": [
        {
          "internalType": "string",
          "name": "",
          "type": "string"
        }
      ],
      "stateMutability": "view",
      "type": "function"
    },
    {
      "inputs": [
        {
          "internalType": "address",
          "name": "from",
          "type": "address"
        },
        {
          "internalType": "address",
          "name": "to",
          "type": "address"
        },
        {
          "internalType": "uint256",
          "name": "tokenId",
          "type": "uint256"
        }
      ],
      "name": "transferFrom",
      "outputs": [],
      "stateMutability": "nonpayable",
      "type": "function"
    },
    {
      "inputs": [
        {
          "internalType": "address",
          "name": "newOwner",
          "type": "address"
        }
      ],
      "name": "transferOwnership",
      "outputs": [],
      "stateMutability": "nonpayable",
      "type": "function"
    }
  ],
  "bytecode": "0x60806040526040518060400160405280600f81526020017f446f6e6174696f6e2052657761726400000000000000000000000000000000008152506040518060400160405280600281526020017f445200000000000000000000000000000000000000000000000000000000000081525081600090816200008191906200047e565b5080600190816200009391906200047e565b505050620000b6620000aa6200010c60201b60201c565b6200011460201b60201c565b620000c6620001da60201b60201c565b600860006101000a81548173ffffffffffffffffffffffffffffffffffffffff021916908373ffffffffffffffffffffffffffffffffffffffff16021790555062000565565b600033905090565b6000600760009054906101000a900473ffffffffffffffffffffffffffffffffffffffff16905081600760006101000a81548173ffffffffffffffffffffffffffffffffffffffff021916908373ffffffffffffffffffffffffffffffffffffffff1602179055508173ffffffffffffffffffffffffffffffffffffffff168173ffffffffffffffffffffffffffffffffffffffff167f8be0079c531659141344cd1fd0a4f28419497f9722a3daafe3b4186f6b6457e060405160405180910390a35050565b6000600760009054906101000a900473ffffffffffffffffffffffffffffffffffffffff16905090565b600081519050919050565b7f4e487b7100000000000000000000000000000000000000000000000000000000600052604160045260246000fd5b7f4e487b7100000000000000000000000000000000000000000000000000000000600052602260045260246000fd5b600060028204905060018216806200028657607f821691505b6020821081036200029c576200029b6200023e565b5b50919050565b60008190508160005260206000209050919050565b60006020601f8301049050919050565b600082821b905092915050565b600060088302620003067fffffffffffffffffffffffffffffffffffffffffffffffffffffffffffffffff82620002c7565b620003128683620002c7565b95508019841693508086168417925050509392505050565b6000819050919050565b6000819050919050565b60006200035f6200035962000353846200032a565b62000334565b6200032a565b9050919050565b6000819050919050565b6200037b836200033e565b620003936200038a8262000366565b848454620002d4565b825550505050565b600090565b620003aa6200039b565b620003b781848462000370565b505050565b5b81811015620003df57620003d3600082620003a0565b600181019050620003bd565b5050565b601f8211156200042e57620003f881620002a2565b6200040384620002b7565b8101602085101562000413578190505b6200042b6200042285620002b7565b830182620003bc565b50505b505050565b600082821c905092915050565b6000620004536000198460080262000433565b1980831691505092915050565b60006200046e838362000440565b9150826002028217905092915050565b620004898262000204565b67ffffffffffffffff811115620004a557620004a46200020f565b5b620004b182546200026d565b620004be828285620003e3565b600060209050601f831160018114620004f65760008415620004e1578287015190505b620004ed858262000460565b8655506200055d565b601f1984166200050686620002a2565b60005b82811015620005305784890151825560018201915060208501945060208101905062000509565b868310156200055057848901516200054c601f89168262000440565b8355505b6001600288020188555050505b505050505050565b61486e80620005756000396000f3fe6080604052600436106101405760003560e01c80635da2e6b3116100b6578063a22cb4651161006f578063a22cb4651461040f578063b88d4fde14610438578063c87b56dd14610461578063e985e9c51461049e578063f2fde38b146104db578063f4af1d931461050457610140565b80635da2e6b3146102fd5780636352211e1461032857806370a0823114610365578063715018a6146103a25780638da5cb5b146103b957806395d89b41146103e457610140565b806323b872dd1161010857806323b872dd1461023e57806326c5b9961461026757806342842e0e146102715780634de729e41461029a57806350469e8b146102c55780635bb0b24b146102e157610140565b806301ffc9a71461014557806306fdde0314610182578063081812fc146101ad578063095ea7b3146101ea578063225dfb5c14610213575b600080fd5b34801561015157600080fd5b5061016c600480360381019061016791906128d6565b61052d565b604051610179919061291e565b60405180910390f35b34801561018e57600080fd5b5061019761060f565b6040516101a491906129c9565b60405180910390f35b3480156101b957600080fd5b506101d460048036038101906101cf9190612a21565b6106a1565b6040516101e19190612a8f565b60405180910390f35b3480156101f657600080fd5b50610211600480360381019061020c9190612ad6565b6106e7565b005b34801561021f57600080fd5b506102286107fe565b6040516102359190612a8f565b60405180910390f35b34801561024a57600080fd5b5061026560048036038101906102609190612b16565b610824565b005b61026f610884565b005b34801561027d57600080fd5b5061029860048036038101906102939190612b16565b6108a9565b005b3480156102a657600080fd5b506102af6108c9565b6040516102bc9190612eec565b60405180910390f35b6102df60048036038101906102da9190612a21565b610c4b565b005b6102fb60048036038101906102f69190612a21565b610f31565b005b34801561030957600080fd5b50610312610f3f565b60405161031f9190612f1d565b60405180910390f35b34801561033457600080fd5b5061034f600480360381019061034a9190612a21565b610f47565b60405161035c9190612a8f565b60405180910390f35b34801561037157600080fd5b5061038c60048036038101906103879190612f38565b610fcd565b6040516103999190612f1d565b60405180910390f35b3480156103ae57600080fd5b506103b7611084565b005b3480156103c557600080fd5b506103ce611098565b6040516103db9190612a8f565b60405180910390f35b3480156103f057600080fd5b506103f96110c2565b60405161040691906129c9565b60405180910390f35b34801561041b57600080fd5b5061043660048036038101906104319190612f91565b611154565b005b34801561044457600080fd5b5061045f600480360381019061045a9190613106565b61116a565b005b34801561046d57600080fd5b5061048860048036038101906104839190612a21565b6111cc565b60405161049591906129c9565b60405180910390f35b3480156104aa57600080fd5b506104c560048036038101906104c09190613189565b6112de565b6040516104d2919061291e565b60405180910390f35b3480156104e757600080fd5b5061050260048036038101906104fd9190612f38565b611372565b005b34801561051057600080fd5b5061052b600480360381019061052691906132b5565b6113f5565b005b60007f80ac58cd000000000000000000000000000000000000000000000000000000007bffffffffffffffffffffffffffffffffffffffffffffffffffffffff1916827bffffffffffffffffffffffffffffffffffffffffffffffffffffffff191614806105f857507f5b5e139f000000000000000000000000000000000000000000000000000000007bffffffffffffffffffffffffffffffffffffffffffffffffffffffff1916827bffffffffffffffffffffffffffffffffffffffffffffffffffffffff1916145b80610608575061060782611697565b5b9050919050565b60606000805461061e906133f4565b80601f016020809104026020016040519081016040528092919081815260200182805461064a906133f4565b80156106975780601f1061066c57610100808354040283529160200191610697565b820191906000526020600020905b81548152906001019060200180831161067a57829003601f168201915b5050505050905090565b60006106ac82611701565b6004600083815260200190815260200160002060009054906101000a900473ffffffffffffffffffffffffffffffffffffffff169050919050565b60006106f282610f47565b90508073ffffffffffffffffffffffffffffffffffffffff168373ffffffffffffffffffffffffffffffffffffffff1603610762576040517f08c379a000000000000000000000000000000000000000000000000000000000815260040161075990613497565b60405180910390fd5b8073ffffffffffffffffffffffffffffffffffffffff1661078161174c565b73ffffffffffffffffffffffffffffffffffffffff1614806107b057506107af816107aa61174c565b6112de565b5b6107ef576040517f08c379a00000000000000000000000000000000000000000000000000000000081526004016107e690613529565b60405180910390fd5b6107f98383611754565b505050565b600860009054906101000a900473ffffffffffffffffffffffffffffffffffffffff1681565b61083561082f61174c565b8261180d565b610874576040517f08c379a000000000000000000000000000000000000000000000000000000000815260040161086b906135bb565b60405180910390fd5b61087f8383836118a2565b505050565b60006108906009611b9b565b905061089c3082611ba9565b6108a66009611dc6565b50565b6108c48383836040518060200160405280600081525061116a565b505050565b60606015805480602002602001604051908101604052809291908181526020016000905b82821015610c4257838290600052602060002090600b0201604051806101600160405290816000820160009054906101000a900473ffffffffffffffffffffffffffffffffffffffff1673ffffffffffffffffffffffffffffffffffffffff1673ffffffffffffffffffffffffffffffffffffffff16815260200160018201548152602001600282018054610981906133f4565b80601f01602080910402602001604051908101604052809291908181526020018280546109ad906133f4565b80156109fa5780601f106109cf576101008083540402835291602001916109fa565b820191906000526020600020905b8154815290600101906020018083116109dd57829003601f168201915b50505050508152602001600382018054610a13906133f4565b80601f0160208091040260200160405190810160405280929190818152602001828054610a3f906133f4565b8015610a8c5780601f10610a6157610100808354040283529160200191610a8c565b820191906000526020600020905b815481529060010190602001808311610a6f57829003601f168201915b50505050508152602001600482018054610aa5906133f4565b80601f0160208091040260200160405190810160405280929190818152602001828054610ad1906133f4565b8015610b1e5780601f10610af357610100808354040283529160200191610b1e565b820191906000526020600020905b815481529060010190602001808311610b0157829003601f168201915b505050505081526020016005820154815260200160068201548152602001600782015481526020016008820160009054906101000a900460ff1615151515815260200160098201548152602001600a8201805480602002602001604051908101604052809291908181526020016000905b82821015610c2b5783829060005260206000209060030201604051806060016040529081600082015481526020016001820160009054906101000a900473ffffffffffffffffffffffffffffffffffffffff1673ffffffffffffffffffffffffffffffffffffffff1673ffffffffffffffffffffffffffffffffffffffff16815260200160028201548152505081526020019060010190610b8f565b5050505081525050815260200190600101906108ed565b50505050905090565b600060158281548110610c6157610c606135db565b5b90600052602060002090600b020160000160009054906101000a900473ffffffffffffffffffffffffffffffffffffffff1690508073ffffffffffffffffffffffffffffffffffffffff166108fc349081150290604051600060405180830381858888f19350505050158015610cdb573d6000803e3d6000fd5b503460158381548110610cf157610cf06135db565b5b90600052602060002090600b02016006016000828254610d119190613639565b9250508190555060158281548110610d2c57610d2b6135db565b5b90600052602060002090600b0201600a0160405180606001604052804281526020013373ffffffffffffffffffffffffffffffffffffffff1681526020013481525090806001815401808255809150506001900390600052602060002090600302016000909190919091506000820151816000015560208201518160010160006101000a81548173ffffffffffffffffffffffffffffffffffffffff021916908373ffffffffffffffffffffffffffffffffffffffff1602179055506040820151816002015550506000151560158381548110610e0c57610e0b6135db565b5b90600052602060002090600b020160080160009054906101000a900460ff161515148015610e5f57503460158381548110610e4a57610e496135db565b5b90600052602060002090600b02016009015411155b15610ed357610e94303360158581548110610e7d57610e7c6135db565b5b90600052602060002090600b0201600701546118a2565b600160158381548110610eaa57610ea96135db565b5b90600052602060002090600b020160080160006101000a81548160ff0219169083151502179055505b7f2e299ab32f3329cae0b12b47dfaf252986a1883bbe22bd1c972e4fcabf14ca228260158481548110610f0957610f086135db565b5b90600052602060002090600b0201604051610f25929190613a84565b60405180910390a15050565b610f3c3033836118a2565b50565b600042905090565b600080610f5383611ddc565b9050600073ffffffffffffffffffffffffffffffffffffffff168173ffffffffffffffffffffffffffffffffffffffff1603610fc4576040517f08c379a0000000000000000000000000000000000000000000000000000000008152600401610fbb90613b00565b60405180910390fd5b80915050919050565b60008073ffffffffffffffffffffffffffffffffffffffff168273ffffffffffffffffffffffffffffffffffffffff160361103d576040517f08c379a000000000000000000000000000000000000000000000000000000000815260040161103490613b92565b60405180910390fd5b600360008373ffffffffffffffffffffffffffffffffffffffff1673ffffffffffffffffffffffffffffffffffffffff168152602001908152602001600020549050919050565b61108c611e19565b6110966000611e97565b565b6000600760009054906101000a900473ffffffffffffffffffffffffffffffffffffffff16905090565b6060600180546110d1906133f4565b80601f01602080910402602001604051908101604052809291908181526020018280546110fd906133f4565b801561114a5780601f1061111f5761010080835404028352916020019161114a565b820191906000526020600020905b81548152906001019060200180831161112d57829003601f168201915b5050505050905090565b61116661115f61174c565b8383611f5d565b5050565b61117b61117561174c565b8361180d565b6111ba576040517f08c379a00000000000000000000000000000000000000000000000000000000081526004016111b1906135bb565b60405180910390fd5b6111c6848484846120c9565b50505050565b60606111d782611701565b60006006600084815260200190815260200160002080546111f7906133f4565b80601f0160208091040260200160405190810160405280929190818152602001828054611223906133f4565b80156112705780601f1061124557610100808354040283529160200191611270565b820191906000526020600020905b81548152906001019060200180831161125357829003601f168201915b505050505090506000611281612125565b905060008151036112965781925050506112d9565b6000825111156112cb5780826040516020016112b3929190613bee565b604051602081830303815290604052925050506112d9565b6112d48461213c565b925050505b919050565b6000600560008473ffffffffffffffffffffffffffffffffffffffff1673ffffffffffffffffffffffffffffffffffffffff16815260200190815260200160002060008373ffffffffffffffffffffffffffffffffffffffff1673ffffffffffffffffffffffffffffffffffffffff16815260200190815260200160002060009054906101000a900460ff16905092915050565b61137a611e19565b600073ffffffffffffffffffffffffffffffffffffffff168173ffffffffffffffffffffffffffffffffffffffff16036113e9576040517f08c379a00000000000000000000000000000000000000000000000000000000081526004016113e090613c84565b60405180910390fd5b6113f281611e97565b50565b60006114016009611b9b565b905061140d3082611ba9565b33600a60000160006101000a81548173ffffffffffffffffffffffffffffffffffffffff021916908373ffffffffffffffffffffffffffffffffffffffff16021790555042600a600101819055508a8a600a600201918261146f929190613e46565b508888600a6003019182611484929190613e46565b508686600a6004019182611499929190613f67565b508460001c600a600501819055506000600a6006018190555080600a600701819055506000600a60080160006101000a81548160ff0219169083151502179055508160001c600a600901819055506115358185858080601f016020809104026020016040519081016040528093929190818152602001838380828437600081840152601f19601f820116905080830192505050505050506121a4565b61153f6009611dc6565b6015600a90806001815401808255809150506001900390600052602060002090600b02016000909190919091506000820160009054906101000a900473ffffffffffffffffffffffffffffffffffffffff168160000160006101000a81548173ffffffffffffffffffffffffffffffffffffffff021916908373ffffffffffffffffffffffffffffffffffffffff16021790555060018201548160010155600282018160020190816115f1919061404d565b5060038201816003019081611606919061404d565b506004820181600401908161161b919061414b565b506005820154816005015560068201548160060155600782015481600701556008820160009054906101000a900460ff168160080160006101000a81548160ff02191690831515021790555060098201548160090155600a820181600a01908054611687929190612749565b5050505050505050505050505050565b60007f01ffc9a7000000000000000000000000000000000000000000000000000000007bffffffffffffffffffffffffffffffffffffffffffffffffffffffff1916827bffffffffffffffffffffffffffffffffffffffffffffffffffffffff1916149050919050565b61170a81612211565b611749576040517f08c379a000000000000000000000000000000000000000000000000000000000815260040161174090613b00565b60405180910390fd5b50565b600033905090565b816004600083815260200190815260200160002060006101000a81548173ffffffffffffffffffffffffffffffffffffffff021916908373ffffffffffffffffffffffffffffffffffffffff160217905550808273ffffffffffffffffffffffffffffffffffffffff166117c783610f47565b73ffffffffffffffffffffffffffffffffffffffff167f8c5be1e5ebec7d5bd14f71427d1e84f3dd0314c0f7b2291e5b200ac8c7c3b92560405160405180910390a45050565b60008061181983610f47565b90508073ffffffffffffffffffffffffffffffffffffffff168473ffffffffffffffffffffffffffffffffffffffff16148061185b575061185a81856112de565b5b8061189957508373ffffffffffffffffffffffffffffffffffffffff16611881846106a1565b73ffffffffffffffffffffffffffffffffffffffff16145b91505092915050565b8273ffffffffffffffffffffffffffffffffffffffff166118c282610f47565b73ffffffffffffffffffffffffffffffffffffffff1614611918576040517f08c379a000000000000000000000000000000000000000000000000000000000815260040161190f906142a5565b60405180910390fd5b600073ffffffffffffffffffffffffffffffffffffffff168273ffffffffffffffffffffffffffffffffffffffff1603611987576040517f08c379a000000000000000000000000000000000000000000000000000000000815260040161197e90614337565b60405180910390fd5b6119948383836001612252565b8273ffffffffffffffffffffffffffffffffffffffff166119b482610f47565b73ffffffffffffffffffffffffffffffffffffffff1614611a0a576040517f08c379a0000000000000000000000000000000000000000000000000000000008152600401611a01906142a5565b60405180910390fd5b6004600082815260200190815260200160002060006101000a81549073ffffffffffffffffffffffffffffffffffffffff02191690556001600360008573ffffffffffffffffffffffffffffffffffffffff1673ffffffffffffffffffffffffffffffffffffffff168152602001908152602001600020600082825403925050819055506001600360008473ffffffffffffffffffffffffffffffffffffffff1673ffffffffffffffffffffffffffffffffffffffff16815260200190815260200160002060008282540192505081905550816002600083815260200190815260200160002060006101000a81548173ffffffffffffffffffffffffffffffffffffffff021916908373ffffffffffffffffffffffffffffffffffffffff160217905550808273ffffffffffffffffffffffffffffffffffffffff168473ffffffffffffffffffffffffffffffffffffffff167fddf252ad1be2c89b69c2b068fc378daa952ba7f163c4a11628f55a4df523b3ef60405160405180910390a4611b968383836001612378565b505050565b600081600001549050919050565b600073ffffffffffffffffffffffffffffffffffffffff168273ffffffffffffffffffffffffffffffffffffffff1603611c18576040517f08c379a0000000000000000000000000000000000000000000000000000000008152600401611c0f906143a3565b60405180910390fd5b611c2181612211565b15611c61576040517f08c379a0000000000000000000000000000000000000000000000000000000008152600401611c589061440f565b60405180910390fd5b611c6f600083836001612252565b611c7881612211565b15611cb8576040517f08c379a0000000000000000000000000000000000000000000000000000000008152600401611caf9061440f565b60405180910390fd5b6001600360008473ffffffffffffffffffffffffffffffffffffffff1673ffffffffffffffffffffffffffffffffffffffff16815260200190815260200160002060008282540192505081905550816002600083815260200190815260200160002060006101000a81548173ffffffffffffffffffffffffffffffffffffffff021916908373ffffffffffffffffffffffffffffffffffffffff160217905550808273ffffffffffffffffffffffffffffffffffffffff16600073ffffffffffffffffffffffffffffffffffffffff167fddf252ad1be2c89b69c2b068fc378daa952ba7f163c4a11628f55a4df523b3ef60405160405180910390a4611dc2600083836001612378565b5050565b6001816000016000828254019250508190555050565b60006002600083815260200190815260200160002060009054906101000a900473ffffffffffffffffffffffffffffffffffffffff169050919050565b611e2161174c565b73ffffffffffffffffffffffffffffffffffffffff16611e3f611098565b73ffffffffffffffffffffffffffffffffffffffff1614611e95576040517f08c379a0000000000000000000000000000000000000000000000000000000008152600401611e8c9061447b565b60405180910390fd5b565b6000600760009054906101000a900473ffffffffffffffffffffffffffffffffffffffff16905081600760006101000a81548173ffffffffffffffffffffffffffffffffffffffff021916908373ffffffffffffffffffffffffffffffffffffffff1602179055508173ffffffffffffffffffffffffffffffffffffffff168173ffffffffffffffffffffffffffffffffffffffff167f8be0079c531659141344cd1fd0a4f28419497f9722a3daafe3b4186f6b6457e060405160405180910390a35050565b8173ffffffffffffffffffffffffffffffffffffffff168373ffffffffffffffffffffffffffffffffffffffff1603611fcb576040517f08c379a0000000000000000000000000000000000000000000000000000000008152600401611fc2906144e7565b60405180910390fd5b80600560008573ffffffffffffffffffffffffffffffffffffffff1673ffffffffffffffffffffffffffffffffffffffff16815260200190815260200160002060008473ffffffffffffffffffffffffffffffffffffffff1673ffffffffffffffffffffffffffffffffffffffff16815260200190815260200160002060006101000a81548160ff0219169083151502179055508173ffffffffffffffffffffffffffffffffffffffff168373ffffffffffffffffffffffffffffffffffffffff167f17307eab39ab6107e8899845ad3d59bd9653f200f220920489ca2b5937696c31836040516120bc919061291e565b60405180910390a3505050565b6120d48484846118a2565b6120e08484848461237e565b61211f576040517f08c379a000000000000000000000000000000000000000000000000000000000815260040161211690614579565b60405180910390fd5b50505050565b606060405180602001604052806000815250905090565b606061214782611701565b6000612151612125565b90506000815111612171576040518060200160405280600081525061219c565b8061217b84612505565b60405160200161218c929190613bee565b6040516020818303038152906040525b915050919050565b6121ad82612211565b6121ec576040517f08c379a00000000000000000000000000000000000000000000000000000000081526004016121e39061460b565b60405180910390fd5b8060066000848152602001908152602001600020908161220c919061462b565b505050565b60008073ffffffffffffffffffffffffffffffffffffffff1661223383611ddc565b73ffffffffffffffffffffffffffffffffffffffff1614159050919050565b600181111561237257600073ffffffffffffffffffffffffffffffffffffffff168473ffffffffffffffffffffffffffffffffffffffff16146122e65780600360008673ffffffffffffffffffffffffffffffffffffffff1673ffffffffffffffffffffffffffffffffffffffff16815260200190815260200160002060008282546122de91906146fd565b925050819055505b600073ffffffffffffffffffffffffffffffffffffffff168373ffffffffffffffffffffffffffffffffffffffff16146123715780600360008573ffffffffffffffffffffffffffffffffffffffff1673ffffffffffffffffffffffffffffffffffffffff16815260200190815260200160002060008282546123699190613639565b925050819055505b5b50505050565b50505050565b600061239f8473ffffffffffffffffffffffffffffffffffffffff166125d3565b156124f8578373ffffffffffffffffffffffffffffffffffffffff1663150b7a026123c861174c565b8786866040518563ffffffff1660e01b81526004016123ea949392919061477b565b6020604051808303816000875af192505050801561242657506040513d601f19601f8201168201806040525081019061242391906147dc565b60015b6124a8573d8060008114612456576040519150601f19603f3d011682016040523d82523d6000602084013e61245b565b606091505b5060008151036124a0576040517f08c379a000000000000000000000000000000000000000000000000000000000815260040161249790614579565b60405180910390fd5b805181602001fd5b63150b7a0260e01b7bffffffffffffffffffffffffffffffffffffffffffffffffffffffff1916817bffffffffffffffffffffffffffffffffffffffffffffffffffffffff1916149150506124fd565b600190505b949350505050565b606060006001612514846125f6565b01905060008167ffffffffffffffff81111561253357612532612fdb565b5b6040519080825280601f01601f1916602001820160405280156125655781602001600182028036833780820191505090505b509050600082602001820190505b6001156125c8578080600190039150507f3031323334353637383961626364656600000000000000000000000000000000600a86061a8153600a85816125bc576125bb614809565b5b04945060008503612573575b819350505050919050565b6000808273ffffffffffffffffffffffffffffffffffffffff163b119050919050565b600080600090507a184f03e93ff9f4daa797ed6e38ed64bf6a1f0100000000000000008310612654577a184f03e93ff9f4daa797ed6e38ed64bf6a1f010000000000000000838161264a57612649614809565b5b0492506040810190505b6d04ee2d6d415b85acef81000000008310612691576d04ee2d6d415b85acef8100000000838161268757612686614809565b5b0492506020810190505b662386f26fc1000083106126c057662386f26fc1000083816126b6576126b5614809565b5b0492506010810190505b6305f5e10083106126e9576305f5e10083816126df576126de614809565b5b0492506008810190505b612710831061270e57612710838161270457612703614809565b5b0492506004810190505b60648310612731576064838161272757612726614809565b5b0492506002810190505b600a8310612740576001810190505b80915050919050565b82805482825590600052602060002090600302810192821561280b5760005260206000209160030282015b8281111561280a578282600082015481600001556001820160009054906101000a900473ffffffffffffffffffffffffffffffffffffffff168160010160006101000a81548173ffffffffffffffffffffffffffffffffffffffff021916908373ffffffffffffffffffffffffffffffffffffffff16021790555060028201548160020155505091600301919060030190612774565b5b509050612818919061281c565b5090565b5b80821115612866576000808201600090556001820160006101000a81549073ffffffffffffffffffffffffffffffffffffffff021916905560028201600090555060030161281d565b5090565b6000604051905090565b600080fd5b600080fd5b60007fffffffff0000000000000000000000000000000000000000000000000000000082169050919050565b6128b38161287e565b81146128be57600080fd5b50565b6000813590506128d0816128aa565b92915050565b6000602082840312156128ec576128eb612874565b5b60006128fa848285016128c1565b91505092915050565b60008115159050919050565b61291881612903565b82525050565b6000602082019050612933600083018461290f565b92915050565b600081519050919050565b600082825260208201905092915050565b60005b83811015612973578082015181840152602081019050612958565b60008484015250505050565b6000601f19601f8301169050919050565b600061299b82612939565b6129a58185612944565b93506129b5818560208601612955565b6129be8161297f565b840191505092915050565b600060208201905081810360008301526129e38184612990565b905092915050565b6000819050919050565b6129fe816129eb565b8114612a0957600080fd5b50565b600081359050612a1b816129f5565b92915050565b600060208284031215612a3757612a36612874565b5b6000612a4584828501612a0c565b91505092915050565b600073ffffffffffffffffffffffffffffffffffffffff82169050919050565b6000612a7982612a4e565b9050919050565b612a8981612a6e565b82525050565b6000602082019050612aa46000830184612a80565b92915050565b612ab381612a6e565b8114612abe57600080fd5b50565b600081359050612ad081612aaa565b92915050565b60008060408385031215612aed57612aec612874565b5b6000612afb85828601612ac1565b9250506020612b0c85828601612a0c565b9150509250929050565b600080600060608486031215612b2f57612b2e612874565b5b6000612b3d86828701612ac1565b9350506020612b4e86828701612ac1565b9250506040612b5f86828701612a0c565b9150509250925092565b600081519050919050565b600082825260208201905092915050565b6000819050602082019050919050565b612b9e81612a6e565b82525050565b612bad816129eb565b82525050565b600082825260208201905092915050565b6000612bcf82612939565b612bd98185612bb3565b9350612be9818560208601612955565b612bf28161297f565b840191505092915050565b600081519050919050565b600082825260208201905092915050565b6000612c2482612bfd565b612c2e8185612c08565b9350612c3e818560208601612955565b612c478161297f565b840191505092915050565b612c5b81612903565b82525050565b600081519050919050565b600082825260208201905092915050565b6000819050602082019050919050565b606082016000820151612ca36000850182612ba4565b506020820151612cb66020850182612b95565b506040820151612cc96040850182612ba4565b50505050565b6000612cdb8383612c8d565b60608301905092915050565b6000602082019050919050565b6000612cff82612c61565b612d098185612c6c565b9350612d1483612c7d565b8060005b83811015612d45578151612d2c8882612ccf565b9750612d3783612ce7565b925050600181019050612d18565b5085935050505092915050565b600061016083016000830151612d6b6000860182612b95565b506020830151612d7e6020860182612ba4565b5060408301518482036040860152612d968282612bc4565b91505060608301518482036060860152612db08282612bc4565b91505060808301518482036080860152612dca8282612c19565b91505060a0830151612ddf60a0860182612ba4565b5060c0830151612df260c0860182612ba4565b5060e0830151612e0560e0860182612ba4565b50610100830151612e1a610100860182612c52565b50610120830151612e2f610120860182612ba4565b50610140830151848203610140860152612e498282612cf4565b9150508091505092915050565b6000612e628383612d52565b905092915050565b6000602082019050919050565b6000612e8282612b69565b612e8c8185612b74565b935083602082028501612e9e85612b85565b8060005b85811015612eda5784840389528151612ebb8582612e56565b9450612ec683612e6a565b925060208a01995050600181019050612ea2565b50829750879550505050505092915050565b60006020820190508181036000830152612f068184612e77565b905092915050565b612f17816129eb565b82525050565b6000602082019050612f326000830184612f0e565b92915050565b600060208284031215612f4e57612f4d612874565b5b6000612f5c84828501612ac1565b91505092915050565b612f6e81612903565b8114612f7957600080fd5b50565b600081359050612f8b81612f65565b92915050565b60008060408385031215612fa857612fa7612874565b5b6000612fb685828601612ac1565b9250506020612fc785828601612f7c565b9150509250929050565b600080fd5b600080fd5b7f4e487b7100000000000000000000000000000000000000000000000000000000600052604160045260246000fd5b6130138261297f565b810181811067ffffffffffffffff8211171561303257613031612fdb565b5b80604052505050565b600061304561286a565b9050613051828261300a565b919050565b600067ffffffffffffffff82111561307157613070612fdb565b5b61307a8261297f565b9050602081019050919050565b82818337600083830152505050565b60006130a96130a484613056565b61303b565b9050828152602081018484840111156130c5576130c4612fd6565b5b6130d0848285613087565b509392505050565b600082601f8301126130ed576130ec612fd1565b5b81356130fd848260208601613096565b91505092915050565b600080600080608085870312156131205761311f612874565b5b600061312e87828801612ac1565b945050602061313f87828801612ac1565b935050604061315087828801612a0c565b925050606085013567ffffffffffffffff81111561317157613170612879565b5b61317d878288016130d8565b91505092959194509250565b600080604083850312156131a05761319f612874565b5b60006131ae85828601612ac1565b92505060206131bf85828601612ac1565b9150509250929050565b600080fd5b600080fd5b60008083601f8401126131e9576131e8612fd1565b5b8235905067ffffffffffffffff811115613206576132056131c9565b5b602083019150836001820283011115613222576132216131ce565b5b9250929050565b60008083601f84011261323f5761323e612fd1565b5b8235905067ffffffffffffffff81111561325c5761325b6131c9565b5b602083019150836001820283011115613278576132776131ce565b5b9250929050565b6000819050919050565b6132928161327f565b811461329d57600080fd5b50565b6000813590506132af81613289565b92915050565b60008060008060008060008060008060c08b8d0312156132d8576132d7612874565b5b60008b013567ffffffffffffffff8111156132f6576132f5612879565b5b6133028d828e016131d3565b9a509a505060208b013567ffffffffffffffff81111561332557613324612879565b5b6133318d828e016131d3565b985098505060408b013567ffffffffffffffff81111561335457613353612879565b5b6133608d828e01613229565b965096505060606133738d828e016132a0565b94505060808b013567ffffffffffffffff81111561339457613393612879565b5b6133a08d828e016131d3565b935093505060a06133b38d828e016132a0565b9150509295989b9194979a5092959850565b7f4e487b7100000000000000000000000000000000000000000000000000000000600052602260045260246000fd5b6000600282049050600182168061340c57607f821691505b60208210810361341f5761341e6133c5565b5b50919050565b7f4552433732313a20617070726f76616c20746f2063757272656e74206f776e6560008201527f7200000000000000000000000000000000000000000000000000000000000000602082015250565b6000613481602183612944565b915061348c82613425565b604082019050919050565b600060208201905081810360008301526134b081613474565b9050919050565b7f4552433732313a20617070726f76652063616c6c6572206973206e6f7420746f60008201527f6b656e206f776e6572206f7220617070726f76656420666f7220616c6c000000602082015250565b6000613513603d83612944565b915061351e826134b7565b604082019050919050565b6000602082019050818103600083015261354281613506565b9050919050565b7f4552433732313a2063616c6c6572206973206e6f7420746f6b656e206f776e6560008201527f72206f7220617070726f76656400000000000000000000000000000000000000602082015250565b60006135a5602d83612944565b91506135b082613549565b604082019050919050565b600060208201905081810360008301526135d481613598565b9050919050565b7f4e487b7100000000000000000000000000000000000000000000000000000000600052603260045260246000fd5b7f4e487b7100000000000000000000000000000000000000000000000000000000600052601160045260246000fd5b6000613644826129eb565b915061364f836129eb565b92508282019050808211156136675761366661360a565b5b92915050565b60008160001c9050919050565b600073ffffffffffffffffffffffffffffffffffffffff82169050919050565b60006136ad6136a88361366d565b61367a565b9050919050565b6000819050919050565b60006136d16136cc8361366d565b6136b4565b9050919050565b60008190508160005260206000209050919050565b600081546136fa816133f4565b6137048186612bb3565b9450600182166000811461371f576001811461373557613768565b60ff198316865281151560200286019350613768565b61373e856136d8565b60005b8381101561376057815481890152600182019150602081019050613741565b808801955050505b50505092915050565b60008190508160005260206000209050919050565b60008154613793816133f4565b61379d8186612c08565b945060018216600081146137b857600181146137ce57613801565b60ff198316865281151560200286019350613801565b6137d785613771565b60005b838110156137f9578154818901526001820191506020810190506137da565b808801955050505b50505092915050565b600060ff82169050919050565b600061382a6138258361366d565b61380a565b9050919050565b600081549050919050565b60008190508160005260206000209050919050565b606082016000808301549050613866816136be565b6138736000860182612ba4565b50600183015490506138848161369a565b6138916020860182612b95565b50600283015490506138a2816136be565b6138af6040860182612ba4565b5050505050565b60006138c28383613851565b60608301905092915050565b6000600382019050919050565b60006138e682613831565b6138f08185612c6c565b93506138fb8361383c565b8060005b8381101561392b578161391288826138b6565b975061391d836138ce565b9250506001810190506138ff565b5085935050505092915050565b6000610160830160008084015490506139508161369a565b61395d6000870182612b95565b506001840154905061396e816136be565b61397b6020870182612ba4565b5060028401858303604087015261399283826136ed565b9250506003840185830360608701526139ab83826136ed565b9250506004840185830360808701526139c48382613786565b925050600584015490506139d7816136be565b6139e460a0870182612ba4565b50600684015490506139f5816136be565b613a0260c0870182612ba4565b5060078401549050613a13816136be565b613a2060e0870182612ba4565b5060088401549050613a3181613817565b613a3f610100870182612c52565b5060098401549050613a50816136be565b613a5e610120870182612ba4565b50600a8401858303610140870152613a7683826138db565b925050819250505092915050565b6000604082019050613a996000830185612f0e565b8181036020830152613aab8184613938565b90509392505050565b7f4552433732313a20696e76616c696420746f6b656e2049440000000000000000600082015250565b6000613aea601883612944565b9150613af582613ab4565b602082019050919050565b60006020820190508181036000830152613b1981613add565b9050919050565b7f4552433732313a2061646472657373207a65726f206973206e6f74206120766160008201527f6c6964206f776e65720000000000000000000000000000000000000000000000602082015250565b6000613b7c602983612944565b9150613b8782613b20565b604082019050919050565b60006020820190508181036000830152613bab81613b6f565b9050919050565b600081905092915050565b6000613bc882612939565b613bd28185613bb2565b9350613be2818560208601612955565b80840191505092915050565b6000613bfa8285613bbd565b9150613c068284613bbd565b91508190509392505050565b7f4f776e61626c653a206e6577206f776e657220697320746865207a65726f206160008201527f6464726573730000000000000000000000000000000000000000000000000000602082015250565b6000613c6e602683612944565b9150613c7982613c12565b604082019050919050565b60006020820190508181036000830152613c9d81613c61565b9050919050565b600082905092915050565b60006020601f8301049050919050565b600082821b905092915050565b600060088302613cfc7fffffffffffffffffffffffffffffffffffffffffffffffffffffffffffffffff82613cbf565b613d068683613cbf565b95508019841693508086168417925050509392505050565b6000819050919050565b6000613d43613d3e613d39846129eb565b613d1e565b6129eb565b9050919050565b6000819050919050565b613d5d83613d28565b613d71613d6982613d4a565b848454613ccc565b825550505050565b600090565b613d86613d79565b613d91818484613d54565b505050565b5b81811015613db557613daa600082613d7e565b600181019050613d97565b5050565b601f821115613dfa57613dcb816136d8565b613dd484613caf565b81016020851015613de3578190505b613df7613def85613caf565b830182613d96565b50505b505050565b600082821c905092915050565b6000613e1d60001984600802613dff565b1980831691505092915050565b6000613e368383613e0c565b9150826002028217905092915050565b613e508383613ca4565b67ffffffffffffffff811115613e6957613e68612fdb565b5b613e7382546133f4565b613e7e828285613db9565b6000601f831160018114613ead5760008415613e9b578287013590505b613ea58582613e2a565b865550613f0d565b601f198416613ebb866136d8565b60005b82811015613ee357848901358255600182019150602085019450602081019050613ebe565b86831015613f005784890135613efc601f891682613e0c565b8355505b6001600288020188555050505b50505050505050565b600082905092915050565b601f821115613f6257613f3381613771565b613f3c84613caf565b81016020851015613f4b578190505b613f5f613f5785613caf565b830182613d96565b50505b505050565b613f718383613f16565b67ffffffffffffffff811115613f8a57613f89612fdb565b5b613f9482546133f4565b613f9f828285613f21565b6000601f831160018114613fce5760008415613fbc578287013590505b613fc68582613e2a565b86555061402e565b601f198416613fdc86613771565b60005b8281101561400457848901358255600182019150602085019450602081019050613fdf565b86831015614021578489013561401d601f891682613e0c565b8355505b6001600288020188555050505b50505050505050565b600081549050614046816133f4565b9050919050565b81810361405b575050614133565b61406482614037565b67ffffffffffffffff81111561407d5761407c612fdb565b5b61408782546133f4565b614092828285613db9565b6000601f8311600181146140c157600084156140af578287015490505b6140b98582613e2a565b86555061412c565b601f1984166140cf876136d8565b96506140da866136d8565b60005b82811015614102578489015482556001820191506001850194506020810190506140dd565b8683101561411f578489015461411b601f891682613e0c565b8355505b6001600288020188555050505b5050505050505b565b600081549050614144816133f4565b9050919050565b818103614159575050614231565b61416282614135565b67ffffffffffffffff81111561417b5761417a612fdb565b5b61418582546133f4565b614190828285613f21565b6000601f8311600181146141bf57600084156141ad578287015490505b6141b78582613e2a565b86555061422a565b601f1984166141cd87613771565b96506141d886613771565b60005b82811015614200578489015482556001820191506001850194506020810190506141db565b8683101561421d5784890154614219601f891682613e0c565b8355505b6001600288020188555050505b5050505050505b565b7f4552433732313a207472616e736665722066726f6d20696e636f72726563742060008201527f6f776e6572000000000000000000000000000000000000000000000000000000602082015250565b600061428f602583612944565b915061429a82614233565b604082019050919050565b600060208201905081810360008301526142be81614282565b9050919050565b7f4552433732313a207472616e7366657220746f20746865207a65726f2061646460008201527f7265737300000000000000000000000000000000000000000000000000000000602082015250565b6000614321602483612944565b915061432c826142c5565b604082019050919050565b6000602082019050818103600083015261435081614314565b9050919050565b7f4552433732313a206d696e7420746f20746865207a65726f2061646472657373600082015250565b600061438d602083612944565b915061439882614357565b602082019050919050565b600060208201905081810360008301526143bc81614380565b9050919050565b7f4552433732313a20746f6b656e20616c7265616479206d696e74656400000000600082015250565b60006143f9601c83612944565b9150614404826143c3565b602082019050919050565b60006020820190508181036000830152614428816143ec565b9050919050565b7f4f776e61626c653a2063616c6c6572206973206e6f7420746865206f776e6572600082015250565b6000614465602083612944565b91506144708261442f565b602082019050919050565b6000602082019050818103600083015261449481614458565b9050919050565b7f4552433732313a20617070726f766520746f2063616c6c657200000000000000600082015250565b60006144d1601983612944565b91506144dc8261449b565b602082019050919050565b60006020820190508181036000830152614500816144c4565b9050919050565b7f4552433732313a207472616e7366657220746f206e6f6e20455243373231526560008201527f63656976657220696d706c656d656e7465720000000000000000000000000000602082015250565b6000614563603283612944565b915061456e82614507565b604082019050919050565b6000602082019050818103600083015261459281614556565b9050919050565b7f45524337323155524953746f726167653a2055524920736574206f66206e6f6e60008201527f6578697374656e7420746f6b656e000000000000000000000000000000000000602082015250565b60006145f5602e83612944565b915061460082614599565b604082019050919050565b60006020820190508181036000830152614624816145e8565b9050919050565b61463482612939565b67ffffffffffffffff81111561464d5761464c612fdb565b5b61465782546133f4565b614662828285613db9565b600060209050601f8311600181146146955760008415614683578287015190505b61468d8582613e2a565b8655506146f5565b601f1984166146a3866136d8565b60005b828110156146cb578489015182556001820191506020850194506020810190506146a6565b868310156146e857848901516146e4601f891682613e0c565b8355505b6001600288020188555050505b505050505050565b6000614708826129eb565b9150614713836129eb565b925082820390508181111561472b5761472a61360a565b5b92915050565b600082825260208201905092915050565b600061474d82612bfd565b6147578185614731565b9350614767818560208601612955565b6147708161297f565b840191505092915050565b60006080820190506147906000830187612a80565b61479d6020830186612a80565b6147aa6040830185612f0e565b81810360608301526147bc8184614742565b905095945050505050565b6000815190506147d6816128aa565b92915050565b6000602082840312156147f2576147f1612874565b5b6000614800848285016147c7565b91505092915050565b7f4e487b7100000000000000000000000000000000000000000000000000000000600052601260045260246000fdfea2646970667358221220bcb5230eadf6ec22cd1d0fe4866636d0a536635c488a58486192be908fd311b364736f6c63430008110033",
  "linkReferences": {},
  "deployedLinkReferences": {}
}