{
  "_format": "hh-sol-artifact-1",
  "contractName": "Transfer",
  "sourceName": "contracts/Transfer.sol",
  "abi": [
    {
      "inputs": [],
      "stateMutability": "payable",
      "type": "constructor"
    },
    {
      "anonymous": false,
      "inputs": [
        {
          "indexed": true,
          "internalType": "address",
          "name": "account",
          "type": "address"
        },
        {
          "indexed": true,
          "internalType": "address",
          "name": "operator",
          "type": "address"
        },
        {
          "indexed": false,
          "internalType": "bool",
          "name": "approved",
          "type": "bool"
        }
      ],
      "name": "ApprovalForAll",
      "type": "event"
    },
    {
      "anonymous": false,
      "inputs": [
        {
          "indexed": true,
          "internalType": "address",
          "name": "previousOwner",
          "type": "address"
        },
        {
          "indexed": true,
          "internalType": "address",
          "name": "newOwner",
          "type": "address"
        }
      ],
      "name": "OwnershipTransferred",
      "type": "event"
    },
    {
      "anonymous": false,
      "inputs": [
        {
          "indexed": true,
          "internalType": "address",
          "name": "operator",
          "type": "address"
        },
        {
          "indexed": true,
          "internalType": "address",
          "name": "from",
          "type": "address"
        },
        {
          "indexed": true,
          "internalType": "address",
          "name": "to",
          "type": "address"
        },
        {
          "indexed": false,
          "internalType": "uint256[]",
          "name": "ids",
          "type": "uint256[]"
        },
        {
          "indexed": false,
          "internalType": "uint256[]",
          "name": "values",
          "type": "uint256[]"
        }
      ],
      "name": "TransferBatch",
      "type": "event"
    },
    {
      "anonymous": false,
      "inputs": [
        {
          "indexed": true,
          "internalType": "address",
          "name": "operator",
          "type": "address"
        },
        {
          "indexed": true,
          "internalType": "address",
          "name": "from",
          "type": "address"
        },
        {
          "indexed": true,
          "internalType": "address",
          "name": "to",
          "type": "address"
        },
        {
          "indexed": false,
          "internalType": "uint256",
          "name": "id",
          "type": "uint256"
        },
        {
          "indexed": false,
          "internalType": "uint256",
          "name": "value",
          "type": "uint256"
        }
      ],
      "name": "TransferSingle",
      "type": "event"
    },
    {
      "anonymous": false,
      "inputs": [
        {
          "indexed": false,
          "internalType": "string",
          "name": "value",
          "type": "string"
        },
        {
          "indexed": true,
          "internalType": "uint256",
          "name": "id",
          "type": "uint256"
        }
      ],
      "name": "URI",
      "type": "event"
    },
    {
      "inputs": [],
      "name": "GOLD",
      "outputs": [
        {
          "internalType": "uint256",
          "name": "",
          "type": "uint256"
        }
      ],
      "stateMutability": "view",
      "type": "function"
    },
    {
      "inputs": [],
      "name": "alamatA",
      "outputs": [
        {
          "internalType": "address",
          "name": "",
          "type": "address"
        }
      ],
      "stateMutability": "view",
      "type": "function"
    },
    {
      "inputs": [
        {
          "internalType": "address",
          "name": "account",
          "type": "address"
        },
        {
          "internalType": "uint256",
          "name": "id",
          "type": "uint256"
        }
      ],
      "name": "balanceOf",
      "outputs": [
        {
          "internalType": "uint256",
          "name": "",
          "type": "uint256"
        }
      ],
      "stateMutability": "view",
      "type": "function"
    },
    {
      "inputs": [
        {
          "internalType": "address[]",
          "name": "accounts",
          "type": "address[]"
        },
        {
          "internalType": "uint256[]",
          "name": "ids",
          "type": "uint256[]"
        }
      ],
      "name": "balanceOfBatch",
      "outputs": [
        {
          "internalType": "uint256[]",
          "name": "",
          "type": "uint256[]"
        }
      ],
      "stateMutability": "view",
      "type": "function"
    },
    {
      "inputs": [
        {
          "internalType": "uint256",
          "name": "tokenid",
          "type": "uint256"
        },
        {
          "internalType": "uint256",
          "name": "angka",
          "type": "uint256"
        }
      ],
      "name": "cetakaja",
      "outputs": [],
      "stateMutability": "payable",
      "type": "function"
    },
    {
      "inputs": [
        {
          "internalType": "uint256",
          "name": "pid1",
          "type": "uint256"
        },
        {
          "internalType": "address",
          "name": "to",
          "type": "address"
        }
      ],
      "name": "gotMoney",
      "outputs": [],
      "stateMutability": "payable",
      "type": "function"
    },
    {
      "inputs": [
        {
          "internalType": "address",
          "name": "account",
          "type": "address"
        },
        {
          "internalType": "address",
          "name": "operator",
          "type": "address"
        }
      ],
      "name": "isApprovedForAll",
      "outputs": [
        {
          "internalType": "bool",
          "name": "",
          "type": "bool"
        }
      ],
      "stateMutability": "view",
      "type": "function"
    },
    {
      "inputs": [
        {
          "internalType": "uint256",
          "name": "tokenid",
          "type": "uint256"
        },
        {
          "internalType": "uint256",
          "name": "amount",
          "type": "uint256"
        }
      ],
      "name": "kirimaja",
      "outputs": [],
      "stateMutability": "payable",
      "type": "function"
    },
    {
      "inputs": [],
      "name": "owner",
      "outputs": [
        {
          "internalType": "address",
          "name": "",
          "type": "address"
        }
      ],
      "stateMutability": "view",
      "type": "function"
    },
    {
      "inputs": [],
      "name": "renounceOwnership",
      "outputs": [],
      "stateMutability": "nonpayable",
      "type": "function"
    },
    {
      "inputs": [
        {
          "internalType": "address",
          "name": "from",
          "type": "address"
        },
        {
          "internalType": "address",
          "name": "to",
          "type": "address"
        },
        {
          "internalType": "uint256[]",
          "name": "ids",
          "type": "uint256[]"
        },
        {
          "internalType": "uint256[]",
          "name": "amounts",
          "type": "uint256[]"
        },
        {
          "internalType": "bytes",
          "name": "data",
          "type": "bytes"
        }
      ],
      "name": "safeBatchTransferFrom",
      "outputs": [],
      "stateMutability": "nonpayable",
      "type": "function"
    },
    {
      "inputs": [
        {
          "internalType": "address",
          "name": "from",
          "type": "address"
        },
        {
          "internalType": "address",
          "name": "to",
          "type": "address"
        },
        {
          "internalType": "uint256",
          "name": "id",
          "type": "uint256"
        },
        {
          "internalType": "uint256",
          "name": "amount",
          "type": "uint256"
        },
        {
          "internalType": "bytes",
          "name": "data",
          "type": "bytes"
        }
      ],
      "name": "safeTransferFrom",
      "outputs": [],
      "stateMutability": "nonpayable",
      "type": "function"
    },
    {
      "inputs": [
        {
          "internalType": "address",
          "name": "operator",
          "type": "address"
        },
        {
          "internalType": "bool",
          "name": "approved",
          "type": "bool"
        }
      ],
      "name": "setApprovalForAll",
      "outputs": [],
      "stateMutability": "nonpayable",
      "type": "function"
    },
    {
      "inputs": [
        {
          "internalType": "uint256",
          "name": "pid1",
          "type": "uint256"
        }
      ],
      "name": "showdonation",
      "outputs": [
        {
          "components": [
            {
              "internalType": "address",
              "name": "provider",
              "type": "address"
            },
            {
              "internalType": "uint256",
              "name": "pid",
              "type": "uint256"
            },
            {
              "components": [
                {
                  "internalType": "address",
                  "name": "donors",
                  "type": "address"
                },
                {
                  "internalType": "uint256",
                  "name": "valueofdonors",
                  "type": "uint256"
                }
              ],
              "internalType": "struct Transfer.Transaction[]",
              "name": "transactions",
              "type": "tuple[]"
            }
          ],
          "internalType": "struct Transfer.DonationPost",
          "name": "",
          "type": "tuple"
        }
      ],
      "stateMutability": "view",
      "type": "function"
    },
    {
      "inputs": [
        {
          "internalType": "bytes4",
          "name": "interfaceId",
          "type": "bytes4"
        }
      ],
      "name": "supportsInterface",
      "outputs": [
        {
          "internalType": "bool",
          "name": "",
          "type": "bool"
        }
      ],
      "stateMutability": "view",
      "type": "function"
    },
    {
      "inputs": [
        {
          "internalType": "address",
          "name": "newOwner",
          "type": "address"
        }
      ],
      "name": "transferOwnership",
      "outputs": [],
      "stateMutability": "nonpayable",
      "type": "function"
    },
    {
      "inputs": [
        {
          "internalType": "uint256",
          "name": "",
          "type": "uint256"
        }
      ],
      "name": "uri",
      "outputs": [
        {
          "internalType": "string",
          "name": "",
          "type": "string"
        }
      ],
      "stateMutability": "view",
      "type": "function"
    }
  ],
  "bytecode": "0x60806040526040518060600160405280602781526020016200357a602791396200002f81620000a660201b60201c565b506200005062000044620000c260201b60201c565b620000ca60201b60201c565b620000606200019060201b60201c565b600460006101000a81548173ffffffffffffffffffffffffffffffffffffffff021916908373ffffffffffffffffffffffffffffffffffffffff160217905550620002cf565b8060029080519060200190620000be929190620001ba565b5050565b600033905090565b6000600360009054906101000a900473ffffffffffffffffffffffffffffffffffffffff16905081600360006101000a81548173ffffffffffffffffffffffffffffffffffffffff021916908373ffffffffffffffffffffffffffffffffffffffff1602179055508173ffffffffffffffffffffffffffffffffffffffff168173ffffffffffffffffffffffffffffffffffffffff167f8be0079c531659141344cd1fd0a4f28419497f9722a3daafe3b4186f6b6457e060405160405180910390a35050565b6000600360009054906101000a900473ffffffffffffffffffffffffffffffffffffffff16905090565b828054620001c89062000299565b90600052602060002090601f016020900481019282620001ec576000855562000238565b82601f106200020757805160ff191683800117855562000238565b8280016001018555821562000238579182015b82811115620002375782518255916020019190600101906200021a565b5b5090506200024791906200024b565b5090565b5b80821115620002665760008160009055506001016200024c565b5090565b7f4e487b7100000000000000000000000000000000000000000000000000000000600052602260045260246000fd5b60006002820490506001821680620002b257607f821691505b60208210811415620002c957620002c86200026a565b5b50919050565b61329b80620002df6000396000f3fe6080604052600436106100fd5760003560e01c8063715018a611610095578063a22cb46511610064578063a22cb4651461032c578063d71a6d4614610355578063e985e9c514610371578063f242432a146103ae578063f2fde38b146103d7576100fd565b8063715018a6146102b257806373ebd3a5146102c95780638da5cb5b146102e55780639578f4b514610310576100fd565b80632eb2c2d6116100d15780632eb2c2d6146101e45780633e4bee381461020d5780633f1f86e6146102385780634e1273f414610275576100fd565b8062fdd58e1461010257806301ffc9a71461013f5780630e89341c1461017c578063225dfb5c146101b9575b600080fd5b34801561010e57600080fd5b5061012960048036038101906101249190611d6a565b610400565b6040516101369190611db9565b60405180910390f35b34801561014b57600080fd5b5061016660048036038101906101619190611e2c565b6104c9565b6040516101739190611e74565b60405180910390f35b34801561018857600080fd5b506101a3600480360381019061019e9190611e8f565b6105ab565b6040516101b09190611f55565b60405180910390f35b3480156101c557600080fd5b506101ce61063f565b6040516101db9190611f86565b60405180910390f35b3480156101f057600080fd5b5061020b6004803603810190610206919061219e565b610665565b005b34801561021957600080fd5b50610222610706565b60405161022f9190611db9565b60405180910390f35b34801561024457600080fd5b5061025f600480360381019061025a9190611e8f565b61070b565b60405161026c91906123b9565b60405180910390f35b34801561028157600080fd5b5061029c6004803603810190610297919061249e565b610857565b6040516102a991906125c5565b60405180910390f35b3480156102be57600080fd5b506102c7610970565b005b6102e360048036038101906102de91906125e7565b610984565b005b3480156102f157600080fd5b506102fa6109c6565b6040516103079190611f86565b60405180910390f35b61032a60048036038101906103259190612627565b6109f0565b005b34801561033857600080fd5b50610353600480360381019061034e9190612693565b610b6e565b005b61036f600480360381019061036a91906125e7565b610b84565b005b34801561037d57600080fd5b50610398600480360381019061039391906126d3565b610bc5565b6040516103a59190611e74565b60405180910390f35b3480156103ba57600080fd5b506103d560048036038101906103d09190612713565b610c59565b005b3480156103e357600080fd5b506103fe60048036038101906103f991906127aa565b610cfa565b005b60008073ffffffffffffffffffffffffffffffffffffffff168373ffffffffffffffffffffffffffffffffffffffff161415610471576040517f08c379a000000000000000000000000000000000000000000000000000000000815260040161046890612849565b60405180910390fd5b60008083815260200190815260200160002060008473ffffffffffffffffffffffffffffffffffffffff1673ffffffffffffffffffffffffffffffffffffffff16815260200190815260200160002054905092915050565b60007fd9b67a26000000000000000000000000000000000000000000000000000000007bffffffffffffffffffffffffffffffffffffffffffffffffffffffff1916827bffffffffffffffffffffffffffffffffffffffffffffffffffffffff1916148061059457507f0e89341c000000000000000000000000000000000000000000000000000000007bffffffffffffffffffffffffffffffffffffffffffffffffffffffff1916827bffffffffffffffffffffffffffffffffffffffffffffffffffffffff1916145b806105a457506105a382610d7e565b5b9050919050565b6060600280546105ba90612898565b80601f01602080910402602001604051908101604052809291908181526020018280546105e690612898565b80156106335780601f1061060857610100808354040283529160200191610633565b820191906000526020600020905b81548152906001019060200180831161061657829003601f168201915b50505050509050919050565b600460009054906101000a900473ffffffffffffffffffffffffffffffffffffffff1681565b61066d610de8565b73ffffffffffffffffffffffffffffffffffffffff168573ffffffffffffffffffffffffffffffffffffffff1614806106b357506106b2856106ad610de8565b610bc5565b5b6106f2576040517f08c379a00000000000000000000000000000000000000000000000000000000081526004016106e99061293c565b60405180910390fd5b6106ff8585858585610df0565b5050505050565b600081565b610713611c8b565b600560008381526020019081526020016000206040518060600160405290816000820160009054906101000a900473ffffffffffffffffffffffffffffffffffffffff1673ffffffffffffffffffffffffffffffffffffffff1673ffffffffffffffffffffffffffffffffffffffff1681526020016001820154815260200160028201805480602002602001604051908101604052809291908181526020016000905b8282101561084857838290600052602060002090600202016040518060400160405290816000820160009054906101000a900473ffffffffffffffffffffffffffffffffffffffff1673ffffffffffffffffffffffffffffffffffffffff1673ffffffffffffffffffffffffffffffffffffffff168152602001600182015481525050815260200190600101906107b6565b50505050815250509050919050565b6060815183511461089d576040517f08c379a0000000000000000000000000000000000000000000000000000000008152600401610894906129ce565b60405180910390fd5b6000835167ffffffffffffffff8111156108ba576108b9611fa6565b5b6040519080825280602002602001820160405280156108e85781602001602082028036833780820191505090505b50905060005b84518110156109655761093585828151811061090d5761090c6129ee565b5b6020026020010151858381518110610928576109276129ee565b5b6020026020010151610400565b828281518110610948576109476129ee565b5b6020026020010181815250508061095e90612a4c565b90506108ee565b508091505092915050565b610978611112565b6109826000611190565b565b6109c2600460009054906101000a900473ffffffffffffffffffffffffffffffffffffffff1633848460405180602001604052806000815250611256565b5050565b6000600360009054906101000a900473ffffffffffffffffffffffffffffffffffffffff16905090565b60008190508073ffffffffffffffffffffffffffffffffffffffff166108fc349081150290604051600060405180830381858888f19350505050158015610a3b573d6000803e3d6000fd5b50816005600085815260200190815260200160002060000160006101000a81548173ffffffffffffffffffffffffffffffffffffffff021916908373ffffffffffffffffffffffffffffffffffffffff1602179055508260056000858152602001908152602001600020600101819055506005600084815260200190815260200160002060020160405180604001604052803373ffffffffffffffffffffffffffffffffffffffff16815260200134815250908060018154018082558091505060019003906000526020600020906002020160009091909190915060008201518160000160006101000a81548173ffffffffffffffffffffffffffffffffffffffff021916908373ffffffffffffffffffffffffffffffffffffffff160217905550602082015181600101555050505050565b610b80610b79610de8565b83836114f2565b5050565b610bc1600460009054906101000a900473ffffffffffffffffffffffffffffffffffffffff1683836040518060200160405280600081525061165f565b5050565b6000600160008473ffffffffffffffffffffffffffffffffffffffff1673ffffffffffffffffffffffffffffffffffffffff16815260200190815260200160002060008373ffffffffffffffffffffffffffffffffffffffff1673ffffffffffffffffffffffffffffffffffffffff16815260200190815260200160002060009054906101000a900460ff16905092915050565b610c61610de8565b73ffffffffffffffffffffffffffffffffffffffff168573ffffffffffffffffffffffffffffffffffffffff161480610ca75750610ca685610ca1610de8565b610bc5565b5b610ce6576040517f08c379a0000000000000000000000000000000000000000000000000000000008152600401610cdd9061293c565b60405180910390fd5b610cf38585858585611256565b5050505050565b610d02611112565b600073ffffffffffffffffffffffffffffffffffffffff168173ffffffffffffffffffffffffffffffffffffffff161415610d72576040517f08c379a0000000000000000000000000000000000000000000000000000000008152600401610d6990612b07565b60405180910390fd5b610d7b81611190565b50565b60007f01ffc9a7000000000000000000000000000000000000000000000000000000007bffffffffffffffffffffffffffffffffffffffffffffffffffffffff1916827bffffffffffffffffffffffffffffffffffffffffffffffffffffffff1916149050919050565b600033905090565b8151835114610e34576040517f08c379a0000000000000000000000000000000000000000000000000000000008152600401610e2b90612b99565b60405180910390fd5b600073ffffffffffffffffffffffffffffffffffffffff168473ffffffffffffffffffffffffffffffffffffffff161415610ea4576040517f08c379a0000000000000000000000000000000000000000000000000000000008152600401610e9b90612c2b565b60405180910390fd5b6000610eae610de8565b9050610ebe818787878787611810565b60005b845181101561106f576000858281518110610edf57610ede6129ee565b5b602002602001015190506000858381518110610efe57610efd6129ee565b5b60200260200101519050600080600084815260200190815260200160002060008b73ffffffffffffffffffffffffffffffffffffffff1673ffffffffffffffffffffffffffffffffffffffff16815260200190815260200160002054905081811015610f9f576040517f08c379a0000000000000000000000000000000000000000000000000000000008152600401610f9690612cbd565b60405180910390fd5b81810360008085815260200190815260200160002060008c73ffffffffffffffffffffffffffffffffffffffff1673ffffffffffffffffffffffffffffffffffffffff168152602001908152602001600020819055508160008085815260200190815260200160002060008b73ffffffffffffffffffffffffffffffffffffffff1673ffffffffffffffffffffffffffffffffffffffff16815260200190815260200160002060008282546110549190612cdd565b925050819055505050508061106890612a4c565b9050610ec1565b508473ffffffffffffffffffffffffffffffffffffffff168673ffffffffffffffffffffffffffffffffffffffff168273ffffffffffffffffffffffffffffffffffffffff167f4a39dc06d4c0dbc64b70af90fd698a233a518aa5d07e595d983b8c0526c8f7fb87876040516110e6929190612d33565b60405180910390a46110fc818787878787611818565b61110a818787878787611820565b505050505050565b61111a610de8565b73ffffffffffffffffffffffffffffffffffffffff166111386109c6565b73ffffffffffffffffffffffffffffffffffffffff161461118e576040517f08c379a000000000000000000000000000000000000000000000000000000000815260040161118590612db6565b60405180910390fd5b565b6000600360009054906101000a900473ffffffffffffffffffffffffffffffffffffffff16905081600360006101000a81548173ffffffffffffffffffffffffffffffffffffffff021916908373ffffffffffffffffffffffffffffffffffffffff1602179055508173ffffffffffffffffffffffffffffffffffffffff168173ffffffffffffffffffffffffffffffffffffffff167f8be0079c531659141344cd1fd0a4f28419497f9722a3daafe3b4186f6b6457e060405160405180910390a35050565b600073ffffffffffffffffffffffffffffffffffffffff168473ffffffffffffffffffffffffffffffffffffffff1614156112c6576040517f08c379a00000000000000000000000000000000000000000000000000000000081526004016112bd90612c2b565b60405180910390fd5b60006112d0610de8565b905060006112dd85611a07565b905060006112ea85611a07565b90506112fa838989858589611810565b600080600088815260200190815260200160002060008a73ffffffffffffffffffffffffffffffffffffffff1673ffffffffffffffffffffffffffffffffffffffff16815260200190815260200160002054905085811015611391576040517f08c379a000000000000000000000000000000000000000000000000000000000815260040161138890612cbd565b60405180910390fd5b85810360008089815260200190815260200160002060008b73ffffffffffffffffffffffffffffffffffffffff1673ffffffffffffffffffffffffffffffffffffffff168152602001908152602001600020819055508560008089815260200190815260200160002060008a73ffffffffffffffffffffffffffffffffffffffff1673ffffffffffffffffffffffffffffffffffffffff16815260200190815260200160002060008282546114469190612cdd565b925050819055508773ffffffffffffffffffffffffffffffffffffffff168973ffffffffffffffffffffffffffffffffffffffff168573ffffffffffffffffffffffffffffffffffffffff167fc3d58168c5ae7397731d063d5bbf3d657854427343f4c083240f7aacaa2d0f628a8a6040516114c3929190612dd6565b60405180910390a46114d9848a8a86868a611818565b6114e7848a8a8a8a8a611a81565b505050505050505050565b8173ffffffffffffffffffffffffffffffffffffffff168373ffffffffffffffffffffffffffffffffffffffff161415611561576040517f08c379a000000000000000000000000000000000000000000000000000000000815260040161155890612e71565b60405180910390fd5b80600160008573ffffffffffffffffffffffffffffffffffffffff1673ffffffffffffffffffffffffffffffffffffffff16815260200190815260200160002060008473ffffffffffffffffffffffffffffffffffffffff1673ffffffffffffffffffffffffffffffffffffffff16815260200190815260200160002060006101000a81548160ff0219169083151502179055508173ffffffffffffffffffffffffffffffffffffffff168373ffffffffffffffffffffffffffffffffffffffff167f17307eab39ab6107e8899845ad3d59bd9653f200f220920489ca2b5937696c31836040516116529190611e74565b60405180910390a3505050565b600073ffffffffffffffffffffffffffffffffffffffff168473ffffffffffffffffffffffffffffffffffffffff1614156116cf576040517f08c379a00000000000000000000000000000000000000000000000000000000081526004016116c690612f03565b60405180910390fd5b60006116d9610de8565b905060006116e685611a07565b905060006116f385611a07565b905061170483600089858589611810565b8460008088815260200190815260200160002060008973ffffffffffffffffffffffffffffffffffffffff1673ffffffffffffffffffffffffffffffffffffffff16815260200190815260200160002060008282546117639190612cdd565b925050819055508673ffffffffffffffffffffffffffffffffffffffff16600073ffffffffffffffffffffffffffffffffffffffff168473ffffffffffffffffffffffffffffffffffffffff167fc3d58168c5ae7397731d063d5bbf3d657854427343f4c083240f7aacaa2d0f6289896040516117e1929190612dd6565b60405180910390a46117f883600089858589611818565b61180783600089898989611a81565b50505050505050565b505050505050565b505050505050565b61183f8473ffffffffffffffffffffffffffffffffffffffff16611c68565b156119ff578373ffffffffffffffffffffffffffffffffffffffff1663bc197c8187878686866040518663ffffffff1660e01b8152600401611885959493929190612f78565b602060405180830381600087803b15801561189f57600080fd5b505af19250505080156118d057506040513d601f19601f820116820180604052508101906118cd9190612ff5565b60015b611976576118dc61302f565b806308c379a0141561193957506118f1613051565b806118fc575061193b565b806040517f08c379a00000000000000000000000000000000000000000000000000000000081526004016119309190611f55565b60405180910390fd5b505b6040517f08c379a000000000000000000000000000000000000000000000000000000000815260040161196d90613159565b60405180910390fd5b63bc197c8160e01b7bffffffffffffffffffffffffffffffffffffffffffffffffffffffff1916817bffffffffffffffffffffffffffffffffffffffffffffffffffffffff1916146119fd576040517f08c379a00000000000000000000000000000000000000000000000000000000081526004016119f4906131eb565b60405180910390fd5b505b505050505050565b60606000600167ffffffffffffffff811115611a2657611a25611fa6565b5b604051908082528060200260200182016040528015611a545781602001602082028036833780820191505090505b5090508281600081518110611a6c57611a6b6129ee565b5b60200260200101818152505080915050919050565b611aa08473ffffffffffffffffffffffffffffffffffffffff16611c68565b15611c60578373ffffffffffffffffffffffffffffffffffffffff1663f23a6e6187878686866040518663ffffffff1660e01b8152600401611ae695949392919061320b565b602060405180830381600087803b158015611b0057600080fd5b505af1925050508015611b3157506040513d601f19601f82011682018060405250810190611b2e9190612ff5565b60015b611bd757611b3d61302f565b806308c379a01415611b9a5750611b52613051565b80611b5d5750611b9c565b806040517f08c379a0000000000000000000000000000000000000000000000000000000008152600401611b919190611f55565b60405180910390fd5b505b6040517f08c379a0000000000000000000000000000000000000000000000000000000008152600401611bce90613159565b60405180910390fd5b63f23a6e6160e01b7bffffffffffffffffffffffffffffffffffffffffffffffffffffffff1916817bffffffffffffffffffffffffffffffffffffffffffffffffffffffff191614611c5e576040517f08c379a0000000000000000000000000000000000000000000000000000000008152600401611c55906131eb565b60405180910390fd5b505b505050505050565b6000808273ffffffffffffffffffffffffffffffffffffffff163b119050919050565b6040518060600160405280600073ffffffffffffffffffffffffffffffffffffffff16815260200160008152602001606081525090565b6000604051905090565b600080fd5b600080fd5b600073ffffffffffffffffffffffffffffffffffffffff82169050919050565b6000611d0182611cd6565b9050919050565b611d1181611cf6565b8114611d1c57600080fd5b50565b600081359050611d2e81611d08565b92915050565b6000819050919050565b611d4781611d34565b8114611d5257600080fd5b50565b600081359050611d6481611d3e565b92915050565b60008060408385031215611d8157611d80611ccc565b5b6000611d8f85828601611d1f565b9250506020611da085828601611d55565b9150509250929050565b611db381611d34565b82525050565b6000602082019050611dce6000830184611daa565b92915050565b60007fffffffff0000000000000000000000000000000000000000000000000000000082169050919050565b611e0981611dd4565b8114611e1457600080fd5b50565b600081359050611e2681611e00565b92915050565b600060208284031215611e4257611e41611ccc565b5b6000611e5084828501611e17565b91505092915050565b60008115159050919050565b611e6e81611e59565b82525050565b6000602082019050611e896000830184611e65565b92915050565b600060208284031215611ea557611ea4611ccc565b5b6000611eb384828501611d55565b91505092915050565b600081519050919050565b600082825260208201905092915050565b60005b83811015611ef6578082015181840152602081019050611edb565b83811115611f05576000848401525b50505050565b6000601f19601f8301169050919050565b6000611f2782611ebc565b611f318185611ec7565b9350611f41818560208601611ed8565b611f4a81611f0b565b840191505092915050565b60006020820190508181036000830152611f6f8184611f1c565b905092915050565b611f8081611cf6565b82525050565b6000602082019050611f9b6000830184611f77565b92915050565b600080fd5b7f4e487b7100000000000000000000000000000000000000000000000000000000600052604160045260246000fd5b611fde82611f0b565b810181811067ffffffffffffffff82111715611ffd57611ffc611fa6565b5b80604052505050565b6000612010611cc2565b905061201c8282611fd5565b919050565b600067ffffffffffffffff82111561203c5761203b611fa6565b5b602082029050602081019050919050565b600080fd5b600061206561206084612021565b612006565b905080838252602082019050602084028301858111156120885761208761204d565b5b835b818110156120b1578061209d8882611d55565b84526020840193505060208101905061208a565b5050509392505050565b600082601f8301126120d0576120cf611fa1565b5b81356120e0848260208601612052565b91505092915050565b600080fd5b600067ffffffffffffffff82111561210957612108611fa6565b5b61211282611f0b565b9050602081019050919050565b82818337600083830152505050565b600061214161213c846120ee565b612006565b90508281526020810184848401111561215d5761215c6120e9565b5b61216884828561211f565b509392505050565b600082601f83011261218557612184611fa1565b5b813561219584826020860161212e565b91505092915050565b600080600080600060a086880312156121ba576121b9611ccc565b5b60006121c888828901611d1f565b95505060206121d988828901611d1f565b945050604086013567ffffffffffffffff8111156121fa576121f9611cd1565b5b612206888289016120bb565b935050606086013567ffffffffffffffff81111561222757612226611cd1565b5b612233888289016120bb565b925050608086013567ffffffffffffffff81111561225457612253611cd1565b5b61226088828901612170565b9150509295509295909350565b61227681611cf6565b82525050565b61228581611d34565b82525050565b600081519050919050565b600082825260208201905092915050565b6000819050602082019050919050565b6040820160008201516122cd600085018261226d565b5060208201516122e0602085018261227c565b50505050565b60006122f283836122b7565b60408301905092915050565b6000602082019050919050565b60006123168261228b565b6123208185612296565b935061232b836122a7565b8060005b8381101561235c57815161234388826122e6565b975061234e836122fe565b92505060018101905061232f565b5085935050505092915050565b6000606083016000830151612381600086018261226d565b506020830151612394602086018261227c565b50604083015184820360408601526123ac828261230b565b9150508091505092915050565b600060208201905081810360008301526123d38184612369565b905092915050565b600067ffffffffffffffff8211156123f6576123f5611fa6565b5b602082029050602081019050919050565b600061241a612415846123db565b612006565b9050808382526020820190506020840283018581111561243d5761243c61204d565b5b835b8181101561246657806124528882611d1f565b84526020840193505060208101905061243f565b5050509392505050565b600082601f83011261248557612484611fa1565b5b8135612495848260208601612407565b91505092915050565b600080604083850312156124b5576124b4611ccc565b5b600083013567ffffffffffffffff8111156124d3576124d2611cd1565b5b6124df85828601612470565b925050602083013567ffffffffffffffff811115612500576124ff611cd1565b5b61250c858286016120bb565b9150509250929050565b600081519050919050565b600082825260208201905092915050565b6000819050602082019050919050565b600061254e838361227c565b60208301905092915050565b6000602082019050919050565b600061257282612516565b61257c8185612521565b935061258783612532565b8060005b838110156125b857815161259f8882612542565b97506125aa8361255a565b92505060018101905061258b565b5085935050505092915050565b600060208201905081810360008301526125df8184612567565b905092915050565b600080604083850312156125fe576125fd611ccc565b5b600061260c85828601611d55565b925050602061261d85828601611d55565b9150509250929050565b6000806040838503121561263e5761263d611ccc565b5b600061264c85828601611d55565b925050602061265d85828601611d1f565b9150509250929050565b61267081611e59565b811461267b57600080fd5b50565b60008135905061268d81612667565b92915050565b600080604083850312156126aa576126a9611ccc565b5b60006126b885828601611d1f565b92505060206126c98582860161267e565b9150509250929050565b600080604083850312156126ea576126e9611ccc565b5b60006126f885828601611d1f565b925050602061270985828601611d1f565b9150509250929050565b600080600080600060a0868803121561272f5761272e611ccc565b5b600061273d88828901611d1f565b955050602061274e88828901611d1f565b945050604061275f88828901611d55565b935050606061277088828901611d55565b925050608086013567ffffffffffffffff81111561279157612790611cd1565b5b61279d88828901612170565b9150509295509295909350565b6000602082840312156127c0576127bf611ccc565b5b60006127ce84828501611d1f565b91505092915050565b7f455243313135353a2061646472657373207a65726f206973206e6f742061207660008201527f616c6964206f776e657200000000000000000000000000000000000000000000602082015250565b6000612833602a83611ec7565b915061283e826127d7565b604082019050919050565b6000602082019050818103600083015261286281612826565b9050919050565b7f4e487b7100000000000000000000000000000000000000000000000000000000600052602260045260246000fd5b600060028204905060018216806128b057607f821691505b602082108114156128c4576128c3612869565b5b50919050565b7f455243313135353a2063616c6c6572206973206e6f7420746f6b656e206f776e60008201527f6572206f7220617070726f766564000000000000000000000000000000000000602082015250565b6000612926602e83611ec7565b9150612931826128ca565b604082019050919050565b6000602082019050818103600083015261295581612919565b9050919050565b7f455243313135353a206163636f756e747320616e6420696473206c656e67746860008201527f206d69736d617463680000000000000000000000000000000000000000000000602082015250565b60006129b8602983611ec7565b91506129c38261295c565b604082019050919050565b600060208201905081810360008301526129e7816129ab565b9050919050565b7f4e487b7100000000000000000000000000000000000000000000000000000000600052603260045260246000fd5b7f4e487b7100000000000000000000000000000000000000000000000000000000600052601160045260246000fd5b6000612a5782611d34565b91507fffffffffffffffffffffffffffffffffffffffffffffffffffffffffffffffff821415612a8a57612a89612a1d565b5b600182019050919050565b7f4f776e61626c653a206e6577206f776e657220697320746865207a65726f206160008201527f6464726573730000000000000000000000000000000000000000000000000000602082015250565b6000612af1602683611ec7565b9150612afc82612a95565b604082019050919050565b60006020820190508181036000830152612b2081612ae4565b9050919050565b7f455243313135353a2069647320616e6420616d6f756e7473206c656e6774682060008201527f6d69736d61746368000000000000000000000000000000000000000000000000602082015250565b6000612b83602883611ec7565b9150612b8e82612b27565b604082019050919050565b60006020820190508181036000830152612bb281612b76565b9050919050565b7f455243313135353a207472616e7366657220746f20746865207a65726f20616460008201527f6472657373000000000000000000000000000000000000000000000000000000602082015250565b6000612c15602583611ec7565b9150612c2082612bb9565b604082019050919050565b60006020820190508181036000830152612c4481612c08565b9050919050565b7f455243313135353a20696e73756666696369656e742062616c616e636520666f60008201527f72207472616e7366657200000000000000000000000000000000000000000000602082015250565b6000612ca7602a83611ec7565b9150612cb282612c4b565b604082019050919050565b60006020820190508181036000830152612cd681612c9a565b9050919050565b6000612ce882611d34565b9150612cf383611d34565b9250827fffffffffffffffffffffffffffffffffffffffffffffffffffffffffffffffff03821115612d2857612d27612a1d565b5b828201905092915050565b60006040820190508181036000830152612d4d8185612567565b90508181036020830152612d618184612567565b90509392505050565b7f4f776e61626c653a2063616c6c6572206973206e6f7420746865206f776e6572600082015250565b6000612da0602083611ec7565b9150612dab82612d6a565b602082019050919050565b60006020820190508181036000830152612dcf81612d93565b9050919050565b6000604082019050612deb6000830185611daa565b612df86020830184611daa565b9392505050565b7f455243313135353a2073657474696e6720617070726f76616c2073746174757360008201527f20666f722073656c660000000000000000000000000000000000000000000000602082015250565b6000612e5b602983611ec7565b9150612e6682612dff565b604082019050919050565b60006020820190508181036000830152612e8a81612e4e565b9050919050565b7f455243313135353a206d696e7420746f20746865207a65726f2061646472657360008201527f7300000000000000000000000000000000000000000000000000000000000000602082015250565b6000612eed602183611ec7565b9150612ef882612e91565b604082019050919050565b60006020820190508181036000830152612f1c81612ee0565b9050919050565b600081519050919050565b600082825260208201905092915050565b6000612f4a82612f23565b612f548185612f2e565b9350612f64818560208601611ed8565b612f6d81611f0b565b840191505092915050565b600060a082019050612f8d6000830188611f77565b612f9a6020830187611f77565b8181036040830152612fac8186612567565b90508181036060830152612fc08185612567565b90508181036080830152612fd48184612f3f565b90509695505050505050565b600081519050612fef81611e00565b92915050565b60006020828403121561300b5761300a611ccc565b5b600061301984828501612fe0565b91505092915050565b60008160e01c9050919050565b600060033d111561304e5760046000803e61304b600051613022565b90505b90565b600060443d1015613061576130e4565b613069611cc2565b60043d036004823e80513d602482011167ffffffffffffffff821117156130915750506130e4565b808201805167ffffffffffffffff8111156130af57505050506130e4565b80602083010160043d0385018111156130cc5750505050506130e4565b6130db82602001850186611fd5565b82955050505050505b90565b7f455243313135353a207472616e7366657220746f206e6f6e2d4552433131353560008201527f526563656976657220696d706c656d656e746572000000000000000000000000602082015250565b6000613143603483611ec7565b915061314e826130e7565b604082019050919050565b6000602082019050818103600083015261317281613136565b9050919050565b7f455243313135353a204552433131353552656365697665722072656a6563746560008201527f6420746f6b656e73000000000000000000000000000000000000000000000000602082015250565b60006131d5602883611ec7565b91506131e082613179565b604082019050919050565b60006020820190508181036000830152613204816131c8565b9050919050565b600060a0820190506132206000830188611f77565b61322d6020830187611f77565b61323a6040830186611daa565b6132476060830185611daa565b81810360808301526132598184612f3f565b9050969550505050505056fea264697066735822122034f1108c5a8f7562f0de95ebaed83b94a43807730d4fda1811856bf08340a17d64736f6c6343000809003368747470733a2f2f67616d652e6578616d706c652f6170692f6974656d2f7b69647d2e6a736f6e",
  "linkReferences": {},
  "deployedLinkReferences": {}
}